{
  "contractName": "CredentialVerifier",
  "abi": [
    {
      "inputs": [
        {
          "internalType": "address",
          "name": "_credentialNFTAddress",
          "type": "address"
        },
        {
          "internalType": "address",
          "name": "_issuerRegistryAddress",
          "type": "address"
        }
      ],
      "stateMutability": "nonpayable",
      "type": "constructor"
    },
    {
      "anonymous": false,
      "inputs": [
        {
          "indexed": true,
          "internalType": "address",
          "name": "verifier",
          "type": "address"
        },
        {
          "indexed": false,
          "internalType": "uint256",
          "name": "totalVerified",
          "type": "uint256"
        },
        {
          "indexed": false,
          "internalType": "uint256",
          "name": "validCount",
          "type": "uint256"
        },
        {
          "indexed": false,
          "internalType": "uint256",
          "name": "verificationDate",
          "type": "uint256"
        }
      ],
      "name": "BatchVerificationCompleted",
      "type": "event"
    },
    {
      "anonymous": false,
      "inputs": [
        {
          "indexed": true,
          "internalType": "uint256",
          "name": "tokenId",
          "type": "uint256"
        },
        {
          "indexed": true,
          "internalType": "address",
          "name": "verifier",
          "type": "address"
        },
        {
          "indexed": false,
          "internalType": "bool",
          "name": "isValid",
          "type": "bool"
        },
        {
          "indexed": false,
          "internalType": "uint256",
          "name": "verificationDate",
          "type": "uint256"
        }
      ],
      "name": "CredentialVerified",
      "type": "event"
    },
    {
      "anonymous": false,
      "inputs": [
        {
          "indexed": true,
          "internalType": "bytes32",
          "name": "proofHash",
          "type": "bytes32"
        },
        {
          "indexed": true,
          "internalType": "address",
          "name": "verifier",
          "type": "address"
        },
        {
          "indexed": false,
          "internalType": "bool",
          "name": "isValid",
          "type": "bool"
        },
        {
          "indexed": false,
          "internalType": "uint256",
          "name": "verificationDate",
          "type": "uint256"
        }
      ],
      "name": "ZKPVerified",
      "type": "event"
    },
    {
      "inputs": [],
      "name": "credentialNFT",
      "outputs": [
        {
          "internalType": "contract ICredential",
          "name": "",
          "type": "address"
        }
      ],
      "stateMutability": "view",
      "type": "function",
      "constant": true
    },
    {
      "inputs": [],
      "name": "issuerRegistry",
      "outputs": [
        {
          "internalType": "contract IIssuer",
          "name": "",
          "type": "address"
        }
      ],
      "stateMutability": "view",
      "type": "function",
      "constant": true
    },
    {
      "inputs": [
        {
          "internalType": "uint256",
          "name": "tokenId",
          "type": "uint256"
        }
      ],
      "name": "verifyCredential",
      "outputs": [
        {
          "components": [
            {
              "internalType": "bool",
              "name": "isValid",
              "type": "bool"
            },
            {
              "internalType": "bool",
              "name": "exists",
              "type": "bool"
            },
            {
              "internalType": "bool",
              "name": "isActive",
              "type": "bool"
            },
            {
              "internalType": "bool",
              "name": "isExpired",
              "type": "bool"
            },
            {
              "internalType": "bool",
              "name": "isRevoked",
              "type": "bool"
            },
            {
              "internalType": "bool",
              "name": "issuerAccredited",
              "type": "bool"
            },
            {
              "internalType": "enum CredentialTypes.CredentialStatus",
              "name": "status",
              "type": "uint8"
            }
          ],
          "internalType": "struct CredentialTypes.VerificationResult",
          "name": "",
          "type": "tuple"
        }
      ],
      "stateMutability": "view",
      "type": "function",
      "constant": true
    },
    {
      "inputs": [
        {
          "internalType": "uint256",
          "name": "tokenId",
          "type": "uint256"
        }
      ],
      "name": "verifyCredentialWithEvent",
      "outputs": [
        {
          "components": [
            {
              "internalType": "bool",
              "name": "isValid",
              "type": "bool"
            },
            {
              "internalType": "bool",
              "name": "exists",
              "type": "bool"
            },
            {
              "internalType": "bool",
              "name": "isActive",
              "type": "bool"
            },
            {
              "internalType": "bool",
              "name": "isExpired",
              "type": "bool"
            },
            {
              "internalType": "bool",
              "name": "isRevoked",
              "type": "bool"
            },
            {
              "internalType": "bool",
              "name": "issuerAccredited",
              "type": "bool"
            },
            {
              "internalType": "enum CredentialTypes.CredentialStatus",
              "name": "status",
              "type": "uint8"
            }
          ],
          "internalType": "struct CredentialTypes.VerificationResult",
          "name": "",
          "type": "tuple"
        }
      ],
      "stateMutability": "nonpayable",
      "type": "function"
    },
    {
      "inputs": [
        {
          "internalType": "uint256[]",
          "name": "tokenIds",
          "type": "uint256[]"
        }
      ],
      "name": "verifyCredentialBatch",
      "outputs": [
        {
          "components": [
            {
              "internalType": "bool",
              "name": "isValid",
              "type": "bool"
            },
            {
              "internalType": "bool",
              "name": "exists",
              "type": "bool"
            },
            {
              "internalType": "bool",
              "name": "isActive",
              "type": "bool"
            },
            {
              "internalType": "bool",
              "name": "isExpired",
              "type": "bool"
            },
            {
              "internalType": "bool",
              "name": "isRevoked",
              "type": "bool"
            },
            {
              "internalType": "bool",
              "name": "issuerAccredited",
              "type": "bool"
            },
            {
              "internalType": "enum CredentialTypes.CredentialStatus",
              "name": "status",
              "type": "uint8"
            }
          ],
          "internalType": "struct CredentialTypes.VerificationResult[]",
          "name": "",
          "type": "tuple[]"
        }
      ],
      "stateMutability": "view",
      "type": "function",
      "constant": true
    },
    {
      "inputs": [
        {
          "internalType": "uint256[]",
          "name": "tokenIds",
          "type": "uint256[]"
        }
      ],
      "name": "verifyCredentialBatchWithEvent",
      "outputs": [
        {
          "components": [
            {
              "internalType": "bool",
              "name": "isValid",
              "type": "bool"
            },
            {
              "internalType": "bool",
              "name": "exists",
              "type": "bool"
            },
            {
              "internalType": "bool",
              "name": "isActive",
              "type": "bool"
            },
            {
              "internalType": "bool",
              "name": "isExpired",
              "type": "bool"
            },
            {
              "internalType": "bool",
              "name": "isRevoked",
              "type": "bool"
            },
            {
              "internalType": "bool",
              "name": "issuerAccredited",
              "type": "bool"
            },
            {
              "internalType": "enum CredentialTypes.CredentialStatus",
              "name": "status",
              "type": "uint8"
            }
          ],
          "internalType": "struct CredentialTypes.VerificationResult[]",
          "name": "",
          "type": "tuple[]"
        }
      ],
      "stateMutability": "nonpayable",
      "type": "function"
    },
    {
      "inputs": [
        {
          "internalType": "uint256",
          "name": "tokenId",
          "type": "uint256"
        }
      ],
      "name": "isCredentialValid",
      "outputs": [
        {
          "internalType": "bool",
          "name": "",
          "type": "bool"
        }
      ],
      "stateMutability": "view",
      "type": "function",
      "constant": true
    },
    {
      "inputs": [
        {
          "internalType": "uint256",
          "name": "tokenId",
          "type": "uint256"
        },
        {
          "internalType": "address",
          "name": "claimedHolder",
          "type": "address"
        }
      ],
      "name": "verifyOwnership",
      "outputs": [
        {
          "internalType": "bool",
          "name": "",
          "type": "bool"
        }
      ],
      "stateMutability": "view",
      "type": "function",
      "constant": true
    },
    {
      "inputs": [
        {
          "internalType": "address",
          "name": "issuerAddress",
          "type": "address"
        }
      ],
      "name": "verifyIssuer",
      "outputs": [
        {
          "internalType": "bool",
          "name": "",
          "type": "bool"
        }
      ],
      "stateMutability": "view",
      "type": "function",
      "constant": true
    },
    {
      "inputs": [
        {
          "internalType": "uint256",
          "name": "tokenId",
          "type": "uint256"
        },
        {
          "internalType": "bytes32",
          "name": "claimedHash",
          "type": "bytes32"
        }
      ],
      "name": "verifyCredentialHash",
      "outputs": [
        {
          "internalType": "bool",
          "name": "",
          "type": "bool"
        }
      ],
      "stateMutability": "view",
      "type": "function",
      "constant": true
    },
    {
      "inputs": [
        {
          "internalType": "address",
          "name": "verifierAddress",
          "type": "address"
        }
      ],
      "name": "getVerificationCount",
      "outputs": [
        {
          "internalType": "uint256",
          "name": "",
          "type": "uint256"
        }
      ],
      "stateMutability": "view",
      "type": "function",
      "constant": true
    },
    {
      "inputs": [
        {
          "internalType": "uint256",
          "name": "tokenId",
          "type": "uint256"
        }
      ],
      "name": "verifyCredentialDetailed",
      "outputs": [
        {
          "internalType": "bool",
          "name": "exists",
          "type": "bool"
        },
        {
          "internalType": "bool",
          "name": "isActive",
          "type": "bool"
        },
        {
          "internalType": "bool",
          "name": "issuerAccredited",
          "type": "bool"
        },
        {
          "internalType": "bool",
          "name": "isExpired",
          "type": "bool"
        },
        {
          "internalType": "bool",
          "name": "isRevoked",
          "type": "bool"
        }
      ],
      "stateMutability": "view",
      "type": "function",
      "constant": true
    },
    {
      "inputs": [
        {
          "internalType": "bytes32",
          "name": "proofHash",
          "type": "bytes32"
        },
        {
          "components": [
            {
              "internalType": "string",
              "name": "claimType",
              "type": "string"
            },
            {
              "internalType": "uint256",
              "name": "claimValue",
              "type": "uint256"
            },
            {
              "internalType": "bytes32",
              "name": "proofHash",
              "type": "bytes32"
            }
          ],
          "internalType": "struct CredentialTypes.ZKPClaim",
          "name": "claim",
          "type": "tuple"
        }
      ],
      "name": "verifyZKProof",
      "outputs": [
        {
          "internalType": "bool",
          "name": "",
          "type": "bool"
        }
      ],
      "stateMutability": "pure",
      "type": "function",
      "constant": true
    },
    {
      "inputs": [
        {
          "internalType": "bytes32",
          "name": "proofHash",
          "type": "bytes32"
        },
        {
          "components": [
            {
              "internalType": "string",
              "name": "claimType",
              "type": "string"
            },
            {
              "internalType": "uint256",
              "name": "claimValue",
              "type": "uint256"
            },
            {
              "internalType": "bytes32",
              "name": "proofHash",
              "type": "bytes32"
            }
          ],
          "internalType": "struct CredentialTypes.ZKPClaim",
          "name": "claim",
          "type": "tuple"
        }
      ],
      "name": "verifyZKProofWithEvent",
      "outputs": [
        {
          "internalType": "bool",
          "name": "",
          "type": "bool"
        }
      ],
      "stateMutability": "nonpayable",
      "type": "function"
    },
    {
      "inputs": [
        {
          "internalType": "uint256",
          "name": "tokenId",
          "type": "uint256"
        },
        {
          "internalType": "enum CredentialTypes.CredentialType",
          "name": "expectedType",
          "type": "uint8"
        }
      ],
      "name": "verifyCredentialType",
      "outputs": [
        {
          "internalType": "bool",
          "name": "",
          "type": "bool"
        }
      ],
      "stateMutability": "view",
      "type": "function",
      "constant": true
    },
    {
      "inputs": [
        {
          "internalType": "uint256",
          "name": "tokenId",
          "type": "uint256"
        }
      ],
      "name": "getVerificationStatus",
      "outputs": [
        {
          "internalType": "bool",
          "name": "isValid",
          "type": "bool"
        },
        {
          "internalType": "string",
          "name": "reason",
          "type": "string"
        }
      ],
      "stateMutability": "view",
      "type": "function",
      "constant": true
    }
  ],
  "bytecode": "0x60806040523480156200001157600080fd5b5060405162001e3b38038062001e3b83398101604081905262000034916200015c565b6001600160a01b038216620000a05760405162461bcd60e51b815260206004820152602760248201527f43726564656e7469616c56657269666965723a20496e76616c6964204e4654206044820152666164647265737360c81b60648201526084015b60405180910390fd5b6001600160a01b0381166200010d5760405162461bcd60e51b815260206004820152602c60248201527f43726564656e7469616c56657269666965723a20496e76616c6964207265676960448201526b73747279206164647265737360a01b606482015260840162000097565b600080546001600160a01b039384166001600160a01b0319918216179091556001805492909316911617905562000194565b80516001600160a01b03811681146200015757600080fd5b919050565b600080604083850312156200017057600080fd5b6200017b836200013f565b91506200018b602084016200013f565b90509250929050565b611c9780620001a46000396000f3fe608060405234801561001057600080fd5b50600436106101005760003560e01c8063934fcd1b11610097578063eb6026fa11610066578063eb6026fa1461023e578063eef8603314610283578063f017c5a614610296578063f2a91b1c146102cd57600080fd5b8063934fcd1b146101f2578063a9d3bb1014610205578063b04035c014610218578063db854ac21461022b57600080fd5b806360c000d4116100d357806360c000d4146101815780636da48b9a14610194578063841ea07d146101a75780638bfc1851146101c757600080fd5b80630526f79f1461010557806309cc449d1461012d5780630f517e6f146101405780631d9425ca14610160575b600080fd5b610118610113366004611649565b6102e0565b60405190151581526020015b60405180910390f35b61011861013b36600461172e565b61036e565b61015361014e36600461175e565b610476565b60405161012491906117fd565b61017361016e36600461175e565b6104f2565b60405161012492919061182f565b61011861018f36600461186b565b610858565b6101186101a236600461175e565b6108c7565b6101ba6101b536600461188f565b610b29565b6040516101249190611935565b6001546101da906001600160a01b031681565b6040516001600160a01b039091168152602001610124565b6000546101da906001600160a01b031681565b610118610213366004611990565b610be8565b6101186102263660046119b5565b610d07565b6101ba61023936600461188f565b610e03565b61025161024c36600461175e565b610f51565b60408051951515865293151560208601529115159284019290925290151560608301521515608082015260a001610124565b610118610291366004611649565b6111d5565b6102bf6102a436600461186b565b6001600160a01b031660009081526002602052604090205490565b604051908152602001610124565b6101536102db36600461175e565b611213565b6000826103085760405162461bcd60e51b81526004016102ff906119d7565b60405180910390fd5b8151516103275760405162461bcd60e51b81526004016102ff90611a1d565b6040805160018152426020820152339185917ff5e9552ded0dcdf62c5ac26f257a0565d66bd00a111e87e9a8d2e55f4ade6f83910160405180910390a35060015b92915050565b6000805460405163cb88116560e01b8152600481018590526001600160a01b039091169063cb88116590602401602060405180830381865afa1580156103b8573d6000803e3d6000fd5b505050506040513d601f19601f820116820180604052508101906103dc9190611a78565b6103e857506000610368565b60008054604051638dd18d2d60e01b8152600481018690526001600160a01b0390911690638dd18d2d90602401600060405180830381865afa158015610432573d6000803e3d6000fd5b505050506040513d6000823e601f3d908101601f1916820160405261045a9190810190611af6565b604001516001600160a01b039081169084161491505092915050565b61047e611553565b600061048983611220565b3360009081526002602052604081208054929350906104a783611be9565b90915550508051604080519115158252426020830152339185917fefbef9495dd86a33855860f320c262b3fb0161d3e709c8a849b7dcf97d5f4c09910160405180910390a392915050565b6000805460405163cb88116560e01b8152600481018490526060916001600160a01b03169063cb88116590602401602060405180830381865afa15801561053d573d6000803e3d6000fd5b505050506040513d601f19601f820116820180604052508101906105619190611a78565b6105a357505060408051808201909152601981527f43726564656e7469616c20646f6573206e6f74206578697374000000000000006020820152600092909150565b600054604051632e662b0f60e11b8152600481018590526001600160a01b0390911690635ccc561e90602401602060405180830381865afa1580156105ec573d6000803e3d6000fd5b505050506040513d601f19601f820116820180604052508101906106109190611a78565b1561065357505060408051808201909152601b81527f43726564656e7469616c20686173206265656e207265766f6b656400000000006020820152600092909150565b60005460405163d9548e5360e01b8152600481018590526001600160a01b039091169063d9548e5390602401602060405180830381865afa15801561069c573d6000803e3d6000fd5b505050506040513d601f19601f820116820180604052508101906106c09190611a78565b156106fc57505060408051808201909152601681527510dc9959195b9d1a585b081a185cc8195e1c1a5c995960521b6020820152600092909150565b600080546040516349044e2360e11b8152600481018690526001600160a01b03909116906392089c4690602401602060405180830381865afa158015610746573d6000803e3d6000fd5b505050506040513d601f19601f8201168201806040525081019061076a9190611c02565b600154604051632d598d7b60e01b81526001600160a01b038084166004830152929350911690632d598d7b90602401602060405180830381865afa1580156107b6573d6000803e3d6000fd5b505050506040513d601f19601f820116820180604052508101906107da9190611a78565b6108205760006040518060400160405280601881526020017f497373756572206973206e6f74206163637265646974656400000000000000008152509250925050915091565b60016040518060400160405280601381526020017210dc9959195b9d1a585b081a5cc81d985b1a59606a1b8152509250925050915091565b600154604051632d598d7b60e01b81526001600160a01b0383811660048301526000921690632d598d7b90602401602060405180830381865afa1580156108a3573d6000803e3d6000fd5b505050506040513d601f19601f820116820180604052508101906103689190611a78565b6000805460405163cb88116560e01b8152600481018490526001600160a01b039091169063cb88116590602401602060405180830381865afa158015610911573d6000803e3d6000fd5b505050506040513d601f19601f820116820180604052508101906109359190611a78565b61094157506000919050565b600054604051632e662b0f60e11b8152600481018490526001600160a01b0390911690635ccc561e90602401602060405180830381865afa15801561098a573d6000803e3d6000fd5b505050506040513d601f19601f820116820180604052508101906109ae9190611a78565b156109bb57506000919050565b60005460405163d9548e5360e01b8152600481018490526001600160a01b039091169063d9548e5390602401602060405180830381865afa158015610a04573d6000803e3d6000fd5b505050506040513d601f19601f82011682018060405250810190610a289190611a78565b15610a3557506000919050565b600080546040516349044e2360e11b8152600481018590526001600160a01b03909116906392089c4690602401602060405180830381865afa158015610a7f573d6000803e3d6000fd5b505050506040513d601f19601f82011682018060405250810190610aa39190611c02565b600154604051632d598d7b60e01b81526001600160a01b038084166004830152929350911690632d598d7b90602401602060405180830381865afa158015610aef573d6000803e3d6000fd5b505050506040513d601f19601f82011682018060405250810190610b139190611a78565b610b205750600092915050565b50600192915050565b60606000825167ffffffffffffffff811115610b4757610b4761158d565b604051908082528060200260200182016040528015610b8057816020015b610b6d611553565b815260200190600190039081610b655790505b50905060005b8351811015610be157610bb1848281518110610ba457610ba4611c1f565b6020026020010151611220565b828281518110610bc357610bc3611c1f565b60200260200101819052508080610bd990611be9565b915050610b86565b5092915050565b6000805460405163cb88116560e01b8152600481018590526001600160a01b039091169063cb88116590602401602060405180830381865afa158015610c32573d6000803e3d6000fd5b505050506040513d601f19601f82011682018060405250810190610c569190611a78565b610c6257506000610368565b60008054604051638dd18d2d60e01b8152600481018690526001600160a01b0390911690638dd18d2d90602401600060405180830381865afa158015610cac573d6000803e3d6000fd5b505050506040513d6000823e601f3d908101601f19168201604052610cd49190810190611af6565b9050826007811115610ce857610ce8611777565b81606001516007811115610cfe57610cfe611777565b14949350505050565b6000805460405163cb88116560e01b8152600481018590526001600160a01b039091169063cb88116590602401602060405180830381865afa158015610d51573d6000803e3d6000fd5b505050506040513d601f19601f82011682018060405250810190610d759190611a78565b610d8157506000610368565b60008054604051638dd18d2d60e01b8152600481018690526001600160a01b0390911690638dd18d2d90602401600060405180830381865afa158015610dcb573d6000803e3d6000fd5b505050506040513d6000823e601f3d908101601f19168201604052610df39190810190611af6565b6101000151831491505092915050565b60606000825167ffffffffffffffff811115610e2157610e2161158d565b604051908082528060200260200182016040528015610e5a57816020015b610e47611553565b815260200190600190039081610e3f5790505b5090506000805b8451811015610edf57610e7f858281518110610ba457610ba4611c1f565b838281518110610e9157610e91611c1f565b6020026020010181905250828181518110610eae57610eae611c1f565b60200260200101516000015115610ecd5781610ec981611be9565b9250505b80610ed781611be9565b915050610e61565b5083513360009081526002602052604081208054909190610f01908490611c35565b909155505083516040805191825260208201839052429082015233907f412c3bdb9401e6423c9c0b1d34d8a54ec77396619403f329c590e36f039709419060600160405180910390a25092915050565b6000805460405163cb88116560e01b81526004810184905282918291829182916001600160a01b039091169063cb88116590602401602060405180830381865afa158015610fa3573d6000803e3d6000fd5b505050506040513d601f19601f82011682018060405250810190610fc79190611a78565b600054604051632e662b0f60e11b8152600481018990529196506001600160a01b031690635ccc561e90602401602060405180830381865afa158015611011573d6000803e3d6000fd5b505050506040513d601f19601f820116820180604052508101906110359190611a78565b9050846110435760006110b0565b60005460405163d9548e5360e01b8152600481018890526001600160a01b039091169063d9548e5390602401602060405180830381865afa15801561108c573d6000803e3d6000fd5b505050506040513d601f19601f820116820180604052508101906110b09190611a78565b91506000856110c057600061112d565b6000546040516349044e2360e11b8152600481018990526001600160a01b03909116906392089c4690602401602060405180830381865afa158015611109573d6000803e3d6000fd5b505050506040513d601f19601f8201168201806040525081019061112d9190611c02565b90506001600160a01b0381166111445760006111b2565b600154604051632d598d7b60e01b81526001600160a01b03838116600483015290911690632d598d7b90602401602060405180830381865afa15801561118e573d6000803e3d6000fd5b505050506040513d601f19601f820116820180604052508101906111b29190611a78565b93508580156111bf575081155b80156111c9575082155b94505091939590929450565b6000826111f45760405162461bcd60e51b81526004016102ff906119d7565b815151610b205760405162461bcd60e51b81526004016102ff90611a1d565b61121b611553565b610368825b611228611553565b6000805460405163cb88116560e01b8152600481018590526001600160a01b039091169063cb88116590602401602060405180830381865afa158015611272573d6000803e3d6000fd5b505050506040513d601f19601f820116820180604052508101906112969190611a78565b905060008115801561131c575060008054906101000a90046001600160a01b03166001600160a01b031663f1470a356040518163ffffffff1660e01b8152600401602060405180830381865afa1580156112f4573d6000803e3d6000fd5b505050506040513d601f19601f820116820180604052508101906113189190611c48565b8411155b905060008261132c576000611399565b60005460405163d9548e5360e01b8152600481018790526001600160a01b039091169063d9548e5390602401602060405180830381865afa158015611375573d6000803e3d6000fd5b505050506040513d601f19601f820116820180604052508101906113999190611a78565b90506000836113a9576000611416565b6000546040516349044e2360e11b8152600481018890526001600160a01b03909116906392089c4690602401602060405180830381865afa1580156113f2573d6000803e3d6000fd5b505050506040513d601f19601f820116820180604052508101906114169190611c02565b905060006001600160a01b03821661142f57600061149d565b600154604051632d598d7b60e01b81526001600160a01b03848116600483015290911690632d598d7b90602401602060405180830381865afa158015611479573d6000803e3d6000fd5b505050506040513d601f19601f8201168201806040525081019061149d9190611a78565b9050600084156114af575060026114cf565b83156114bd575060016114cf565b85156114cb575060006114cf565b5060025b60008680156114dc575085155b80156114e6575084155b905060008180156114f45750835b90506040518060e0016040528082151581526020018915158152602001831515815260200187151581526020018815158152602001851515815260200184600381111561154357611543611777565b90529a9950505050505050505050565b6040805160e081018252600080825260208201819052918101829052606081018290526080810182905260a081018290529060c082015290565b634e487b7160e01b600052604160045260246000fd5b6040516060810167ffffffffffffffff811182821017156115c6576115c661158d565b60405290565b604051610120810167ffffffffffffffff811182821017156115c6576115c661158d565b604051601f8201601f1916810167ffffffffffffffff811182821017156116195761161961158d565b604052919050565b600067ffffffffffffffff82111561163b5761163b61158d565b50601f01601f191660200190565b6000806040838503121561165c57600080fd5b8235915060208084013567ffffffffffffffff8082111561167c57600080fd5b908501906060828803121561169057600080fd5b6116986115a3565b8235828111156116a757600080fd5b83019150601f820188136116ba57600080fd5b81356116cd6116c882611621565b6115f0565b81815289868386010111156116e157600080fd5b818685018783013760008683830101528083525050838301358482015260408301356040820152809450505050509250929050565b6001600160a01b038116811461172b57600080fd5b50565b6000806040838503121561174157600080fd5b82359150602083013561175381611716565b809150509250929050565b60006020828403121561177057600080fd5b5035919050565b634e487b7160e01b600052602160045260246000fd5b80511515825260208101511515602083015260408101511515604083015260608101511515606083015260808101511515608083015260a0810151151560a083015260c0810151600481106117f257634e487b7160e01b600052602160045260246000fd5b8060c0840152505050565b60e08101610368828461178d565b60005b8381101561182657818101518382015260200161180e565b50506000910152565b8215158152604060208201526000825180604084015261185681606085016020870161180b565b601f01601f1916919091016060019392505050565b60006020828403121561187d57600080fd5b813561188881611716565b9392505050565b600060208083850312156118a257600080fd5b823567ffffffffffffffff808211156118ba57600080fd5b818501915085601f8301126118ce57600080fd5b8135818111156118e0576118e061158d565b8060051b91506118f18483016115f0565b818152918301840191848101908884111561190b57600080fd5b938501935b8385101561192957843582529385019390850190611910565b98975050505050505050565b6020808252825182820181905260009190848201906040850190845b818110156119775761196483855161178d565b9284019260e09290920191600101611951565b50909695505050505050565b6008811061172b57600080fd5b600080604083850312156119a357600080fd5b82359150602083013561175381611983565b600080604083850312156119c857600080fd5b50508035926020909101359150565b60208082526026908201527f43726564656e7469616c56657269666965723a20496e76616c69642070726f6f6040820152650cc40d0c2e6d60d31b606082015260800190565b60208082526026908201527f43726564656e7469616c56657269666965723a20496e76616c696420636c61696040820152656d207479706560d01b606082015260800190565b80518015158114611a7357600080fd5b919050565b600060208284031215611a8a57600080fd5b61188882611a63565b8051611a7381611716565b8051611a7381611983565b600082601f830112611aba57600080fd5b8151611ac86116c882611621565b818152846020838601011115611add57600080fd5b611aee82602083016020870161180b565b949350505050565b600060208284031215611b0857600080fd5b815167ffffffffffffffff80821115611b2057600080fd5b908301906101208286031215611b3557600080fd5b611b3d6115cc565b82518152611b4d60208401611a93565b6020820152611b5e60408401611a93565b6040820152611b6f60608401611a9e565b6060820152608083015182811115611b8657600080fd5b611b9287828601611aa9565b60808301525060a083015160a082015260c083015160c0820152611bb860e08401611a63565b60e08201526101009283015192810192909252509392505050565b634e487b7160e01b600052601160045260246000fd5b600060018201611bfb57611bfb611bd3565b5060010190565b600060208284031215611c1457600080fd5b815161188881611716565b634e487b7160e01b600052603260045260246000fd5b8082018082111561036857610368611bd3565b600060208284031215611c5a57600080fd5b505191905056fea264697066735822122073dcec1a0bf4355cf9222d1c8a6f54b61331a8929264af1a23d8d0c9181c1a7264736f6c63430008140033",
  "immutableReferences": {},
  "source": "// SPDX-License-Identifier: MIT\r\npragma solidity ^0.8.0;\r\n\r\nimport \"../interfaces/IVerifier.sol\";\r\nimport \"../interfaces/ICredential.sol\";\r\nimport \"../interfaces/IIssuer.sol\";\r\nimport \"../libraries/CredentialTypes.sol\";\r\nimport \"../libraries/DateUtils.sol\";\r\n\r\n/**\r\n * @title CredentialVerifier\r\n * @dev Provides comprehensive verification functions for credentials\r\n * Checks credential validity, issuer accreditation, expiration, and revocation\r\n */\r\ncontract CredentialVerifier is IVerifier {\r\n    using DateUtils for uint256;\r\n\r\n    // Contract references\r\n    ICredential public credentialNFT;\r\n    IIssuer public issuerRegistry;\r\n\r\n    // Verification tracking\r\n    mapping(address => uint256) private verificationCounts;\r\n\r\n    constructor(address _credentialNFTAddress, address _issuerRegistryAddress) {\r\n        require(\r\n            _credentialNFTAddress != address(0),\r\n            \"CredentialVerifier: Invalid NFT address\"\r\n        );\r\n        require(\r\n            _issuerRegistryAddress != address(0),\r\n            \"CredentialVerifier: Invalid registry address\"\r\n        );\r\n\r\n        credentialNFT = ICredential(_credentialNFTAddress);\r\n        issuerRegistry = IIssuer(_issuerRegistryAddress);\r\n    }\r\n\r\n    /**\r\n     * @dev Verify a credential's authenticity and validity (internal logic)\r\n     */\r\n    function _verifyCredentialInternal(\r\n        uint256 tokenId\r\n    ) internal view returns (CredentialTypes.VerificationResult memory) {\r\n        bool exists = credentialNFT.credentialExists(tokenId);\r\n        bool isRevoked = !exists &&\r\n            tokenId <= credentialNFT.getTotalCredentials();\r\n        bool isExpired = exists ? credentialNFT.isExpired(tokenId) : false;\r\n\r\n        address issuer = exists ? credentialNFT.getIssuer(tokenId) : address(0);\r\n        bool issuerAccredited = issuer != address(0)\r\n            ? issuerRegistry.isAccredited(issuer)\r\n            : false;\r\n\r\n        CredentialTypes.CredentialStatus status;\r\n        if (isRevoked) {\r\n            status = CredentialTypes.CredentialStatus.REVOKED;\r\n        } else if (isExpired) {\r\n            status = CredentialTypes.CredentialStatus.EXPIRED;\r\n        } else if (exists) {\r\n            status = CredentialTypes.CredentialStatus.ACTIVE;\r\n        } else {\r\n            status = CredentialTypes.CredentialStatus.REVOKED;\r\n        }\r\n\r\n        bool isActive = exists && !isRevoked && !isExpired;\r\n        bool isValid = isActive && issuerAccredited;\r\n\r\n        return\r\n            CredentialTypes.VerificationResult({\r\n                isValid: isValid,\r\n                exists: exists,\r\n                isActive: isActive,\r\n                isExpired: isExpired,\r\n                isRevoked: isRevoked,\r\n                issuerAccredited: issuerAccredited,\r\n                status: status\r\n            });\r\n    }\r\n\r\n    /**\r\n     * @dev Verify a credential's authenticity and validity (view-only, no events)\r\n     */\r\n    function verifyCredential(\r\n        uint256 tokenId\r\n    )\r\n        external\r\n        view\r\n        override\r\n        returns (CredentialTypes.VerificationResult memory)\r\n    {\r\n        return _verifyCredentialInternal(tokenId);\r\n    }\r\n\r\n    /**\r\n     * @dev Verify a credential and emit event (non-view version for tracking)\r\n     */\r\n    function verifyCredentialWithEvent(\r\n        uint256 tokenId\r\n    ) external returns (CredentialTypes.VerificationResult memory) {\r\n        CredentialTypes.VerificationResult\r\n            memory result = _verifyCredentialInternal(tokenId);\r\n\r\n        verificationCounts[msg.sender]++;\r\n        emit CredentialVerified(\r\n            tokenId,\r\n            msg.sender,\r\n            result.isValid,\r\n            block.timestamp\r\n        );\r\n\r\n        return result;\r\n    }\r\n\r\n    /**\r\n     * @dev Verify multiple credentials in batch\r\n     */\r\n    function verifyCredentialBatch(\r\n        uint256[] memory tokenIds\r\n    )\r\n        external\r\n        view\r\n        override\r\n        returns (CredentialTypes.VerificationResult[] memory)\r\n    {\r\n        CredentialTypes.VerificationResult[]\r\n            memory results = new CredentialTypes.VerificationResult[](\r\n                tokenIds.length\r\n            );\r\n\r\n        for (uint256 i = 0; i < tokenIds.length; i++) {\r\n            results[i] = _verifyCredentialInternal(tokenIds[i]);\r\n        }\r\n\r\n        return results;\r\n    }\r\n\r\n    /**\r\n     * @dev Verify multiple credentials in batch with event emission\r\n     */\r\n    function verifyCredentialBatchWithEvent(\r\n        uint256[] memory tokenIds\r\n    ) external returns (CredentialTypes.VerificationResult[] memory) {\r\n        CredentialTypes.VerificationResult[]\r\n            memory results = new CredentialTypes.VerificationResult[](\r\n                tokenIds.length\r\n            );\r\n\r\n        uint256 validCount = 0;\r\n        for (uint256 i = 0; i < tokenIds.length; i++) {\r\n            results[i] = _verifyCredentialInternal(tokenIds[i]);\r\n            if (results[i].isValid) {\r\n                validCount++;\r\n            }\r\n        }\r\n\r\n        verificationCounts[msg.sender] += tokenIds.length;\r\n        emit BatchVerificationCompleted(\r\n            msg.sender,\r\n            tokenIds.length,\r\n            validCount,\r\n            block.timestamp\r\n        );\r\n\r\n        return results;\r\n    }\r\n\r\n    /**\r\n     * @dev Quick check if credential is valid\r\n     */\r\n    function isCredentialValid(\r\n        uint256 tokenId\r\n    ) external view override returns (bool) {\r\n        if (!credentialNFT.credentialExists(tokenId)) {\r\n            return false;\r\n        }\r\n\r\n        if (credentialNFT.isRevoked(tokenId)) {\r\n            return false;\r\n        }\r\n\r\n        if (credentialNFT.isExpired(tokenId)) {\r\n            return false;\r\n        }\r\n\r\n        address issuer = credentialNFT.getIssuer(tokenId);\r\n        if (!issuerRegistry.isAccredited(issuer)) {\r\n            return false;\r\n        }\r\n\r\n        return true;\r\n    }\r\n\r\n    /**\r\n     * @dev Verify credential ownership\r\n     */\r\n    function verifyOwnership(\r\n        uint256 tokenId,\r\n        address claimedHolder\r\n    ) external view override returns (bool) {\r\n        if (!credentialNFT.credentialExists(tokenId)) {\r\n            return false;\r\n        }\r\n\r\n        CredentialTypes.Credential memory credential = credentialNFT\r\n            .getCredential(tokenId);\r\n        return credential.holderAddress == claimedHolder;\r\n    }\r\n\r\n    /**\r\n     * @dev Verify that issuer is accredited\r\n     */\r\n    function verifyIssuer(\r\n        address issuerAddress\r\n    ) external view override returns (bool) {\r\n        return issuerRegistry.isAccredited(issuerAddress);\r\n    }\r\n\r\n    /**\r\n     * @dev Verify credential against a specific hash\r\n     */\r\n    function verifyCredentialHash(\r\n        uint256 tokenId,\r\n        bytes32 claimedHash\r\n    ) external view override returns (bool) {\r\n        if (!credentialNFT.credentialExists(tokenId)) {\r\n            return false;\r\n        }\r\n\r\n        CredentialTypes.Credential memory credential = credentialNFT\r\n            .getCredential(tokenId);\r\n        return credential.credentialHash == claimedHash;\r\n    }\r\n\r\n    /**\r\n     * @dev Get verification count for a verifier\r\n     */\r\n    function getVerificationCount(\r\n        address verifierAddress\r\n    ) external view override returns (uint256) {\r\n        return verificationCounts[verifierAddress];\r\n    }\r\n\r\n    /**\r\n     * @dev Verify credential with detailed checks\r\n     */\r\n    function verifyCredentialDetailed(\r\n        uint256 tokenId\r\n    )\r\n        external\r\n        view\r\n        override\r\n        returns (\r\n            bool exists,\r\n            bool isActive,\r\n            bool issuerAccredited,\r\n            bool isExpired,\r\n            bool isRevoked\r\n        )\r\n    {\r\n        exists = credentialNFT.credentialExists(tokenId);\r\n        isRevoked = credentialNFT.isRevoked(tokenId);\r\n        isExpired = exists ? credentialNFT.isExpired(tokenId) : false;\r\n\r\n        address issuer = exists ? credentialNFT.getIssuer(tokenId) : address(0);\r\n        issuerAccredited = issuer != address(0)\r\n            ? issuerRegistry.isAccredited(issuer)\r\n            : false;\r\n\r\n        isActive = exists && !isRevoked && !isExpired;\r\n\r\n        return (exists, isActive, issuerAccredited, isExpired, isRevoked);\r\n    }\r\n\r\n    /**\r\n     * @dev Verify zero-knowledge proof claim\r\n     */\r\n    function verifyZKProof(\r\n        bytes32 proofHash,\r\n        CredentialTypes.ZKPClaim memory claim\r\n    ) external pure override returns (bool) {\r\n        // This will be implemented when ZKP contracts are added\r\n        // For now, return basic validation\r\n        require(\r\n            proofHash != bytes32(0),\r\n            \"CredentialVerifier: Invalid proof hash\"\r\n        );\r\n        require(\r\n            bytes(claim.claimType).length > 0,\r\n            \"CredentialVerifier: Invalid claim type\"\r\n        );\r\n\r\n        // No event emission in view function\r\n        return true;\r\n    }\r\n\r\n    /**\r\n     * @dev Verify zero-knowledge proof claim with event\r\n     */\r\n    function verifyZKProofWithEvent(\r\n        bytes32 proofHash,\r\n        CredentialTypes.ZKPClaim memory claim\r\n    ) external returns (bool) {\r\n        require(\r\n            proofHash != bytes32(0),\r\n            \"CredentialVerifier: Invalid proof hash\"\r\n        );\r\n        require(\r\n            bytes(claim.claimType).length > 0,\r\n            \"CredentialVerifier: Invalid claim type\"\r\n        );\r\n\r\n        emit ZKPVerified(proofHash, msg.sender, true, block.timestamp);\r\n\r\n        return true;\r\n    }\r\n\r\n    /**\r\n     * @dev Check if credential type matches expected type\r\n     */\r\n    function verifyCredentialType(\r\n        uint256 tokenId,\r\n        CredentialTypes.CredentialType expectedType\r\n    ) external view override returns (bool) {\r\n        if (!credentialNFT.credentialExists(tokenId)) {\r\n            return false;\r\n        }\r\n\r\n        CredentialTypes.Credential memory credential = credentialNFT\r\n            .getCredential(tokenId);\r\n        return credential.credentialType == expectedType;\r\n    }\r\n\r\n    /**\r\n     * @dev Get verification result as boolean and reason\r\n     */\r\n    function getVerificationStatus(\r\n        uint256 tokenId\r\n    ) external view override returns (bool isValid, string memory reason) {\r\n        if (!credentialNFT.credentialExists(tokenId)) {\r\n            return (false, \"Credential does not exist\");\r\n        }\r\n\r\n        if (credentialNFT.isRevoked(tokenId)) {\r\n            return (false, \"Credential has been revoked\");\r\n        }\r\n\r\n        if (credentialNFT.isExpired(tokenId)) {\r\n            return (false, \"Credential has expired\");\r\n        }\r\n\r\n        address issuer = credentialNFT.getIssuer(tokenId);\r\n        if (!issuerRegistry.isAccredited(issuer)) {\r\n            return (false, \"Issuer is not accredited\");\r\n        }\r\n\r\n        return (true, \"Credential is valid\");\r\n    }\r\n}\r\n",
  "sourcePath": "E:\\Projects\\NIT Hacks\\NITHACKS_BLOCKCHAIN\\blockchain\\contracts\\core\\CredentialVerifier.sol",
  "compiler": {
    "name": "solc",
    "version": "0.8.20+commit.a1b79de6.Emscripten.clang"
  },
  "schemaVersion": "3.4.16",
  "updatedAt": "2025-11-22T14:27:20.876Z",
  "networkType": "ethereum",
  "devdoc": {
    "details": "Provides comprehensive verification functions for credentials Checks credential validity, issuer accreditation, expiration, and revocation",
    "kind": "dev",
    "methods": {
      "getVerificationCount(address)": {
        "details": "Get verification count for a verifier"
      },
      "getVerificationStatus(uint256)": {
        "details": "Get verification result as boolean and reason"
      },
      "isCredentialValid(uint256)": {
        "details": "Quick check if credential is valid"
      },
      "verifyCredential(uint256)": {
        "details": "Verify a credential's authenticity and validity (view-only, no events)"
      },
      "verifyCredentialBatch(uint256[])": {
        "details": "Verify multiple credentials in batch"
      },
      "verifyCredentialBatchWithEvent(uint256[])": {
        "details": "Verify multiple credentials in batch with event emission"
      },
      "verifyCredentialDetailed(uint256)": {
        "details": "Verify credential with detailed checks"
      },
      "verifyCredentialHash(uint256,bytes32)": {
        "details": "Verify credential against a specific hash"
      },
      "verifyCredentialType(uint256,uint8)": {
        "details": "Check if credential type matches expected type"
      },
      "verifyCredentialWithEvent(uint256)": {
        "details": "Verify a credential and emit event (non-view version for tracking)"
      },
      "verifyIssuer(address)": {
        "details": "Verify that issuer is accredited"
      },
      "verifyOwnership(uint256,address)": {
        "details": "Verify credential ownership"
      },
      "verifyZKProof(bytes32,(string,uint256,bytes32))": {
        "details": "Verify zero-knowledge proof claim"
      },
      "verifyZKProofWithEvent(bytes32,(string,uint256,bytes32))": {
        "details": "Verify zero-knowledge proof claim with event"
      }
    },
    "title": "CredentialVerifier",
    "version": 1
  },
  "userdoc": {
    "kind": "user",
    "methods": {},
    "version": 1
  }
}