{
  "contractName": "CredentialNFT",
  "abi": [
    {
      "inputs": [
        {
          "internalType": "address",
          "name": "_issuerRegistryAddress",
          "type": "address"
        }
      ],
      "stateMutability": "nonpayable",
      "type": "constructor"
    },
    {
      "anonymous": false,
      "inputs": [
        {
          "indexed": true,
          "internalType": "address",
          "name": "owner",
          "type": "address"
        },
        {
          "indexed": true,
          "internalType": "address",
          "name": "approved",
          "type": "address"
        },
        {
          "indexed": true,
          "internalType": "uint256",
          "name": "tokenId",
          "type": "uint256"
        }
      ],
      "name": "Approval",
      "type": "event"
    },
    {
      "anonymous": false,
      "inputs": [
        {
          "indexed": true,
          "internalType": "address",
          "name": "owner",
          "type": "address"
        },
        {
          "indexed": true,
          "internalType": "address",
          "name": "operator",
          "type": "address"
        },
        {
          "indexed": false,
          "internalType": "bool",
          "name": "approved",
          "type": "bool"
        }
      ],
      "name": "ApprovalForAll",
      "type": "event"
    },
    {
      "anonymous": false,
      "inputs": [
        {
          "indexed": false,
          "internalType": "uint256",
          "name": "_fromTokenId",
          "type": "uint256"
        },
        {
          "indexed": false,
          "internalType": "uint256",
          "name": "_toTokenId",
          "type": "uint256"
        }
      ],
      "name": "BatchMetadataUpdate",
      "type": "event"
    },
    {
      "anonymous": false,
      "inputs": [
        {
          "indexed": true,
          "internalType": "uint256",
          "name": "tokenId",
          "type": "uint256"
        },
        {
          "indexed": true,
          "internalType": "address",
          "name": "issuer",
          "type": "address"
        },
        {
          "indexed": true,
          "internalType": "address",
          "name": "holder",
          "type": "address"
        },
        {
          "indexed": false,
          "internalType": "enum CredentialTypes.CredentialType",
          "name": "credentialType",
          "type": "uint8"
        },
        {
          "indexed": false,
          "internalType": "string",
          "name": "metadataURI",
          "type": "string"
        },
        {
          "indexed": false,
          "internalType": "uint256",
          "name": "expirationDate",
          "type": "uint256"
        }
      ],
      "name": "CredentialIssued",
      "type": "event"
    },
    {
      "anonymous": false,
      "inputs": [
        {
          "indexed": true,
          "internalType": "uint256",
          "name": "tokenId",
          "type": "uint256"
        },
        {
          "indexed": false,
          "internalType": "string",
          "name": "oldMetadataURI",
          "type": "string"
        },
        {
          "indexed": false,
          "internalType": "string",
          "name": "newMetadataURI",
          "type": "string"
        }
      ],
      "name": "CredentialMetadataUpdated",
      "type": "event"
    },
    {
      "anonymous": false,
      "inputs": [
        {
          "indexed": true,
          "internalType": "uint256",
          "name": "tokenId",
          "type": "uint256"
        },
        {
          "indexed": false,
          "internalType": "uint256",
          "name": "oldExpirationDate",
          "type": "uint256"
        },
        {
          "indexed": false,
          "internalType": "uint256",
          "name": "newExpirationDate",
          "type": "uint256"
        }
      ],
      "name": "CredentialRenewed",
      "type": "event"
    },
    {
      "anonymous": false,
      "inputs": [
        {
          "indexed": true,
          "internalType": "uint256",
          "name": "tokenId",
          "type": "uint256"
        },
        {
          "indexed": true,
          "internalType": "address",
          "name": "issuer",
          "type": "address"
        },
        {
          "indexed": true,
          "internalType": "address",
          "name": "holder",
          "type": "address"
        },
        {
          "indexed": false,
          "internalType": "uint256",
          "name": "revocationDate",
          "type": "uint256"
        },
        {
          "indexed": false,
          "internalType": "string",
          "name": "reason",
          "type": "string"
        }
      ],
      "name": "CredentialRevoked",
      "type": "event"
    },
    {
      "anonymous": false,
      "inputs": [
        {
          "indexed": true,
          "internalType": "uint256",
          "name": "tokenId",
          "type": "uint256"
        },
        {
          "indexed": true,
          "internalType": "address",
          "name": "from",
          "type": "address"
        },
        {
          "indexed": true,
          "internalType": "address",
          "name": "to",
          "type": "address"
        },
        {
          "indexed": false,
          "internalType": "uint256",
          "name": "transferDate",
          "type": "uint256"
        }
      ],
      "name": "CredentialTransferred",
      "type": "event"
    },
    {
      "anonymous": false,
      "inputs": [
        {
          "indexed": false,
          "internalType": "uint256",
          "name": "_tokenId",
          "type": "uint256"
        }
      ],
      "name": "MetadataUpdate",
      "type": "event"
    },
    {
      "anonymous": false,
      "inputs": [
        {
          "indexed": false,
          "internalType": "address",
          "name": "account",
          "type": "address"
        }
      ],
      "name": "Paused",
      "type": "event"
    },
    {
      "anonymous": false,
      "inputs": [
        {
          "indexed": true,
          "internalType": "address",
          "name": "from",
          "type": "address"
        },
        {
          "indexed": true,
          "internalType": "address",
          "name": "to",
          "type": "address"
        },
        {
          "indexed": true,
          "internalType": "uint256",
          "name": "tokenId",
          "type": "uint256"
        }
      ],
      "name": "Transfer",
      "type": "event"
    },
    {
      "anonymous": false,
      "inputs": [
        {
          "indexed": false,
          "internalType": "address",
          "name": "account",
          "type": "address"
        }
      ],
      "name": "Unpaused",
      "type": "event"
    },
    {
      "inputs": [],
      "name": "admin",
      "outputs": [
        {
          "internalType": "address",
          "name": "",
          "type": "address"
        }
      ],
      "stateMutability": "view",
      "type": "function",
      "constant": true
    },
    {
      "inputs": [
        {
          "internalType": "address",
          "name": "to",
          "type": "address"
        },
        {
          "internalType": "uint256",
          "name": "tokenId",
          "type": "uint256"
        }
      ],
      "name": "approve",
      "outputs": [],
      "stateMutability": "nonpayable",
      "type": "function"
    },
    {
      "inputs": [
        {
          "internalType": "address",
          "name": "owner",
          "type": "address"
        }
      ],
      "name": "balanceOf",
      "outputs": [
        {
          "internalType": "uint256",
          "name": "",
          "type": "uint256"
        }
      ],
      "stateMutability": "view",
      "type": "function",
      "constant": true
    },
    {
      "inputs": [
        {
          "internalType": "uint256",
          "name": "tokenId",
          "type": "uint256"
        }
      ],
      "name": "getApproved",
      "outputs": [
        {
          "internalType": "address",
          "name": "",
          "type": "address"
        }
      ],
      "stateMutability": "view",
      "type": "function",
      "constant": true
    },
    {
      "inputs": [
        {
          "internalType": "address",
          "name": "owner",
          "type": "address"
        },
        {
          "internalType": "address",
          "name": "operator",
          "type": "address"
        }
      ],
      "name": "isApprovedForAll",
      "outputs": [
        {
          "internalType": "bool",
          "name": "",
          "type": "bool"
        }
      ],
      "stateMutability": "view",
      "type": "function",
      "constant": true
    },
    {
      "inputs": [],
      "name": "issuerRegistry",
      "outputs": [
        {
          "internalType": "contract IIssuer",
          "name": "",
          "type": "address"
        }
      ],
      "stateMutability": "view",
      "type": "function",
      "constant": true
    },
    {
      "inputs": [],
      "name": "name",
      "outputs": [
        {
          "internalType": "string",
          "name": "",
          "type": "string"
        }
      ],
      "stateMutability": "view",
      "type": "function",
      "constant": true
    },
    {
      "inputs": [
        {
          "internalType": "uint256",
          "name": "tokenId",
          "type": "uint256"
        }
      ],
      "name": "ownerOf",
      "outputs": [
        {
          "internalType": "address",
          "name": "",
          "type": "address"
        }
      ],
      "stateMutability": "view",
      "type": "function",
      "constant": true
    },
    {
      "inputs": [],
      "name": "paused",
      "outputs": [
        {
          "internalType": "bool",
          "name": "",
          "type": "bool"
        }
      ],
      "stateMutability": "view",
      "type": "function",
      "constant": true
    },
    {
      "inputs": [
        {
          "internalType": "address",
          "name": "from",
          "type": "address"
        },
        {
          "internalType": "address",
          "name": "to",
          "type": "address"
        },
        {
          "internalType": "uint256",
          "name": "tokenId",
          "type": "uint256"
        }
      ],
      "name": "safeTransferFrom",
      "outputs": [],
      "stateMutability": "nonpayable",
      "type": "function"
    },
    {
      "inputs": [
        {
          "internalType": "address",
          "name": "from",
          "type": "address"
        },
        {
          "internalType": "address",
          "name": "to",
          "type": "address"
        },
        {
          "internalType": "uint256",
          "name": "tokenId",
          "type": "uint256"
        },
        {
          "internalType": "bytes",
          "name": "data",
          "type": "bytes"
        }
      ],
      "name": "safeTransferFrom",
      "outputs": [],
      "stateMutability": "nonpayable",
      "type": "function"
    },
    {
      "inputs": [
        {
          "internalType": "address",
          "name": "operator",
          "type": "address"
        },
        {
          "internalType": "bool",
          "name": "approved",
          "type": "bool"
        }
      ],
      "name": "setApprovalForAll",
      "outputs": [],
      "stateMutability": "nonpayable",
      "type": "function"
    },
    {
      "inputs": [
        {
          "internalType": "bytes4",
          "name": "interfaceId",
          "type": "bytes4"
        }
      ],
      "name": "supportsInterface",
      "outputs": [
        {
          "internalType": "bool",
          "name": "",
          "type": "bool"
        }
      ],
      "stateMutability": "view",
      "type": "function",
      "constant": true
    },
    {
      "inputs": [],
      "name": "symbol",
      "outputs": [
        {
          "internalType": "string",
          "name": "",
          "type": "string"
        }
      ],
      "stateMutability": "view",
      "type": "function",
      "constant": true
    },
    {
      "inputs": [
        {
          "internalType": "uint256",
          "name": "tokenId",
          "type": "uint256"
        }
      ],
      "name": "tokenURI",
      "outputs": [
        {
          "internalType": "string",
          "name": "",
          "type": "string"
        }
      ],
      "stateMutability": "view",
      "type": "function",
      "constant": true
    },
    {
      "inputs": [
        {
          "internalType": "address",
          "name": "from",
          "type": "address"
        },
        {
          "internalType": "address",
          "name": "to",
          "type": "address"
        },
        {
          "internalType": "uint256",
          "name": "tokenId",
          "type": "uint256"
        }
      ],
      "name": "transferFrom",
      "outputs": [],
      "stateMutability": "nonpayable",
      "type": "function"
    },
    {
      "inputs": [
        {
          "internalType": "address",
          "name": "holder",
          "type": "address"
        },
        {
          "internalType": "enum CredentialTypes.CredentialType",
          "name": "credentialType",
          "type": "uint8"
        },
        {
          "internalType": "string",
          "name": "metadataURI",
          "type": "string"
        },
        {
          "internalType": "uint256",
          "name": "expirationDate",
          "type": "uint256"
        },
        {
          "internalType": "bool",
          "name": "isRevocable",
          "type": "bool"
        },
        {
          "internalType": "bytes32",
          "name": "credentialHash",
          "type": "bytes32"
        }
      ],
      "name": "issueCredential",
      "outputs": [
        {
          "internalType": "uint256",
          "name": "",
          "type": "uint256"
        }
      ],
      "stateMutability": "nonpayable",
      "type": "function"
    },
    {
      "inputs": [
        {
          "internalType": "uint256",
          "name": "tokenId",
          "type": "uint256"
        },
        {
          "internalType": "string",
          "name": "reason",
          "type": "string"
        }
      ],
      "name": "revokeCredential",
      "outputs": [],
      "stateMutability": "nonpayable",
      "type": "function"
    },
    {
      "inputs": [
        {
          "internalType": "uint256",
          "name": "tokenId",
          "type": "uint256"
        },
        {
          "internalType": "uint256",
          "name": "newExpirationDate",
          "type": "uint256"
        }
      ],
      "name": "renewCredential",
      "outputs": [],
      "stateMutability": "nonpayable",
      "type": "function"
    },
    {
      "inputs": [
        {
          "internalType": "uint256",
          "name": "tokenId",
          "type": "uint256"
        },
        {
          "internalType": "string",
          "name": "newMetadataURI",
          "type": "string"
        }
      ],
      "name": "updateMetadata",
      "outputs": [],
      "stateMutability": "nonpayable",
      "type": "function"
    },
    {
      "inputs": [
        {
          "internalType": "uint256",
          "name": "tokenId",
          "type": "uint256"
        }
      ],
      "name": "getCredential",
      "outputs": [
        {
          "components": [
            {
              "internalType": "uint256",
              "name": "credentialId",
              "type": "uint256"
            },
            {
              "internalType": "address",
              "name": "issuerAddress",
              "type": "address"
            },
            {
              "internalType": "address",
              "name": "holderAddress",
              "type": "address"
            },
            {
              "internalType": "enum CredentialTypes.CredentialType",
              "name": "credentialType",
              "type": "uint8"
            },
            {
              "internalType": "string",
              "name": "metadataURI",
              "type": "string"
            },
            {
              "internalType": "uint256",
              "name": "issueDate",
              "type": "uint256"
            },
            {
              "internalType": "uint256",
              "name": "expirationDate",
              "type": "uint256"
            },
            {
              "internalType": "bool",
              "name": "isRevocable",
              "type": "bool"
            },
            {
              "internalType": "bytes32",
              "name": "credentialHash",
              "type": "bytes32"
            }
          ],
          "internalType": "struct CredentialTypes.Credential",
          "name": "",
          "type": "tuple"
        }
      ],
      "stateMutability": "view",
      "type": "function",
      "constant": true
    },
    {
      "inputs": [
        {
          "internalType": "address",
          "name": "holder",
          "type": "address"
        }
      ],
      "name": "getHolderCredentials",
      "outputs": [
        {
          "internalType": "uint256[]",
          "name": "",
          "type": "uint256[]"
        }
      ],
      "stateMutability": "view",
      "type": "function",
      "constant": true
    },
    {
      "inputs": [
        {
          "internalType": "address",
          "name": "issuer",
          "type": "address"
        }
      ],
      "name": "getIssuerCredentials",
      "outputs": [
        {
          "internalType": "uint256[]",
          "name": "",
          "type": "uint256[]"
        }
      ],
      "stateMutability": "view",
      "type": "function",
      "constant": true
    },
    {
      "inputs": [
        {
          "internalType": "uint256",
          "name": "tokenId",
          "type": "uint256"
        }
      ],
      "name": "credentialExists",
      "outputs": [
        {
          "internalType": "bool",
          "name": "",
          "type": "bool"
        }
      ],
      "stateMutability": "view",
      "type": "function",
      "constant": true
    },
    {
      "inputs": [
        {
          "internalType": "uint256",
          "name": "tokenId",
          "type": "uint256"
        }
      ],
      "name": "isRevoked",
      "outputs": [
        {
          "internalType": "bool",
          "name": "",
          "type": "bool"
        }
      ],
      "stateMutability": "view",
      "type": "function",
      "constant": true
    },
    {
      "inputs": [
        {
          "internalType": "uint256",
          "name": "tokenId",
          "type": "uint256"
        }
      ],
      "name": "isExpired",
      "outputs": [
        {
          "internalType": "bool",
          "name": "",
          "type": "bool"
        }
      ],
      "stateMutability": "view",
      "type": "function",
      "constant": true
    },
    {
      "inputs": [
        {
          "internalType": "uint256",
          "name": "tokenId",
          "type": "uint256"
        }
      ],
      "name": "getCredentialStatus",
      "outputs": [
        {
          "internalType": "enum CredentialTypes.CredentialStatus",
          "name": "",
          "type": "uint8"
        }
      ],
      "stateMutability": "view",
      "type": "function",
      "constant": true
    },
    {
      "inputs": [
        {
          "internalType": "uint256",
          "name": "tokenId",
          "type": "uint256"
        }
      ],
      "name": "getIssuer",
      "outputs": [
        {
          "internalType": "address",
          "name": "",
          "type": "address"
        }
      ],
      "stateMutability": "view",
      "type": "function",
      "constant": true
    },
    {
      "inputs": [],
      "name": "getTotalCredentials",
      "outputs": [
        {
          "internalType": "uint256",
          "name": "",
          "type": "uint256"
        }
      ],
      "stateMutability": "view",
      "type": "function",
      "constant": true
    },
    {
      "inputs": [
        {
          "internalType": "uint256",
          "name": "tokenId",
          "type": "uint256"
        }
      ],
      "name": "isTransferable",
      "outputs": [
        {
          "internalType": "bool",
          "name": "",
          "type": "bool"
        }
      ],
      "stateMutability": "view",
      "type": "function",
      "constant": true
    },
    {
      "inputs": [
        {
          "internalType": "uint256",
          "name": "tokenId",
          "type": "uint256"
        }
      ],
      "name": "makeSoulbound",
      "outputs": [],
      "stateMutability": "nonpayable",
      "type": "function"
    },
    {
      "inputs": [],
      "name": "pause",
      "outputs": [],
      "stateMutability": "nonpayable",
      "type": "function"
    },
    {
      "inputs": [],
      "name": "unpause",
      "outputs": [],
      "stateMutability": "nonpayable",
      "type": "function"
    }
  ],
  "bytecode": "0x60806040523480156200001157600080fd5b506040516200305f3803806200305f83398101604081905262000034916200014d565b6040518060400160405280601a81526020017f536b696c6c732050617373706f72742043726564656e7469616c0000000000008152506040518060400160405280600381526020016253504360e81b815250816000908162000097919062000224565b506001620000a6828262000224565b50506007805460ff19169055506001600160a01b0381166200011e5760405162461bcd60e51b815260206004820152602760248201527f43726564656e7469616c4e46543a20496e76616c6964207265676973747279206044820152666164647265737360c81b606482015260840160405180910390fd5b600980546001600160a01b039092166001600160a01b0319928316179055600f805490911633179055620002f0565b6000602082840312156200016057600080fd5b81516001600160a01b03811681146200017857600080fd5b9392505050565b634e487b7160e01b600052604160045260246000fd5b600181811c90821680620001aa57607f821691505b602082108103620001cb57634e487b7160e01b600052602260045260246000fd5b50919050565b601f8211156200021f57600081815260208120601f850160051c81016020861015620001fa5750805b601f850160051c820191505b818110156200021b5782815560010162000206565b5050505b505050565b81516001600160401b038111156200024057620002406200017f565b620002588162000251845462000195565b84620001d1565b602080601f831160018114620002905760008415620002775750858301515b600019600386901b1c1916600185901b1785556200021b565b600085815260208120601f198616915b82811015620002c157888601518255948401946001909101908401620002a0565b5085821015620002e05787850151600019600388901b60f8161c191681555b5050505050600190811b01905550565b612d5f80620003006000396000f3fe608060405234801561001057600080fd5b50600436106101fb5760003560e01c80638dd18d2d1161011a578063c87b56dd116100ad578063d8dfa5261161007c578063d8dfa52614610461578063d9548e5314610474578063e985e9c514610487578063f1470a35146104c3578063f851a440146104cb57600080fd5b8063c87b56dd14610405578063c99c2fdf14610418578063cb8811651461042b578063d8202ffb1461044e57600080fd5b8063a22cb465116100e9578063a22cb465146103b9578063a591eea1146103cc578063b2564569146103df578063b88d4fde146103f257600080fd5b80638dd18d2d1461036b57806392089c461461038b578063957a32051461039e57806395d89b41146103b157600080fd5b80635c975abb1161019257806370a082311161016157806370a082311461030f5780638456cb59146103305780638bfc1851146103385780638d1844321461034b57600080fd5b80635c975abb146102be5780635ccc561e146102c95780635d256186146102dc5780636352211e146102fc57600080fd5b806323b872dd116101ce57806323b872dd1461027d5780633f4ba83a1461029057806342842e0e1461029857806353c8388e146102ab57600080fd5b806301ffc9a71461020057806306fdde0314610228578063081812fc1461023d578063095ea7b314610268575b600080fd5b61021361020e366004612426565b6104de565b60405190151581526020015b60405180910390f35b610230610509565b60405161021f9190612493565b61025061024b3660046124a6565b61059b565b6040516001600160a01b03909116815260200161021f565b61027b6102763660046124db565b6105c2565b005b61027b61028b366004612505565b6106dc565b61027b61070d565b61027b6102a6366004612505565b61076c565b61027b6102b93660046125ed565b610787565b60075460ff16610213565b6102136102d73660046124a6565b61091f565b6102ef6102ea3660046124a6565b610942565b60405161021f919061264a565b61025061030a3660046124a6565b6109ce565b61032261031d366004612664565b610a2e565b60405190815260200161021f565b61027b610ab4565b600954610250906001600160a01b031681565b61035e610359366004612664565b610b11565b60405161021f919061267f565b61037e6103793660046124a6565b610b7d565b60405161021f91906126d7565b6102506103993660046124a6565b610d34565b61027b6103ac3660046125ed565b610d81565b610230610ede565b61027b6103c736600461278d565b610eed565b61027b6103da3660046124a6565b610efc565b6102136103ed3660046124a6565b610f7e565b61027b6104003660046127c4565b610fc2565b6102306104133660046124a6565b610ffa565b61027b610426366004612840565b61110a565b6102136104393660046124a6565b6000908152600b602052604090205460ff1690565b61035e61045c366004612664565b611233565b61032261046f366004612862565b61129d565b6102136104823660046124a6565b6116e0565b6102136104953660046128ed565b6001600160a01b03918216600090815260056020908152604080832093909416825291909152205460ff1690565b610322611729565b600f54610250906001600160a01b031681565b60006001600160e01b03198216632483248360e11b1480610503575061050382611739565b92915050565b60606000805461051890612920565b80601f016020809104026020016040519081016040528092919081815260200182805461054490612920565b80156105915780601f1061056657610100808354040283529160200191610591565b820191906000526020600020905b81548152906001019060200180831161057457829003601f168201915b5050505050905090565b60006105a682611789565b506000908152600460205260409020546001600160a01b031690565b60006105cd826109ce565b9050806001600160a01b0316836001600160a01b03160361063f5760405162461bcd60e51b815260206004820152602160248201527f4552433732313a20617070726f76616c20746f2063757272656e74206f776e656044820152603960f91b60648201526084015b60405180910390fd5b336001600160a01b038216148061065b575061065b8133610495565b6106cd5760405162461bcd60e51b815260206004820152603d60248201527f4552433732313a20617070726f76652063616c6c6572206973206e6f7420746f60448201527f6b656e206f776e6572206f7220617070726f76656420666f7220616c6c0000006064820152608401610636565b6106d783836117eb565b505050565b6106e63382611859565b6107025760405162461bcd60e51b81526004016106369061295a565b6106d78383836118d7565b600f546001600160a01b031633146107625760405162461bcd60e51b815260206004820152601860248201527721b932b232b73a34b0b627232a1d102737ba1030b236b4b760411b6044820152606401610636565b61076a611a48565b565b6106d783838360405180602001604052806000815250610fc2565b6000828152600a602052604090206001015482906001600160a01b031633146107c25760405162461bcd60e51b8152600401610636906129a7565b6107ca611a9a565b6000838152600b602052604090205460ff166107f85760405162461bcd60e51b8152600401610636906129de565b60008251116108195760405162461bcd60e51b815260040161063690612a26565b6000838152600a60205260408120600301805461083590612920565b80601f016020809104026020016040519081016040528092919081815260200182805461086190612920565b80156108ae5780601f10610883576101008083540402835291602001916108ae565b820191906000526020600020905b81548152906001019060200180831161089157829003601f168201915b5050506000878152600a6020526040902092935050600390910190506108d48482612ab5565b506108df8484611ae0565b837f3f7a35cd9b26685d553587ded5408aeaa33a80b9346a2e66a6791ff0242a69368285604051610911929190612b75565b60405180910390a250505050565b6000818152600b602052604081205460ff16158015610503575050600854101590565b6000818152600b602052604081205460ff1615801561096357506008548211155b1561097057506002919050565b6000828152600b602052604090205460ff1661099e5760405162461bcd60e51b8152600401610636906129de565b6000828152600a60205260409020600501546109b990611bab565b156109c657506001919050565b506000919050565b6000818152600260205260408120546001600160a01b0316806105035760405162461bcd60e51b8152602060048201526018602482015277115490cdcc8c4e881a5b9d985b1a59081d1bdad95b88125160421b6044820152606401610636565b60006001600160a01b038216610a985760405162461bcd60e51b815260206004820152602960248201527f4552433732313a2061646472657373207a65726f206973206e6f7420612076616044820152683634b21037bbb732b960b91b6064820152608401610636565b506001600160a01b031660009081526003602052604090205490565b600f546001600160a01b03163314610b095760405162461bcd60e51b815260206004820152601860248201527721b932b232b73a34b0b627232a1d102737ba1030b236b4b760411b6044820152606401610636565b61076a611bc3565b6001600160a01b0381166000908152600c6020908152604091829020805483518184028101840190945280845260609392830182828015610b7157602002820191906000526020600020905b815481526020019060010190808311610b5d575b50505050509050919050565b60408051610120810182526000808252602082018190529181018290526060808201839052608082015260a0810182905260c0810182905260e081018290526101008101919091526000828152600b602052604090205460ff16610bf35760405162461bcd60e51b8152600401610636906129de565b6000828152600a60209081526040918290208251610120810184528154815260018201546001600160a01b0390811693820193909352600282015492831693810193909352906060830190600160a01b900460ff166007811115610c5957610c59612634565b6007811115610c6a57610c6a612634565b8152602001600382018054610c7e90612920565b80601f0160208091040260200160405190810160405280929190818152602001828054610caa90612920565b8015610cf75780601f10610ccc57610100808354040283529160200191610cf7565b820191906000526020600020905b815481529060010190602001808311610cda57829003601f168201915b50505091835250506004820154602082015260058201546040820152600682015460ff161515606082015260079091015460809091015292915050565b6000818152600b602052604081205460ff16610d625760405162461bcd60e51b8152600401610636906129de565b506000908152600a60205260409020600101546001600160a01b031690565b6000828152600a602052604090206001015482906001600160a01b03163314610dbc5760405162461bcd60e51b8152600401610636906129a7565b610dc4611a9a565b6000838152600b602052604090205460ff16610df25760405162461bcd60e51b8152600401610636906129de565b6000838152600a602052604090206006015460ff16610e635760405162461bcd60e51b815260206004820152602760248201527f43726564656e7469616c4e46543a2043726564656e7469616c206e6f74207265604482015266766f6361626c6560c81b6064820152608401610636565b6000610e6e846109ce565b9050610e7984611c00565b6000848152600b602052604090819020805460ff19169055516001600160a01b03821690339086907f47cc41d4c9a799ba7dcbfbfbb43a3fd39296abb82851b3889d87d05176ef06b090610ed09042908990612ba3565b60405180910390a450505050565b60606001805461051890612920565b610ef8338383611c40565b5050565b6000818152600a602052604090206001015481906001600160a01b03163314610f375760405162461bcd60e51b8152600401610636906129a7565b6000828152600b602052604090205460ff16610f655760405162461bcd60e51b8152600401610636906129de565b506000908152600e60205260409020805460ff19169055565b6000818152600b602052604081205460ff16610fac5760405162461bcd60e51b8152600401610636906129de565b506000908152600e602052604090205460ff1690565b610fcc3383611859565b610fe85760405162461bcd60e51b81526004016106369061295a565b610ff484848484611d0e565b50505050565b606061100582611789565b6000828152600660205260408120805461101e90612920565b80601f016020809104026020016040519081016040528092919081815260200182805461104a90612920565b80156110975780601f1061106c57610100808354040283529160200191611097565b820191906000526020600020905b81548152906001019060200180831161107a57829003601f168201915b5050505050905060006110b560408051602081019091526000815290565b905080516000036110c7575092915050565b8151156110f95780826040516020016110e1929190612bbc565b60405160208183030381529060405292505050919050565b61110284611d41565b949350505050565b6000828152600a602052604090206001015482906001600160a01b031633146111455760405162461bcd60e51b8152600401610636906129a7565b61114d611a9a565b6000838152600b602052604090205460ff1661117b5760405162461bcd60e51b8152600401610636906129de565b4282116111e25760405162461bcd60e51b815260206004820152602f60248201527f43726564656e7469616c4e46543a204e65772065787069726174696f6e206d7560448201526e737420626520696e2066757475726560881b6064820152608401610636565b6000838152600a602090815260409182902060050180549085905582518181529182018590529185917f9a62047fc0c0c85d43bb1e0cd04380413235b56fecbe2786b60f52454090a98b9101610911565b6001600160a01b0381166000908152600d6020908152604091829020805483518184028101840190945280845260609392830182828015610b715760200282019190600052602060002090815481526020019060010190808311610b5d5750505050509050919050565b600954604051632d598d7b60e01b81523360048201526000916001600160a01b031690632d598d7b90602401602060405180830381865afa1580156112e6573d6000803e3d6000fd5b505050506040513d601f19601f8201168201806040525081019061130a9190612beb565b6113625760405162461bcd60e51b8152602060048201526024808201527f43726564656e7469616c4e46543a20497373756572206e6f74206163637265646044820152631a5d195960e21b6064820152608401610636565b61136a611a9a565b6001600160a01b0387166113ce5760405162461bcd60e51b815260206004820152602560248201527f43726564656e7469616c4e46543a20496e76616c696420686f6c646572206164604482015264647265737360d81b6064820152608401610636565b60008551116113ef5760405162461bcd60e51b815260040161063690612a26565b8315806113fb57504284115b6114565760405162461bcd60e51b815260206004820152602660248201527f43726564656e7469616c4e46543a20496e76616c69642065787069726174696f6044820152656e206461746560d01b6064820152608401610636565b611464600880546001019055565b600061146f60085490565b905061147b8882611db5565b6114858187611ae0565b604051806101200160405280828152602001336001600160a01b03168152602001896001600160a01b031681526020018860078111156114c7576114c7612634565b815260208082018990524260408084019190915260608084018a9052881515608085015260a09093018790526000858152600a835281902084518155918401516001830180546001600160a01b03199081166001600160a01b03938416179091559185015160028401805493841691909216908117825593850151929390916001600160a81b03191617600160a01b83600781111561156857611568612634565b0217905550608082015160038201906115819082612ab5565b5060a082015160048281019190915560c0830151600583015560e083015160068301805491151560ff19928316179055610100909301516007909201919091556000838152600b60209081526040808320805486166001908117909155600e8352818420805490961681179095556001600160a01b038d81168452600c8352818420805480880182559085528385200187905533808552600d845282852080549788018155855292909320909401859055600954935163ae02652360e01b815292830152919091169063ae02652390602401600060405180830381600087803b15801561166d57600080fd5b505af1158015611681573d6000803e3d6000fd5b50505050876001600160a01b0316336001600160a01b0316827fafa69c84cae2def75b855b8acbad2166be39c5eb221d19ae6e72c666692bb9288a8a8a6040516116cd93929190612c08565b60405180910390a4979650505050505050565b6000818152600b602052604081205460ff1661170e5760405162461bcd60e51b8152600401610636906129de565b6000828152600a602052604090206005015461050390611bab565b600061173460085490565b905090565b60006001600160e01b031982166380ac58cd60e01b148061176a57506001600160e01b03198216635b5e139f60e01b145b8061050357506301ffc9a760e01b6001600160e01b0319831614610503565b6000818152600260205260409020546001600160a01b03166117e85760405162461bcd60e51b8152602060048201526018602482015277115490cdcc8c4e881a5b9d985b1a59081d1bdad95b88125160421b6044820152606401610636565b50565b600081815260046020526040902080546001600160a01b0319166001600160a01b0384169081179091558190611820826109ce565b6001600160a01b03167f8c5be1e5ebec7d5bd14f71427d1e84f3dd0314c0f7b2291e5b200ac8c7c3b92560405160405180910390a45050565b600080611865836109ce565b9050806001600160a01b0316846001600160a01b031614806118ac57506001600160a01b0380821660009081526005602090815260408083209388168352929052205460ff165b806111025750836001600160a01b03166118c58461059b565b6001600160a01b031614949350505050565b826001600160a01b03166118ea826109ce565b6001600160a01b0316146119105760405162461bcd60e51b815260040161063690612c38565b6001600160a01b0382166119725760405162461bcd60e51b8152602060048201526024808201527f4552433732313a207472616e7366657220746f20746865207a65726f206164646044820152637265737360e01b6064820152608401610636565b61197f8383836001611dcf565b826001600160a01b0316611992826109ce565b6001600160a01b0316146119b85760405162461bcd60e51b815260040161063690612c38565b600081815260046020908152604080832080546001600160a01b03199081169091556001600160a01b0387811680865260038552838620805460001901905590871680865283862080546001019055868652600290945282852080549092168417909155905184937fddf252ad1be2c89b69c2b068fc378daa952ba7f163c4a11628f55a4df523b3ef91a4505050565b611a50611e9e565b6007805460ff191690557f5db9ee0a495bf2e6ff9c91a7834c1ba4fdd244a5e8aa4e537bd38aeae4b073aa335b6040516001600160a01b03909116815260200160405180910390a1565b60075460ff161561076a5760405162461bcd60e51b815260206004820152601060248201526f14185d5cd8589b194e881c185d5cd95960821b6044820152606401610636565b6000828152600260205260409020546001600160a01b0316611b5b5760405162461bcd60e51b815260206004820152602e60248201527f45524337323155524953746f726167653a2055524920736574206f66206e6f6e60448201526d32bc34b9ba32b73a103a37b5b2b760911b6064820152608401610636565b6000828152600660205260409020611b738282612ab5565b506040518281527ff8e1a15aba9398e019f0b49df1a4fde98ee17ae345cb5f6b5e2c27f5033e8ce79060200160405180910390a15050565b600081600003611bbd57506000919050565b50421190565b611bcb611a9a565b6007805460ff191660011790557f62e78cea01bee320cd4e420270b5ea74000d11b0c9f74754ebdbfc544b05a258611a7d3390565b611c0981611ee7565b60008181526006602052604090208054611c2290612920565b1590506117e85760008181526006602052604081206117e8916123c2565b816001600160a01b0316836001600160a01b031603611ca15760405162461bcd60e51b815260206004820152601960248201527f4552433732313a20617070726f766520746f2063616c6c6572000000000000006044820152606401610636565b6001600160a01b03838116600081815260056020908152604080832094871680845294825291829020805460ff191686151590811790915591519182527f17307eab39ab6107e8899845ad3d59bd9653f200f220920489ca2b5937696c31910160405180910390a3505050565b611d198484846118d7565b611d2584848484611f8a565b610ff45760405162461bcd60e51b815260040161063690612c7d565b6060611d4c82611789565b6000611d6360408051602081019091526000815290565b90506000815111611d835760405180602001604052806000815250611dae565b80611d8d8461208b565b604051602001611d9e929190612bbc565b6040516020818303038152906040525b9392505050565b610ef882826040518060200160405280600081525061211e565b6001600160a01b0384161580611dec57506001600160a01b038316155b610ff4576000828152600e602052604090205460ff16611e585760405162461bcd60e51b815260206004820152602160248201527f43726564656e7469616c4e46543a20546f6b656e20697320736f756c626f756e6044820152601960fa1b6064820152608401610636565b826001600160a01b0316846001600160a01b0316837f9f19112f424b97e292a3cb55dd0a0d2cc2675a60df66872070272396ab69e34a42604051610ed091815260200190565b60075460ff1661076a5760405162461bcd60e51b815260206004820152601460248201527314185d5cd8589b194e881b9bdd081c185d5cd95960621b6044820152606401610636565b6000611ef2826109ce565b9050611f02816000846001611dcf565b611f0b826109ce565b600083815260046020908152604080832080546001600160a01b03199081169091556001600160a01b0385168085526003845282852080546000190190558785526002909352818420805490911690555192935084927fddf252ad1be2c89b69c2b068fc378daa952ba7f163c4a11628f55a4df523b3ef908390a45050565b60006001600160a01b0384163b1561208057604051630a85bd0160e11b81526001600160a01b0385169063150b7a0290611fce903390899088908890600401612ccf565b6020604051808303816000875af1925050508015612009575060408051601f3d908101601f1916820190925261200691810190612d0c565b60015b612066573d808015612037576040519150601f19603f3d011682016040523d82523d6000602084013e61203c565b606091505b50805160000361205e5760405162461bcd60e51b815260040161063690612c7d565b805181602001fd5b6001600160e01b031916630a85bd0160e11b149050611102565b506001949350505050565b6060600061209883612151565b600101905060008167ffffffffffffffff8111156120b8576120b8612541565b6040519080825280601f01601f1916602001820160405280156120e2576020820181803683370190505b5090508181016020015b600019016f181899199a1a9b1b9c1cb0b131b232b360811b600a86061a8153600a85049450846120ec57509392505050565b6121288383612229565b6121356000848484611f8a565b6106d75760405162461bcd60e51b815260040161063690612c7d565b60008072184f03e93ff9f4daa797ed6e38ed64bf6a1f0160401b83106121905772184f03e93ff9f4daa797ed6e38ed64bf6a1f0160401b830492506040015b6d04ee2d6d415b85acef810000000083106121bc576d04ee2d6d415b85acef8100000000830492506020015b662386f26fc1000083106121da57662386f26fc10000830492506010015b6305f5e10083106121f2576305f5e100830492506008015b612710831061220657612710830492506004015b60648310612218576064830492506002015b600a83106105035760010192915050565b6001600160a01b03821661227f5760405162461bcd60e51b815260206004820181905260248201527f4552433732313a206d696e7420746f20746865207a65726f20616464726573736044820152606401610636565b6000818152600260205260409020546001600160a01b0316156122e45760405162461bcd60e51b815260206004820152601c60248201527f4552433732313a20746f6b656e20616c7265616479206d696e746564000000006044820152606401610636565b6122f2600083836001611dcf565b6000818152600260205260409020546001600160a01b0316156123575760405162461bcd60e51b815260206004820152601c60248201527f4552433732313a20746f6b656e20616c7265616479206d696e746564000000006044820152606401610636565b6001600160a01b038216600081815260036020908152604080832080546001019055848352600290915280822080546001600160a01b0319168417905551839291907fddf252ad1be2c89b69c2b068fc378daa952ba7f163c4a11628f55a4df523b3ef908290a45050565b5080546123ce90612920565b6000825580601f106123de575050565b601f0160209004906000526020600020908101906117e891905b8082111561240c57600081556001016123f8565b5090565b6001600160e01b0319811681146117e857600080fd5b60006020828403121561243857600080fd5b8135611dae81612410565b60005b8381101561245e578181015183820152602001612446565b50506000910152565b6000815180845261247f816020860160208601612443565b601f01601f19169290920160200192915050565b602081526000611dae6020830184612467565b6000602082840312156124b857600080fd5b5035919050565b80356001600160a01b03811681146124d657600080fd5b919050565b600080604083850312156124ee57600080fd5b6124f7836124bf565b946020939093013593505050565b60008060006060848603121561251a57600080fd5b612523846124bf565b9250612531602085016124bf565b9150604084013590509250925092565b634e487b7160e01b600052604160045260246000fd5b600067ffffffffffffffff8084111561257257612572612541565b604051601f8501601f19908116603f0116810190828211818310171561259a5761259a612541565b816040528093508581528686860111156125b357600080fd5b858560208301376000602087830101525050509392505050565b600082601f8301126125de57600080fd5b611dae83833560208501612557565b6000806040838503121561260057600080fd5b82359150602083013567ffffffffffffffff81111561261e57600080fd5b61262a858286016125cd565b9150509250929050565b634e487b7160e01b600052602160045260246000fd5b602081016004831061265e5761265e612634565b91905290565b60006020828403121561267657600080fd5b611dae826124bf565b6020808252825182820181905260009190848201906040850190845b818110156126b75783518352928401929184019160010161269b565b50909695505050505050565b600881106126d3576126d3612634565b9052565b6020815281516020820152600060208301516126fe60408401826001600160a01b03169052565b5060408301516001600160a01b038116606084015250606083015161272660808401826126c3565b5060808301516101208060a0850152612743610140850183612467565b915060a085015160c085015260c085015160e085015260e085015161010061276e8187018315159052565b959095015193019290925250919050565b80151581146117e857600080fd5b600080604083850312156127a057600080fd5b6127a9836124bf565b915060208301356127b98161277f565b809150509250929050565b600080600080608085870312156127da57600080fd5b6127e3856124bf565b93506127f1602086016124bf565b925060408501359150606085013567ffffffffffffffff81111561281457600080fd5b8501601f8101871361282557600080fd5b61283487823560208401612557565b91505092959194509250565b6000806040838503121561285357600080fd5b50508035926020909101359150565b60008060008060008060c0878903121561287b57600080fd5b612884876124bf565b955060208701356008811061289857600080fd5b9450604087013567ffffffffffffffff8111156128b457600080fd5b6128c089828a016125cd565b9450506060870135925060808701356128d88161277f565b8092505060a087013590509295509295509295565b6000806040838503121561290057600080fd5b612909836124bf565b9150612917602084016124bf565b90509250929050565b600181811c9082168061293457607f821691505b60208210810361295457634e487b7160e01b600052602260045260246000fd5b50919050565b6020808252602d908201527f4552433732313a2063616c6c6572206973206e6f7420746f6b656e206f776e6560408201526c1c881bdc88185c1c1c9bdd9959609a1b606082015260800190565b6020808252601d908201527f43726564656e7469616c4e46543a204e6f742074686520697373756572000000604082015260600190565b60208082526028908201527f43726564656e7469616c4e46543a2043726564656e7469616c20646f6573206e6040820152671bdd08195e1a5cdd60c21b606082015260800190565b60208082526021908201527f43726564656e7469616c4e46543a20456d707479206d657461646174612055526040820152604960f81b606082015260800190565b601f8211156106d757600081815260208120601f850160051c81016020861015612a8e5750805b601f850160051c820191505b81811015612aad57828155600101612a9a565b505050505050565b815167ffffffffffffffff811115612acf57612acf612541565b612ae381612add8454612920565b84612a67565b602080601f831160018114612b185760008415612b005750858301515b600019600386901b1c1916600185901b178555612aad565b600085815260208120601f198616915b82811015612b4757888601518255948401946001909101908401612b28565b5085821015612b655787850151600019600388901b60f8161c191681555b5050505050600190811b01905550565b604081526000612b886040830185612467565b8281036020840152612b9a8185612467565b95945050505050565b8281526040602082015260006111026040830184612467565b60008351612bce818460208801612443565b835190830190612be2818360208801612443565b01949350505050565b600060208284031215612bfd57600080fd5b8151611dae8161277f565b612c1281856126c3565b606060208201526000612c286060830185612467565b9050826040830152949350505050565b60208082526025908201527f4552433732313a207472616e736665722066726f6d20696e636f72726563742060408201526437bbb732b960d91b606082015260800190565b60208082526032908201527f4552433732313a207472616e7366657220746f206e6f6e20455243373231526560408201527131b2b4bb32b91034b6b83632b6b2b73a32b960711b606082015260800190565b6001600160a01b0385811682528416602082015260408101839052608060608201819052600090612d0290830184612467565b9695505050505050565b600060208284031215612d1e57600080fd5b8151611dae8161241056fea2646970667358221220c91b748be534dfc4ec63263a0d18e728289d906dc1662e8f662a56f8812813f464736f6c63430008140033",
  "immutableReferences": {},
  "source": "// SPDX-License-Identifier: MIT\r\npragma solidity ^0.8.0;\r\n\r\nimport \"../interfaces/ICredential.sol\";\r\nimport \"../interfaces/IIssuer.sol\";\r\nimport \"../libraries/CredentialTypes.sol\";\r\nimport \"../libraries/DateUtils.sol\";\r\nimport \"@openzeppelin/contracts/token/ERC721/ERC721.sol\";\r\nimport \"@openzeppelin/contracts/token/ERC721/extensions/ERC721URIStorage.sol\";\r\nimport \"@openzeppelin/contracts/security/Pausable.sol\";\r\nimport \"@openzeppelin/contracts/utils/Counters.sol\";\r\n\r\n/**\r\n * @title CredentialNFT\r\n * @dev Main NFT contract for issuing and managing credentials\r\n * Extends ERC721 with credential-specific functionality\r\n */\r\ncontract CredentialNFT is ICredential, ERC721URIStorage, Pausable {\r\n    using Counters for Counters.Counter;\r\n    using DateUtils for uint256;\r\n\r\n    // Token ID counter\r\n    Counters.Counter private _tokenIdCounter;\r\n\r\n    // Reference to IssuerRegistry contract\r\n    IIssuer public issuerRegistry;\r\n\r\n    // Credential data storage\r\n    mapping(uint256 => CredentialTypes.Credential) private credentials;\r\n    mapping(uint256 => bool) private _credentialExists;\r\n\r\n    // Holder and issuer tracking\r\n    mapping(address => uint256[]) private holderCredentials;\r\n    mapping(address => uint256[]) private issuerCredentials;\r\n\r\n    // Soulbound/transfer settings\r\n    mapping(uint256 => bool) private transferable;\r\n\r\n    // Contract admin\r\n    address public admin;\r\n\r\n    modifier onlyIssuer(uint256 tokenId) {\r\n        require(\r\n            credentials[tokenId].issuerAddress == msg.sender,\r\n            \"CredentialNFT: Not the issuer\"\r\n        );\r\n        _;\r\n    }\r\n\r\n    modifier onlyAccreditedIssuer() {\r\n        require(\r\n            issuerRegistry.isAccredited(msg.sender),\r\n            \"CredentialNFT: Issuer not accredited\"\r\n        );\r\n        _;\r\n    }\r\n\r\n    constructor(\r\n        address _issuerRegistryAddress\r\n    ) ERC721(\"Skills Passport Credential\", \"SPC\") {\r\n        require(\r\n            _issuerRegistryAddress != address(0),\r\n            \"CredentialNFT: Invalid registry address\"\r\n        );\r\n        issuerRegistry = IIssuer(_issuerRegistryAddress);\r\n        admin = msg.sender;\r\n    }\r\n\r\n    /**\r\n     * @dev Issue a new credential NFT to a holder\r\n     */\r\n    function issueCredential(\r\n        address holder,\r\n        CredentialTypes.CredentialType credentialType,\r\n        string memory metadataURI,\r\n        uint256 expirationDate,\r\n        bool isRevocable,\r\n        bytes32 credentialHash\r\n    ) external override onlyAccreditedIssuer whenNotPaused returns (uint256) {\r\n        require(holder != address(0), \"CredentialNFT: Invalid holder address\");\r\n        require(\r\n            bytes(metadataURI).length > 0,\r\n            \"CredentialNFT: Empty metadata URI\"\r\n        );\r\n        require(\r\n            expirationDate == 0 || expirationDate > block.timestamp,\r\n            \"CredentialNFT: Invalid expiration date\"\r\n        );\r\n\r\n        _tokenIdCounter.increment();\r\n        uint256 tokenId = _tokenIdCounter.current();\r\n\r\n        // Mint NFT to holder\r\n        _safeMint(holder, tokenId);\r\n        _setTokenURI(tokenId, metadataURI);\r\n\r\n        // Store credential data\r\n        credentials[tokenId] = CredentialTypes.Credential({\r\n            credentialId: tokenId,\r\n            issuerAddress: msg.sender,\r\n            holderAddress: holder,\r\n            credentialType: credentialType,\r\n            metadataURI: metadataURI,\r\n            issueDate: block.timestamp,\r\n            expirationDate: expirationDate,\r\n            isRevocable: isRevocable,\r\n            credentialHash: credentialHash\r\n        });\r\n\r\n        _credentialExists[tokenId] = true;\r\n        transferable[tokenId] = true; // Default transferable\r\n\r\n        // Update tracking\r\n        holderCredentials[holder].push(tokenId);\r\n        issuerCredentials[msg.sender].push(tokenId);\r\n\r\n        // Increment issuer's credential count\r\n        issuerRegistry.incrementIssuerCredentialCount(msg.sender);\r\n\r\n        emit CredentialIssued(\r\n            tokenId,\r\n            msg.sender,\r\n            holder,\r\n            credentialType,\r\n            metadataURI,\r\n            expirationDate\r\n        );\r\n\r\n        return tokenId;\r\n    }\r\n\r\n    /**\r\n     * @dev Revoke a credential (only by original issuer)\r\n     */\r\n    function revokeCredential(\r\n        uint256 tokenId,\r\n        string memory reason\r\n    ) external override onlyIssuer(tokenId) whenNotPaused {\r\n        require(\r\n            _credentialExists[tokenId],\r\n            \"CredentialNFT: Credential does not exist\"\r\n        );\r\n        require(\r\n            credentials[tokenId].isRevocable,\r\n            \"CredentialNFT: Credential not revocable\"\r\n        );\r\n\r\n        address holder = ownerOf(tokenId);\r\n\r\n        // Burn the NFT to revoke\r\n        _burn(tokenId);\r\n        _credentialExists[tokenId] = false;\r\n\r\n        emit CredentialRevoked(\r\n            tokenId,\r\n            msg.sender,\r\n            holder,\r\n            block.timestamp,\r\n            reason\r\n        );\r\n    }\r\n\r\n    /**\r\n     * @dev Renew an expirable credential with new expiration date\r\n     */\r\n    function renewCredential(\r\n        uint256 tokenId,\r\n        uint256 newExpirationDate\r\n    ) external override onlyIssuer(tokenId) whenNotPaused {\r\n        require(\r\n            _credentialExists[tokenId],\r\n            \"CredentialNFT: Credential does not exist\"\r\n        );\r\n        require(\r\n            newExpirationDate > block.timestamp,\r\n            \"CredentialNFT: New expiration must be in future\"\r\n        );\r\n\r\n        uint256 oldExpirationDate = credentials[tokenId].expirationDate;\r\n        credentials[tokenId].expirationDate = newExpirationDate;\r\n\r\n        emit CredentialRenewed(tokenId, oldExpirationDate, newExpirationDate);\r\n    }\r\n\r\n    /**\r\n     * @dev Update credential metadata URI\r\n     */\r\n    function updateMetadata(\r\n        uint256 tokenId,\r\n        string memory newMetadataURI\r\n    ) external override onlyIssuer(tokenId) whenNotPaused {\r\n        require(\r\n            _credentialExists[tokenId],\r\n            \"CredentialNFT: Credential does not exist\"\r\n        );\r\n        require(\r\n            bytes(newMetadataURI).length > 0,\r\n            \"CredentialNFT: Empty metadata URI\"\r\n        );\r\n\r\n        string memory oldMetadataURI = credentials[tokenId].metadataURI;\r\n        credentials[tokenId].metadataURI = newMetadataURI;\r\n        _setTokenURI(tokenId, newMetadataURI);\r\n\r\n        emit CredentialMetadataUpdated(tokenId, oldMetadataURI, newMetadataURI);\r\n    }\r\n\r\n    /**\r\n     * @dev Get complete credential information\r\n     */\r\n    function getCredential(\r\n        uint256 tokenId\r\n    ) external view override returns (CredentialTypes.Credential memory) {\r\n        require(\r\n            _credentialExists[tokenId],\r\n            \"CredentialNFT: Credential does not exist\"\r\n        );\r\n        return credentials[tokenId];\r\n    }\r\n\r\n    /**\r\n     * @dev Get all credentials owned by a holder\r\n     */\r\n    function getHolderCredentials(\r\n        address holder\r\n    ) external view override returns (uint256[] memory) {\r\n        return holderCredentials[holder];\r\n    }\r\n\r\n    /**\r\n     * @dev Get all credentials issued by an issuer\r\n     */\r\n    function getIssuerCredentials(\r\n        address issuer\r\n    ) external view override returns (uint256[] memory) {\r\n        return issuerCredentials[issuer];\r\n    }\r\n\r\n    /**\r\n     * @dev Check if a credential exists\r\n     */\r\n    function credentialExists(\r\n        uint256 tokenId\r\n    ) external view override returns (bool) {\r\n        return _credentialExists[tokenId];\r\n    }\r\n\r\n    /**\r\n     * @dev Check if a credential is revoked (burned)\r\n     */\r\n    function isRevoked(uint256 tokenId) external view override returns (bool) {\r\n        return\r\n            !_credentialExists[tokenId] && tokenId <= _tokenIdCounter.current();\r\n    }\r\n\r\n    /**\r\n     * @dev Check if a credential is expired\r\n     */\r\n    function isExpired(uint256 tokenId) external view override returns (bool) {\r\n        require(\r\n            _credentialExists[tokenId],\r\n            \"CredentialNFT: Credential does not exist\"\r\n        );\r\n        return credentials[tokenId].expirationDate.isExpired();\r\n    }\r\n\r\n    /**\r\n     * @dev Get credential status\r\n     */\r\n    function getCredentialStatus(\r\n        uint256 tokenId\r\n    ) external view override returns (CredentialTypes.CredentialStatus) {\r\n        if (\r\n            !_credentialExists[tokenId] && tokenId <= _tokenIdCounter.current()\r\n        ) {\r\n            return CredentialTypes.CredentialStatus.REVOKED;\r\n        }\r\n\r\n        require(\r\n            _credentialExists[tokenId],\r\n            \"CredentialNFT: Credential does not exist\"\r\n        );\r\n\r\n        if (credentials[tokenId].expirationDate.isExpired()) {\r\n            return CredentialTypes.CredentialStatus.EXPIRED;\r\n        }\r\n\r\n        return CredentialTypes.CredentialStatus.ACTIVE;\r\n    }\r\n\r\n    /**\r\n     * @dev Get issuer address for a credential\r\n     */\r\n    function getIssuer(\r\n        uint256 tokenId\r\n    ) external view override returns (address) {\r\n        require(\r\n            _credentialExists[tokenId],\r\n            \"CredentialNFT: Credential does not exist\"\r\n        );\r\n        return credentials[tokenId].issuerAddress;\r\n    }\r\n\r\n    /**\r\n     * @dev Get total number of credentials issued\r\n     */\r\n    function getTotalCredentials() external view override returns (uint256) {\r\n        return _tokenIdCounter.current();\r\n    }\r\n\r\n    /**\r\n     * @dev Check if credential is transferable\r\n     */\r\n    function isTransferable(\r\n        uint256 tokenId\r\n    ) external view override returns (bool) {\r\n        require(\r\n            _credentialExists[tokenId],\r\n            \"CredentialNFT: Credential does not exist\"\r\n        );\r\n        return transferable[tokenId];\r\n    }\r\n\r\n    /**\r\n     * @dev Make credential soulbound (non-transferable)\r\n     */\r\n    function makeSoulbound(uint256 tokenId) external onlyIssuer(tokenId) {\r\n        require(\r\n            _credentialExists[tokenId],\r\n            \"CredentialNFT: Credential does not exist\"\r\n        );\r\n        transferable[tokenId] = false;\r\n    }\r\n\r\n    /**\r\n     * @dev Override transfer to enforce soulbound restrictions\r\n     */\r\n    function _beforeTokenTransfer(\r\n        address from,\r\n        address to,\r\n        uint256 tokenId,\r\n        uint256 batchSize\r\n    ) internal virtual override {\r\n        super._beforeTokenTransfer(from, to, tokenId, batchSize);\r\n\r\n        // Allow minting and burning\r\n        if (from == address(0) || to == address(0)) {\r\n            return;\r\n        }\r\n\r\n        // Check if transferable\r\n        require(transferable[tokenId], \"CredentialNFT: Token is soulbound\");\r\n\r\n        emit CredentialTransferred(tokenId, from, to, block.timestamp);\r\n    }\r\n\r\n    /**\r\n     * @dev Pause contract\r\n     */\r\n    function pause() external {\r\n        require(msg.sender == admin, \"CredentialNFT: Not admin\");\r\n        _pause();\r\n    }\r\n\r\n    /**\r\n     * @dev Unpause contract\r\n     */\r\n    function unpause() external {\r\n        require(msg.sender == admin, \"CredentialNFT: Not admin\");\r\n        _unpause();\r\n    }\r\n}\r\n",
  "sourcePath": "E:\\Projects\\NIT Hacks\\NITHACKS_BLOCKCHAIN\\blockchain\\contracts\\core\\CredentialNFT.sol",
  "compiler": {
    "name": "solc",
    "version": "0.8.20+commit.a1b79de6.Emscripten.clang"
  },
  "schemaVersion": "3.4.16",
  "updatedAt": "2025-11-22T14:27:23.986Z",
  "networkType": "ethereum",
  "devdoc": {
    "details": "Main NFT contract for issuing and managing credentials Extends ERC721 with credential-specific functionality",
    "events": {
      "Approval(address,address,uint256)": {
        "details": "Emitted when `owner` enables `approved` to manage the `tokenId` token."
      },
      "ApprovalForAll(address,address,bool)": {
        "details": "Emitted when `owner` enables or disables (`approved`) `operator` to manage all of its assets."
      },
      "BatchMetadataUpdate(uint256,uint256)": {
        "details": "This event emits when the metadata of a range of tokens is changed. So that the third-party platforms such as NFT market could timely update the images and related attributes of the NFTs."
      },
      "MetadataUpdate(uint256)": {
        "details": "This event emits when the metadata of a token is changed. So that the third-party platforms such as NFT market could timely update the images and related attributes of the NFT."
      },
      "Paused(address)": {
        "details": "Emitted when the pause is triggered by `account`."
      },
      "Transfer(address,address,uint256)": {
        "details": "Emitted when `tokenId` token is transferred from `from` to `to`."
      },
      "Unpaused(address)": {
        "details": "Emitted when the pause is lifted by `account`."
      }
    },
    "kind": "dev",
    "methods": {
      "approve(address,uint256)": {
        "details": "See {IERC721-approve}."
      },
      "balanceOf(address)": {
        "details": "See {IERC721-balanceOf}."
      },
      "credentialExists(uint256)": {
        "details": "Check if a credential exists"
      },
      "getApproved(uint256)": {
        "details": "See {IERC721-getApproved}."
      },
      "getCredential(uint256)": {
        "details": "Get complete credential information"
      },
      "getCredentialStatus(uint256)": {
        "details": "Get credential status"
      },
      "getHolderCredentials(address)": {
        "details": "Get all credentials owned by a holder"
      },
      "getIssuer(uint256)": {
        "details": "Get issuer address for a credential"
      },
      "getIssuerCredentials(address)": {
        "details": "Get all credentials issued by an issuer"
      },
      "getTotalCredentials()": {
        "details": "Get total number of credentials issued"
      },
      "isApprovedForAll(address,address)": {
        "details": "See {IERC721-isApprovedForAll}."
      },
      "isExpired(uint256)": {
        "details": "Check if a credential is expired"
      },
      "isRevoked(uint256)": {
        "details": "Check if a credential is revoked (burned)"
      },
      "isTransferable(uint256)": {
        "details": "Check if credential is transferable"
      },
      "issueCredential(address,uint8,string,uint256,bool,bytes32)": {
        "details": "Issue a new credential NFT to a holder"
      },
      "makeSoulbound(uint256)": {
        "details": "Make credential soulbound (non-transferable)"
      },
      "name()": {
        "details": "See {IERC721Metadata-name}."
      },
      "ownerOf(uint256)": {
        "details": "See {IERC721-ownerOf}."
      },
      "pause()": {
        "details": "Pause contract"
      },
      "paused()": {
        "details": "Returns true if the contract is paused, and false otherwise."
      },
      "renewCredential(uint256,uint256)": {
        "details": "Renew an expirable credential with new expiration date"
      },
      "revokeCredential(uint256,string)": {
        "details": "Revoke a credential (only by original issuer)"
      },
      "safeTransferFrom(address,address,uint256)": {
        "details": "See {IERC721-safeTransferFrom}."
      },
      "safeTransferFrom(address,address,uint256,bytes)": {
        "details": "See {IERC721-safeTransferFrom}."
      },
      "setApprovalForAll(address,bool)": {
        "details": "See {IERC721-setApprovalForAll}."
      },
      "supportsInterface(bytes4)": {
        "details": "See {IERC165-supportsInterface}"
      },
      "symbol()": {
        "details": "See {IERC721Metadata-symbol}."
      },
      "tokenURI(uint256)": {
        "details": "See {IERC721Metadata-tokenURI}."
      },
      "transferFrom(address,address,uint256)": {
        "details": "See {IERC721-transferFrom}."
      },
      "unpause()": {
        "details": "Unpause contract"
      },
      "updateMetadata(uint256,string)": {
        "details": "Update credential metadata URI"
      }
    },
    "title": "CredentialNFT",
    "version": 1
  },
  "userdoc": {
    "kind": "user",
    "methods": {},
    "version": 1
  }
}