{
  "contractName": "DateUtils",
  "abi": [
    {
      "inputs": [],
      "name": "DAYS_PER_YEAR",
      "outputs": [
        {
          "internalType": "uint256",
          "name": "",
          "type": "uint256"
        }
      ],
      "stateMutability": "view",
      "type": "function",
      "constant": true
    },
    {
      "inputs": [],
      "name": "SECONDS_PER_DAY",
      "outputs": [
        {
          "internalType": "uint256",
          "name": "",
          "type": "uint256"
        }
      ],
      "stateMutability": "view",
      "type": "function",
      "constant": true
    },
    {
      "inputs": [],
      "name": "SECONDS_PER_HOUR",
      "outputs": [
        {
          "internalType": "uint256",
          "name": "",
          "type": "uint256"
        }
      ],
      "stateMutability": "view",
      "type": "function",
      "constant": true
    },
    {
      "inputs": [],
      "name": "SECONDS_PER_MINUTE",
      "outputs": [
        {
          "internalType": "uint256",
          "name": "",
          "type": "uint256"
        }
      ],
      "stateMutability": "view",
      "type": "function",
      "constant": true
    },
    {
      "inputs": [],
      "name": "SECONDS_PER_YEAR",
      "outputs": [
        {
          "internalType": "uint256",
          "name": "",
          "type": "uint256"
        }
      ],
      "stateMutability": "view",
      "type": "function",
      "constant": true
    }
  ],
  "bytecode": "0x61010861003a600b82828239805160001a60731461002d57634e487b7160e01b600052600060045260246000fd5b30600052607381538281f3fe7300000000000000000000000000000000000000003014608060405260043610605b5760003560e01c80634df8612614606057806374f0314f14607a578063c6846ef8146083578063e6a69ab814608b578063e9556430146091575b600080fd5b6068610e1081565b60405190815260200160405180910390f35b60686201518081565b606861016d81565b60686098565b6068603c81565b60a56201518061016d60a8565b81565b808202811582820484141760cc57634e487b7160e01b600052601160045260246000fd5b9291505056fea26469706673582212204239781d42b481e0f257bc5610eeb2f1564a39b1607cc7f881a9cddf170bf3e364736f6c63430008140033",
  "immutableReferences": {},
  "source": "// SPDX-License-Identifier: MIT\npragma solidity ^0.8.0;\n\n/**\n * @title DateUtils\n * @dev Library for handling date and time operations for credential expiration\n */\nlibrary DateUtils {\n    \n    // Constants for time calculations\n    uint256 public constant SECONDS_PER_DAY = 86400;\n    uint256 public constant SECONDS_PER_HOUR = 3600;\n    uint256 public constant SECONDS_PER_MINUTE = 60;\n    uint256 public constant DAYS_PER_YEAR = 365;\n    uint256 public constant SECONDS_PER_YEAR = DAYS_PER_YEAR * SECONDS_PER_DAY;\n\n    /**\n     * @dev Check if a credential has expired\n     * @param expirationDate The expiration timestamp (0 means never expires)\n     * @return True if expired, false otherwise\n     */\n    function isExpired(uint256 expirationDate) internal view returns (bool) {\n        // If expiration date is 0, credential never expires\n        if (expirationDate == 0) {\n            return false;\n        }\n        return block.timestamp > expirationDate;\n    }\n\n    /**\n     * @dev Check if a credential is still valid (not expired)\n     * @param expirationDate The expiration timestamp\n     * @return True if valid, false if expired\n     */\n    function isValid(uint256 expirationDate) internal view returns (bool) {\n        return !isExpired(expirationDate);\n    }\n\n    /**\n     * @dev Get the current block timestamp\n     * @return Current timestamp\n     */\n    function getCurrentTimestamp() internal view returns (uint256) {\n        return block.timestamp;\n    }\n\n    /**\n     * @dev Calculate expiration date from issue date and duration in days\n     * @param issueDate The timestamp when credential was issued\n     * @param durationInDays Number of days until expiration\n     * @return Expiration timestamp\n     */\n    function calculateExpirationDate(uint256 issueDate, uint256 durationInDays) \n        internal \n        pure \n        returns (uint256) \n    {\n        require(issueDate > 0, \"DateUtils: Invalid issue date\");\n        require(durationInDays > 0, \"DateUtils: Duration must be positive\");\n        \n        return issueDate + (durationInDays * SECONDS_PER_DAY);\n    }\n\n    /**\n     * @dev Calculate expiration date from current time and duration in days\n     * @param durationInDays Number of days from now until expiration\n     * @return Expiration timestamp\n     */\n    function calculateExpirationFromNow(uint256 durationInDays) \n        internal \n        view \n        returns (uint256) \n    {\n        return calculateExpirationDate(block.timestamp, durationInDays);\n    }\n\n    /**\n     * @dev Calculate expiration date for a given number of years from issue date\n     * @param issueDate The timestamp when credential was issued\n     * @param _years Number of years until expiration\n     * @return Expiration timestamp\n     */\n    function calculateExpirationInYears(uint256 issueDate, uint256 _years) \n        internal \n        pure \n        returns (uint256) \n    {\n        require(issueDate > 0, \"DateUtils: Invalid issue date\");\n        require(_years > 0, \"DateUtils: Years must be positive\");\n        \n        return issueDate + (_years * SECONDS_PER_YEAR);\n    }\n\n    /**\n     * @dev Get remaining time until expiration in seconds\n     * @param expirationDate The expiration timestamp\n     * @return Remaining seconds (0 if already expired or never expires)\n     */\n    function getRemainingTime(uint256 expirationDate) \n        internal \n        view \n        returns (uint256) \n    {\n        if (expirationDate == 0 || block.timestamp >= expirationDate) {\n            return 0;\n        }\n        return expirationDate - block.timestamp;\n    }\n\n    /**\n     * @dev Get remaining days until expiration\n     * @param expirationDate The expiration timestamp\n     * @return Remaining days (0 if already expired or never expires)\n     */\n    function getRemainingDays(uint256 expirationDate) \n        internal \n        view \n        returns (uint256) \n    {\n        uint256 remainingSeconds = getRemainingTime(expirationDate);\n        return remainingSeconds / SECONDS_PER_DAY;\n    }\n\n    /**\n     * @dev Check if expiration date is within a certain number of days\n     * @param expirationDate The expiration timestamp\n     * @param daysThreshold Number of days to check against\n     * @return True if expiration is within threshold, false otherwise\n     */\n    function isExpiringWithin(uint256 expirationDate, uint256 daysThreshold) \n        internal \n        view \n        returns (bool) \n    {\n        if (expirationDate == 0) {\n            return false; // Never expires\n        }\n        \n        uint256 thresholdTimestamp = block.timestamp + (daysThreshold * SECONDS_PER_DAY);\n        return expirationDate <= thresholdTimestamp;\n    }\n\n    /**\n     * @dev Validate that expiration date is in the future\n     * @param expirationDate The expiration timestamp to validate\n     * @return True if valid (in future or 0), false otherwise\n     */\n    function isValidExpirationDate(uint256 expirationDate) \n        internal \n        view \n        returns (bool) \n    {\n        // 0 means never expires (valid)\n        if (expirationDate == 0) {\n            return true;\n        }\n        // Must be in the future\n        return expirationDate > block.timestamp;\n    }\n\n    /**\n     * @dev Validate that issue date is not in the future\n     * @param issueDate The issue timestamp to validate\n     * @return True if valid (past or present), false otherwise\n     */\n    function isValidIssueDate(uint256 issueDate) \n        internal \n        view \n        returns (bool) \n    {\n        return issueDate > 0 && issueDate <= block.timestamp;\n    }\n\n    /**\n     * @dev Add days to a given timestamp\n     * @param timestamp The base timestamp\n     * @param daysToAdd Number of days to add\n     * @return New timestamp\n     */\n    function addDays(uint256 timestamp, uint256 daysToAdd) \n        internal \n        pure \n        returns (uint256) \n    {\n        return timestamp + (daysToAdd * SECONDS_PER_DAY);\n    }\n\n    /**\n     * @dev Add years to a given timestamp\n     * @param timestamp The base timestamp\n     * @param yearsToAdd Number of years to add\n     * @return New timestamp\n     */\n    function addYears(uint256 timestamp, uint256 yearsToAdd) \n        internal \n        pure \n        returns (uint256) \n    {\n        return timestamp + (yearsToAdd * SECONDS_PER_YEAR);\n    }\n}\n",
  "sourcePath": "/home/shubham/dev/hackathon/NITHACKS_BLOCKCHAIN/blockchain/contracts/libraries/DateUtils.sol",
  "compiler": {
    "name": "solc",
    "version": "0.8.20+commit.a1b79de6.Emscripten.clang"
  },
  "schemaVersion": "3.4.16",
  "updatedAt": "2025-11-22T20:06:35.255Z",
  "networkType": "ethereum",
  "devdoc": {
    "details": "Library for handling date and time operations for credential expiration",
    "kind": "dev",
    "methods": {},
    "title": "DateUtils",
    "version": 1
  },
  "userdoc": {
    "kind": "user",
    "methods": {},
    "version": 1
  }
}