{
  "contractName": "DateUtils",
  "abi": [
    {
      "inputs": [],
      "name": "DAYS_PER_YEAR",
      "outputs": [
        {
          "internalType": "uint256",
          "name": "",
          "type": "uint256"
        }
      ],
      "stateMutability": "view",
      "type": "function",
      "constant": true
    },
    {
      "inputs": [],
      "name": "SECONDS_PER_DAY",
      "outputs": [
        {
          "internalType": "uint256",
          "name": "",
          "type": "uint256"
        }
      ],
      "stateMutability": "view",
      "type": "function",
      "constant": true
    },
    {
      "inputs": [],
      "name": "SECONDS_PER_HOUR",
      "outputs": [
        {
          "internalType": "uint256",
          "name": "",
          "type": "uint256"
        }
      ],
      "stateMutability": "view",
      "type": "function",
      "constant": true
    },
    {
      "inputs": [],
      "name": "SECONDS_PER_MINUTE",
      "outputs": [
        {
          "internalType": "uint256",
          "name": "",
          "type": "uint256"
        }
      ],
      "stateMutability": "view",
      "type": "function",
      "constant": true
    },
    {
      "inputs": [],
      "name": "SECONDS_PER_YEAR",
      "outputs": [
        {
          "internalType": "uint256",
          "name": "",
          "type": "uint256"
        }
      ],
      "stateMutability": "view",
      "type": "function",
      "constant": true
    }
  ],
  "bytecode": "0x61010861003a600b82828239805160001a60731461002d57634e487b7160e01b600052600060045260246000fd5b30600052607381538281f3fe7300000000000000000000000000000000000000003014608060405260043610605b5760003560e01c80634df8612614606057806374f0314f14607a578063c6846ef8146083578063e6a69ab814608b578063e9556430146091575b600080fd5b6068610e1081565b60405190815260200160405180910390f35b60686201518081565b606861016d81565b60686098565b6068603c81565b60a56201518061016d60a8565b81565b808202811582820484141760cc57634e487b7160e01b600052601160045260246000fd5b9291505056fea26469706673582212208094e4373396eb0ea58887f935ac7ed32cab798bfd2e79bb990241242fd856b764736f6c63430008140033",
  "immutableReferences": {},
  "source": "// SPDX-License-Identifier: MIT\r\npragma solidity ^0.8.0;\r\n\r\n/**\r\n * @title DateUtils\r\n * @dev Library for handling date and time operations for credential expiration\r\n */\r\nlibrary DateUtils {\r\n    \r\n    // Constants for time calculations\r\n    uint256 public constant SECONDS_PER_DAY = 86400;\r\n    uint256 public constant SECONDS_PER_HOUR = 3600;\r\n    uint256 public constant SECONDS_PER_MINUTE = 60;\r\n    uint256 public constant DAYS_PER_YEAR = 365;\r\n    uint256 public constant SECONDS_PER_YEAR = DAYS_PER_YEAR * SECONDS_PER_DAY;\r\n\r\n    /**\r\n     * @dev Check if a credential has expired\r\n     * @param expirationDate The expiration timestamp (0 means never expires)\r\n     * @return True if expired, false otherwise\r\n     */\r\n    function isExpired(uint256 expirationDate) internal view returns (bool) {\r\n        // If expiration date is 0, credential never expires\r\n        if (expirationDate == 0) {\r\n            return false;\r\n        }\r\n        return block.timestamp > expirationDate;\r\n    }\r\n\r\n    /**\r\n     * @dev Check if a credential is still valid (not expired)\r\n     * @param expirationDate The expiration timestamp\r\n     * @return True if valid, false if expired\r\n     */\r\n    function isValid(uint256 expirationDate) internal view returns (bool) {\r\n        return !isExpired(expirationDate);\r\n    }\r\n\r\n    /**\r\n     * @dev Get the current block timestamp\r\n     * @return Current timestamp\r\n     */\r\n    function getCurrentTimestamp() internal view returns (uint256) {\r\n        return block.timestamp;\r\n    }\r\n\r\n    /**\r\n     * @dev Calculate expiration date from issue date and duration in days\r\n     * @param issueDate The timestamp when credential was issued\r\n     * @param durationInDays Number of days until expiration\r\n     * @return Expiration timestamp\r\n     */\r\n    function calculateExpirationDate(uint256 issueDate, uint256 durationInDays) \r\n        internal \r\n        pure \r\n        returns (uint256) \r\n    {\r\n        require(issueDate > 0, \"DateUtils: Invalid issue date\");\r\n        require(durationInDays > 0, \"DateUtils: Duration must be positive\");\r\n        \r\n        return issueDate + (durationInDays * SECONDS_PER_DAY);\r\n    }\r\n\r\n    /**\r\n     * @dev Calculate expiration date from current time and duration in days\r\n     * @param durationInDays Number of days from now until expiration\r\n     * @return Expiration timestamp\r\n     */\r\n    function calculateExpirationFromNow(uint256 durationInDays) \r\n        internal \r\n        view \r\n        returns (uint256) \r\n    {\r\n        return calculateExpirationDate(block.timestamp, durationInDays);\r\n    }\r\n\r\n    /**\r\n     * @dev Calculate expiration date for a given number of years from issue date\r\n     * @param issueDate The timestamp when credential was issued\r\n     * @param _years Number of years until expiration\r\n     * @return Expiration timestamp\r\n     */\r\n    function calculateExpirationInYears(uint256 issueDate, uint256 _years) \r\n        internal \r\n        pure \r\n        returns (uint256) \r\n    {\r\n        require(issueDate > 0, \"DateUtils: Invalid issue date\");\r\n        require(_years > 0, \"DateUtils: Years must be positive\");\r\n        \r\n        return issueDate + (_years * SECONDS_PER_YEAR);\r\n    }\r\n\r\n    /**\r\n     * @dev Get remaining time until expiration in seconds\r\n     * @param expirationDate The expiration timestamp\r\n     * @return Remaining seconds (0 if already expired or never expires)\r\n     */\r\n    function getRemainingTime(uint256 expirationDate) \r\n        internal \r\n        view \r\n        returns (uint256) \r\n    {\r\n        if (expirationDate == 0 || block.timestamp >= expirationDate) {\r\n            return 0;\r\n        }\r\n        return expirationDate - block.timestamp;\r\n    }\r\n\r\n    /**\r\n     * @dev Get remaining days until expiration\r\n     * @param expirationDate The expiration timestamp\r\n     * @return Remaining days (0 if already expired or never expires)\r\n     */\r\n    function getRemainingDays(uint256 expirationDate) \r\n        internal \r\n        view \r\n        returns (uint256) \r\n    {\r\n        uint256 remainingSeconds = getRemainingTime(expirationDate);\r\n        return remainingSeconds / SECONDS_PER_DAY;\r\n    }\r\n\r\n    /**\r\n     * @dev Check if expiration date is within a certain number of days\r\n     * @param expirationDate The expiration timestamp\r\n     * @param daysThreshold Number of days to check against\r\n     * @return True if expiration is within threshold, false otherwise\r\n     */\r\n    function isExpiringWithin(uint256 expirationDate, uint256 daysThreshold) \r\n        internal \r\n        view \r\n        returns (bool) \r\n    {\r\n        if (expirationDate == 0) {\r\n            return false; // Never expires\r\n        }\r\n        \r\n        uint256 thresholdTimestamp = block.timestamp + (daysThreshold * SECONDS_PER_DAY);\r\n        return expirationDate <= thresholdTimestamp;\r\n    }\r\n\r\n    /**\r\n     * @dev Validate that expiration date is in the future\r\n     * @param expirationDate The expiration timestamp to validate\r\n     * @return True if valid (in future or 0), false otherwise\r\n     */\r\n    function isValidExpirationDate(uint256 expirationDate) \r\n        internal \r\n        view \r\n        returns (bool) \r\n    {\r\n        // 0 means never expires (valid)\r\n        if (expirationDate == 0) {\r\n            return true;\r\n        }\r\n        // Must be in the future\r\n        return expirationDate > block.timestamp;\r\n    }\r\n\r\n    /**\r\n     * @dev Validate that issue date is not in the future\r\n     * @param issueDate The issue timestamp to validate\r\n     * @return True if valid (past or present), false otherwise\r\n     */\r\n    function isValidIssueDate(uint256 issueDate) \r\n        internal \r\n        view \r\n        returns (bool) \r\n    {\r\n        return issueDate > 0 && issueDate <= block.timestamp;\r\n    }\r\n\r\n    /**\r\n     * @dev Add days to a given timestamp\r\n     * @param timestamp The base timestamp\r\n     * @param daysToAdd Number of days to add\r\n     * @return New timestamp\r\n     */\r\n    function addDays(uint256 timestamp, uint256 daysToAdd) \r\n        internal \r\n        pure \r\n        returns (uint256) \r\n    {\r\n        return timestamp + (daysToAdd * SECONDS_PER_DAY);\r\n    }\r\n\r\n    /**\r\n     * @dev Add years to a given timestamp\r\n     * @param timestamp The base timestamp\r\n     * @param yearsToAdd Number of years to add\r\n     * @return New timestamp\r\n     */\r\n    function addYears(uint256 timestamp, uint256 yearsToAdd) \r\n        internal \r\n        pure \r\n        returns (uint256) \r\n    {\r\n        return timestamp + (yearsToAdd * SECONDS_PER_YEAR);\r\n    }\r\n}\r\n",
  "sourcePath": "E:\\Projects\\NIT Hacks\\NITHACKS_BLOCKCHAIN\\blockchain\\contracts\\libraries\\DateUtils.sol",
  "compiler": {
    "name": "solc",
    "version": "0.8.20+commit.a1b79de6.Emscripten.clang"
  },
  "schemaVersion": "3.4.16",
  "updatedAt": "2025-11-22T14:27:19.512Z",
  "networkType": "ethereum",
  "devdoc": {
    "details": "Library for handling date and time operations for credential expiration",
    "kind": "dev",
    "methods": {},
    "title": "DateUtils",
    "version": 1
  },
  "userdoc": {
    "kind": "user",
    "methods": {},
    "version": 1
  }
}