{
  "contractName": "GovernanceHelper",
  "abi": [
    {
      "inputs": [
        {
          "internalType": "address",
          "name": "_daoAddress",
          "type": "address"
        },
        {
          "internalType": "address",
          "name": "_timelockAddress",
          "type": "address"
        },
        {
          "internalType": "address",
          "name": "_issuerRegistryAddress",
          "type": "address"
        }
      ],
      "stateMutability": "nonpayable",
      "type": "constructor"
    },
    {
      "anonymous": false,
      "inputs": [
        {
          "indexed": true,
          "internalType": "address",
          "name": "dao",
          "type": "address"
        },
        {
          "indexed": true,
          "internalType": "address",
          "name": "timelock",
          "type": "address"
        },
        {
          "indexed": true,
          "internalType": "address",
          "name": "issuerRegistry",
          "type": "address"
        }
      ],
      "name": "GovernanceSetup",
      "type": "event"
    },
    {
      "inputs": [],
      "name": "dao",
      "outputs": [
        {
          "internalType": "contract IssuerDAO",
          "name": "",
          "type": "address"
        }
      ],
      "stateMutability": "view",
      "type": "function",
      "constant": true
    },
    {
      "inputs": [],
      "name": "issuerRegistry",
      "outputs": [
        {
          "internalType": "contract IIssuer",
          "name": "",
          "type": "address"
        }
      ],
      "stateMutability": "view",
      "type": "function",
      "constant": true
    },
    {
      "inputs": [],
      "name": "timelock",
      "outputs": [
        {
          "internalType": "contract Timelock",
          "name": "",
          "type": "address"
        }
      ],
      "stateMutability": "view",
      "type": "function",
      "constant": true
    },
    {
      "inputs": [
        {
          "internalType": "uint256",
          "name": "proposalId",
          "type": "uint256"
        }
      ],
      "name": "getProposalInfo",
      "outputs": [
        {
          "internalType": "uint256",
          "name": "id",
          "type": "uint256"
        },
        {
          "internalType": "address",
          "name": "proposer",
          "type": "address"
        },
        {
          "internalType": "enum IssuerDAO.ProposalAction",
          "name": "action",
          "type": "uint8"
        },
        {
          "internalType": "address",
          "name": "targetIssuer",
          "type": "address"
        },
        {
          "internalType": "string",
          "name": "description",
          "type": "string"
        },
        {
          "internalType": "uint256",
          "name": "forVotes",
          "type": "uint256"
        },
        {
          "internalType": "uint256",
          "name": "againstVotes",
          "type": "uint256"
        },
        {
          "internalType": "uint256",
          "name": "abstainVotes",
          "type": "uint256"
        },
        {
          "internalType": "enum IssuerDAO.ProposalState",
          "name": "currentState",
          "type": "uint8"
        },
        {
          "internalType": "uint256",
          "name": "eta",
          "type": "uint256"
        }
      ],
      "stateMutability": "view",
      "type": "function",
      "constant": true
    },
    {
      "inputs": [
        {
          "internalType": "address",
          "name": "voter",
          "type": "address"
        }
      ],
      "name": "canCreateProposal",
      "outputs": [
        {
          "internalType": "bool",
          "name": "",
          "type": "bool"
        }
      ],
      "stateMutability": "view",
      "type": "function",
      "constant": true
    },
    {
      "inputs": [
        {
          "internalType": "address",
          "name": "voter",
          "type": "address"
        }
      ],
      "name": "getVotingStats",
      "outputs": [
        {
          "internalType": "uint256",
          "name": "votingPower",
          "type": "uint256"
        },
        {
          "internalType": "uint256",
          "name": "proposalsCreated",
          "type": "uint256"
        },
        {
          "internalType": "uint256",
          "name": "votesParticipated",
          "type": "uint256"
        },
        {
          "internalType": "bool",
          "name": "isActive",
          "type": "bool"
        }
      ],
      "stateMutability": "view",
      "type": "function",
      "constant": true
    }
  ],
  "bytecode": "0x608060405234801561001057600080fd5b50604051610a76380380610a7683398101604081905261002f916101f5565b6001600160a01b0383166100985760405162461bcd60e51b815260206004820152602560248201527f476f7665726e616e636548656c7065723a20496e76616c69642044414f206164604482015264647265737360d81b60648201526084015b60405180910390fd5b6001600160a01b0382166101015760405162461bcd60e51b815260206004820152602a60248201527f476f7665726e616e636548656c7065723a20496e76616c69642074696d656c6f604482015269636b206164647265737360b01b606482015260840161008f565b6001600160a01b03811661016a5760405162461bcd60e51b815260206004820152602a60248201527f476f7665726e616e636548656c7065723a20496e76616c6964207265676973746044820152697279206164647265737360b01b606482015260840161008f565b600080546001600160a01b03199081166001600160a01b0386811691821784556001805484168783169081179091556002805490941691861691821790935560405190937f0b1817c575777fe747a03c64d13a6eb9a4b32019b552d9e6aa0ba46eb5d1891f91a4505050610238565b80516001600160a01b03811681146101f057600080fd5b919050565b60008060006060848603121561020a57600080fd5b610213846101d9565b9250610221602085016101d9565b915061022f604085016101d9565b90509250925092565b61082f806102476000396000f3fe608060405234801561001057600080fd5b50600436106100625760003560e01c80634162169f1461006757806373098faf146100975780638bfc1851146100ba57806391996ff2146100cd578063bc903cb814610102578063d33219b41461012b575b600080fd5b60005461007a906001600160a01b031681565b6040516001600160a01b0390911681526020015b60405180910390f35b6100aa6100a5366004610435565b61013e565b604051901515815260200161008e565b60025461007a906001600160a01b031681565b6100e06100db366004610435565b610240565b604080519485526020850193909352918301521515606082015260800161008e565b610115610110366004610459565b6102c5565b60405161008e9a999897969594939291906104c0565b60015461007a906001600160a01b031681565b6000805460405163a3ec138d60e01b81526001600160a01b0384811660048301528392839291169063a3ec138d9060240160a060405180830381865afa15801561018c573d6000803e3d6000fd5b505050506040513d601f19601f820116820180604052508101906101b09190610580565b94505050925050808015610238575060008054906101000a90046001600160a01b03166001600160a01b031663b58131b06040518163ffffffff1660e01b8152600401602060405180830381865afa158015610210573d6000803e3d6000fd5b505050506040513d601f19601f8201168201806040525081019061023491906105d4565b8210155b949350505050565b6000805460405163a3ec138d60e01b81526001600160a01b0384811660048301528392839283929091169063a3ec138d9060240160a060405180830381865afa158015610291573d6000803e3d6000fd5b505050506040513d601f19601f820116820180604052508101906102b59190610580565b9299919850965090945092505050565b600080600080606060008060008060008060008054906101000a90046001600160a01b03166001600160a01b031663c7f758a88d6040518263ffffffff1660e01b815260040161031791815260200190565b600060405180830381865afa158015610334573d6000803e3d6000fd5b505050506040513d6000823e601f3d908101601f1916820160405261035c91908101906106c4565b600054604051631f27a4f360e11b8152600481018f90529192506001600160a01b031690633e4f49e690602401602060405180830381865afa1580156103a6573d6000803e3d6000fd5b505050506040513d601f19601f820116820180604052508101906103ca91906107d8565b9250806000015181602001518260400151836060015184608001518560a001518660c001518760e001518a8961014001519a509a509a509a509a509a509a509a509a509a50509193959799509193959799565b6001600160a01b038116811461043257600080fd5b50565b60006020828403121561044757600080fd5b81356104528161041d565b9392505050565b60006020828403121561046b57600080fd5b5035919050565b634e487b7160e01b600052602160045260246000fd5b60005b838110156104a357818101518382015260200161048b565b50506000910152565b600881106104bc576104bc610472565b9052565b8a81526001600160a01b038a811660208301526000906101409060068c106104ea576104ea610472565b8b6040850152808b1660608501525080608084015288518082850152610160915061051b8183860160208d01610488565b60a0840189905260c0840188905260e08401879052601f01601f1916830101905061054a6101008301856104ac565b826101208301529b9a5050505050505050505050565b805161056b8161041d565b919050565b8051801515811461056b57600080fd5b600080600080600060a0868803121561059857600080fd5b85516105a38161041d565b809550506020860151935060408601519250606086015191506105c860808701610570565b90509295509295909350565b6000602082840312156105e657600080fd5b5051919050565b634e487b7160e01b600052604160045260246000fd5b6040516101a0810167ffffffffffffffff81118282101715610627576106276105ed565b60405290565b80516006811061056b57600080fd5b600082601f83011261064d57600080fd5b815167ffffffffffffffff80821115610668576106686105ed565b604051601f8301601f19908116603f01168101908282118183101715610690576106906105ed565b816040528381528660208588010111156106a957600080fd5b6106ba846020830160208901610488565b9695505050505050565b6000602082840312156106d657600080fd5b815167ffffffffffffffff808211156106ee57600080fd5b908301906101a0828603121561070357600080fd5b61070b610603565b8251815261071b60208401610560565b602082015261072c6040840161062d565b604082015261073d60608401610560565b606082015260808301518281111561075457600080fd5b6107608782860161063c565b60808301525060a0838101519082015260c0808401519082015260e0808401519082015261010080840151908201526101208084015190820152610140808401519082015261016091506107b5828401610570565b8282015261018091506107c9828401610570565b91810191909152949350505050565b6000602082840312156107ea57600080fd5b81516008811061045257600080fdfea2646970667358221220767a75816d68d395b748a4b18d16ec57f4319c03a5c772ac03f2ed0eacee7ec064736f6c63430008140033",
  "immutableReferences": {},
  "source": "// SPDX-License-Identifier: MIT\npragma solidity ^0.8.0;\n\nimport \"./IssuerDAO.sol\";\nimport \"./Timelock.sol\";\nimport \"../interfaces/IIssuer.sol\";\n\n/**\n * @title GovernanceHelper\n * @dev Helper contract for governance operations\n */\ncontract GovernanceHelper {\n    IssuerDAO public dao;\n    Timelock public timelock;\n    IIssuer public issuerRegistry;\n\n    event GovernanceSetup(\n        address indexed dao,\n        address indexed timelock,\n        address indexed issuerRegistry\n    );\n\n    constructor(\n        address _daoAddress,\n        address _timelockAddress,\n        address _issuerRegistryAddress\n    ) {\n        require(\n            _daoAddress != address(0),\n            \"GovernanceHelper: Invalid DAO address\"\n        );\n        require(\n            _timelockAddress != address(0),\n            \"GovernanceHelper: Invalid timelock address\"\n        );\n        require(\n            _issuerRegistryAddress != address(0),\n            \"GovernanceHelper: Invalid registry address\"\n        );\n\n        dao = IssuerDAO(_daoAddress);\n        timelock = Timelock(payable(_timelockAddress));\n        issuerRegistry = IIssuer(_issuerRegistryAddress);\n\n        emit GovernanceSetup(\n            _daoAddress,\n            _timelockAddress,\n            _issuerRegistryAddress\n        );\n    }\n\n    /**\n     * @dev Get complete proposal info with state\n     */\n    function getProposalInfo(\n        uint256 proposalId\n    )\n        external\n        view\n        returns (\n            uint256 id,\n            address proposer,\n            IssuerDAO.ProposalAction action,\n            address targetIssuer,\n            string memory description,\n            uint256 forVotes,\n            uint256 againstVotes,\n            uint256 abstainVotes,\n            IssuerDAO.ProposalState currentState,\n            uint256 eta\n        )\n    {\n        IssuerDAO.ProposalView memory p = dao.getProposal(proposalId);\n        currentState = dao.state(proposalId);\n\n        return (\n            p.id,\n            p.proposer,\n            p.action,\n            p.targetIssuer,\n            p.description,\n            p.forVotes,\n            p.againstVotes,\n            p.abstainVotes,\n            currentState,\n            p.eta\n        );\n    }\n\n    /**\n     * @dev Check if address can create proposals\n     */\n    function canCreateProposal(address voter) external view returns (bool) {\n        (, uint256 votingPower, , , bool isActive) = dao.voters(voter);\n        return isActive && votingPower >= dao.proposalThreshold();\n    }\n\n    /**\n     * @dev Get voting stats for an address\n     */\n    function getVotingStats(\n        address voter\n    )\n        external\n        view\n        returns (\n            uint256 votingPower,\n            uint256 proposalsCreated,\n            uint256 votesParticipated,\n            bool isActive\n        )\n    {\n        (, votingPower, proposalsCreated, votesParticipated, isActive) = dao\n            .voters(voter);\n        return (votingPower, proposalsCreated, votesParticipated, isActive);\n    }\n}\n",
  "sourcePath": "/home/shubham/dev/hackathon/NITHACKS_BLOCKCHAIN/blockchain/contracts/governance/GovernanceHelper.sol",
  "compiler": {
    "name": "solc",
    "version": "0.8.20+commit.a1b79de6.Emscripten.clang"
  },
  "schemaVersion": "3.4.16",
  "updatedAt": "2025-11-22T20:06:37.213Z",
  "networkType": "ethereum",
  "devdoc": {
    "details": "Helper contract for governance operations",
    "kind": "dev",
    "methods": {
      "canCreateProposal(address)": {
        "details": "Check if address can create proposals"
      },
      "getProposalInfo(uint256)": {
        "details": "Get complete proposal info with state"
      },
      "getVotingStats(address)": {
        "details": "Get voting stats for an address"
      }
    },
    "title": "GovernanceHelper",
    "version": 1
  },
  "userdoc": {
    "kind": "user",
    "methods": {},
    "version": 1
  }
}