{
  "contractName": "IssuerDAO",
  "abi": [
    {
      "inputs": [
        {
          "internalType": "address",
          "name": "_issuerRegistryAddress",
          "type": "address"
        },
        {
          "internalType": "address",
          "name": "_timelockAddress",
          "type": "address"
        }
      ],
      "stateMutability": "nonpayable",
      "type": "constructor"
    },
    {
      "anonymous": false,
      "inputs": [
        {
          "indexed": false,
          "internalType": "address",
          "name": "account",
          "type": "address"
        }
      ],
      "name": "Paused",
      "type": "event"
    },
    {
      "anonymous": false,
      "inputs": [
        {
          "indexed": true,
          "internalType": "uint256",
          "name": "proposalId",
          "type": "uint256"
        }
      ],
      "name": "ProposalCanceled",
      "type": "event"
    },
    {
      "anonymous": false,
      "inputs": [
        {
          "indexed": true,
          "internalType": "uint256",
          "name": "proposalId",
          "type": "uint256"
        },
        {
          "indexed": true,
          "internalType": "address",
          "name": "proposer",
          "type": "address"
        },
        {
          "indexed": false,
          "internalType": "enum IssuerDAO.ProposalAction",
          "name": "action",
          "type": "uint8"
        },
        {
          "indexed": false,
          "internalType": "address",
          "name": "targetIssuer",
          "type": "address"
        },
        {
          "indexed": false,
          "internalType": "uint256",
          "name": "startBlock",
          "type": "uint256"
        },
        {
          "indexed": false,
          "internalType": "uint256",
          "name": "endBlock",
          "type": "uint256"
        },
        {
          "indexed": false,
          "internalType": "string",
          "name": "description",
          "type": "string"
        }
      ],
      "name": "ProposalCreated",
      "type": "event"
    },
    {
      "anonymous": false,
      "inputs": [
        {
          "indexed": true,
          "internalType": "uint256",
          "name": "proposalId",
          "type": "uint256"
        }
      ],
      "name": "ProposalExecuted",
      "type": "event"
    },
    {
      "anonymous": false,
      "inputs": [
        {
          "indexed": true,
          "internalType": "uint256",
          "name": "proposalId",
          "type": "uint256"
        },
        {
          "indexed": false,
          "internalType": "uint256",
          "name": "eta",
          "type": "uint256"
        }
      ],
      "name": "ProposalQueued",
      "type": "event"
    },
    {
      "anonymous": false,
      "inputs": [
        {
          "indexed": true,
          "internalType": "bytes32",
          "name": "role",
          "type": "bytes32"
        },
        {
          "indexed": true,
          "internalType": "bytes32",
          "name": "previousAdminRole",
          "type": "bytes32"
        },
        {
          "indexed": true,
          "internalType": "bytes32",
          "name": "newAdminRole",
          "type": "bytes32"
        }
      ],
      "name": "RoleAdminChanged",
      "type": "event"
    },
    {
      "anonymous": false,
      "inputs": [
        {
          "indexed": true,
          "internalType": "bytes32",
          "name": "role",
          "type": "bytes32"
        },
        {
          "indexed": true,
          "internalType": "address",
          "name": "account",
          "type": "address"
        },
        {
          "indexed": true,
          "internalType": "address",
          "name": "sender",
          "type": "address"
        }
      ],
      "name": "RoleGranted",
      "type": "event"
    },
    {
      "anonymous": false,
      "inputs": [
        {
          "indexed": true,
          "internalType": "bytes32",
          "name": "role",
          "type": "bytes32"
        },
        {
          "indexed": true,
          "internalType": "address",
          "name": "account",
          "type": "address"
        },
        {
          "indexed": true,
          "internalType": "address",
          "name": "sender",
          "type": "address"
        }
      ],
      "name": "RoleRevoked",
      "type": "event"
    },
    {
      "anonymous": false,
      "inputs": [
        {
          "indexed": false,
          "internalType": "address",
          "name": "account",
          "type": "address"
        }
      ],
      "name": "Unpaused",
      "type": "event"
    },
    {
      "anonymous": false,
      "inputs": [
        {
          "indexed": true,
          "internalType": "address",
          "name": "voter",
          "type": "address"
        },
        {
          "indexed": true,
          "internalType": "uint256",
          "name": "proposalId",
          "type": "uint256"
        },
        {
          "indexed": false,
          "internalType": "uint8",
          "name": "support",
          "type": "uint8"
        },
        {
          "indexed": false,
          "internalType": "uint256",
          "name": "votes",
          "type": "uint256"
        },
        {
          "indexed": false,
          "internalType": "string",
          "name": "reason",
          "type": "string"
        }
      ],
      "name": "VoteCast",
      "type": "event"
    },
    {
      "anonymous": false,
      "inputs": [
        {
          "indexed": true,
          "internalType": "address",
          "name": "voter",
          "type": "address"
        },
        {
          "indexed": false,
          "internalType": "uint256",
          "name": "votingPower",
          "type": "uint256"
        }
      ],
      "name": "VoterAdded",
      "type": "event"
    },
    {
      "anonymous": false,
      "inputs": [
        {
          "indexed": true,
          "internalType": "address",
          "name": "voter",
          "type": "address"
        }
      ],
      "name": "VoterRemoved",
      "type": "event"
    },
    {
      "anonymous": false,
      "inputs": [
        {
          "indexed": true,
          "internalType": "address",
          "name": "voter",
          "type": "address"
        },
        {
          "indexed": false,
          "internalType": "uint256",
          "name": "newVotingPower",
          "type": "uint256"
        }
      ],
      "name": "VotingPowerUpdated",
      "type": "event"
    },
    {
      "inputs": [],
      "name": "ADMIN_ROLE",
      "outputs": [
        {
          "internalType": "bytes32",
          "name": "",
          "type": "bytes32"
        }
      ],
      "stateMutability": "view",
      "type": "function",
      "constant": true
    },
    {
      "inputs": [],
      "name": "DEFAULT_ADMIN_ROLE",
      "outputs": [
        {
          "internalType": "bytes32",
          "name": "",
          "type": "bytes32"
        }
      ],
      "stateMutability": "view",
      "type": "function",
      "constant": true
    },
    {
      "inputs": [],
      "name": "VOTER_ROLE",
      "outputs": [
        {
          "internalType": "bytes32",
          "name": "",
          "type": "bytes32"
        }
      ],
      "stateMutability": "view",
      "type": "function",
      "constant": true
    },
    {
      "inputs": [
        {
          "internalType": "bytes32",
          "name": "role",
          "type": "bytes32"
        }
      ],
      "name": "getRoleAdmin",
      "outputs": [
        {
          "internalType": "bytes32",
          "name": "",
          "type": "bytes32"
        }
      ],
      "stateMutability": "view",
      "type": "function",
      "constant": true
    },
    {
      "inputs": [
        {
          "internalType": "bytes32",
          "name": "role",
          "type": "bytes32"
        },
        {
          "internalType": "address",
          "name": "account",
          "type": "address"
        }
      ],
      "name": "grantRole",
      "outputs": [],
      "stateMutability": "nonpayable",
      "type": "function"
    },
    {
      "inputs": [
        {
          "internalType": "bytes32",
          "name": "role",
          "type": "bytes32"
        },
        {
          "internalType": "address",
          "name": "account",
          "type": "address"
        }
      ],
      "name": "hasRole",
      "outputs": [
        {
          "internalType": "bool",
          "name": "",
          "type": "bool"
        }
      ],
      "stateMutability": "view",
      "type": "function",
      "constant": true
    },
    {
      "inputs": [],
      "name": "issuerRegistry",
      "outputs": [
        {
          "internalType": "contract IIssuer",
          "name": "",
          "type": "address"
        }
      ],
      "stateMutability": "view",
      "type": "function",
      "constant": true
    },
    {
      "inputs": [],
      "name": "paused",
      "outputs": [
        {
          "internalType": "bool",
          "name": "",
          "type": "bool"
        }
      ],
      "stateMutability": "view",
      "type": "function",
      "constant": true
    },
    {
      "inputs": [],
      "name": "proposalCount",
      "outputs": [
        {
          "internalType": "uint256",
          "name": "",
          "type": "uint256"
        }
      ],
      "stateMutability": "view",
      "type": "function",
      "constant": true
    },
    {
      "inputs": [],
      "name": "proposalThreshold",
      "outputs": [
        {
          "internalType": "uint256",
          "name": "",
          "type": "uint256"
        }
      ],
      "stateMutability": "view",
      "type": "function",
      "constant": true
    },
    {
      "inputs": [
        {
          "internalType": "uint256",
          "name": "",
          "type": "uint256"
        }
      ],
      "name": "proposals",
      "outputs": [
        {
          "internalType": "uint256",
          "name": "id",
          "type": "uint256"
        },
        {
          "internalType": "address",
          "name": "proposer",
          "type": "address"
        },
        {
          "internalType": "enum IssuerDAO.ProposalAction",
          "name": "action",
          "type": "uint8"
        },
        {
          "internalType": "address",
          "name": "targetIssuer",
          "type": "address"
        },
        {
          "internalType": "string",
          "name": "description",
          "type": "string"
        },
        {
          "internalType": "uint256",
          "name": "forVotes",
          "type": "uint256"
        },
        {
          "internalType": "uint256",
          "name": "againstVotes",
          "type": "uint256"
        },
        {
          "internalType": "uint256",
          "name": "abstainVotes",
          "type": "uint256"
        },
        {
          "internalType": "uint256",
          "name": "startBlock",
          "type": "uint256"
        },
        {
          "internalType": "uint256",
          "name": "endBlock",
          "type": "uint256"
        },
        {
          "internalType": "uint256",
          "name": "eta",
          "type": "uint256"
        },
        {
          "internalType": "bool",
          "name": "canceled",
          "type": "bool"
        },
        {
          "internalType": "bool",
          "name": "executed",
          "type": "bool"
        }
      ],
      "stateMutability": "view",
      "type": "function",
      "constant": true
    },
    {
      "inputs": [],
      "name": "quorumPercentage",
      "outputs": [
        {
          "internalType": "uint256",
          "name": "",
          "type": "uint256"
        }
      ],
      "stateMutability": "view",
      "type": "function",
      "constant": true
    },
    {
      "inputs": [
        {
          "internalType": "bytes32",
          "name": "role",
          "type": "bytes32"
        },
        {
          "internalType": "address",
          "name": "account",
          "type": "address"
        }
      ],
      "name": "renounceRole",
      "outputs": [],
      "stateMutability": "nonpayable",
      "type": "function"
    },
    {
      "inputs": [
        {
          "internalType": "bytes32",
          "name": "role",
          "type": "bytes32"
        },
        {
          "internalType": "address",
          "name": "account",
          "type": "address"
        }
      ],
      "name": "revokeRole",
      "outputs": [],
      "stateMutability": "nonpayable",
      "type": "function"
    },
    {
      "inputs": [
        {
          "internalType": "bytes4",
          "name": "interfaceId",
          "type": "bytes4"
        }
      ],
      "name": "supportsInterface",
      "outputs": [
        {
          "internalType": "bool",
          "name": "",
          "type": "bool"
        }
      ],
      "stateMutability": "view",
      "type": "function",
      "constant": true
    },
    {
      "inputs": [],
      "name": "timelock",
      "outputs": [
        {
          "internalType": "contract Timelock",
          "name": "",
          "type": "address"
        }
      ],
      "stateMutability": "view",
      "type": "function",
      "constant": true
    },
    {
      "inputs": [],
      "name": "totalVotingPower",
      "outputs": [
        {
          "internalType": "uint256",
          "name": "",
          "type": "uint256"
        }
      ],
      "stateMutability": "view",
      "type": "function",
      "constant": true
    },
    {
      "inputs": [
        {
          "internalType": "uint256",
          "name": "",
          "type": "uint256"
        }
      ],
      "name": "voterList",
      "outputs": [
        {
          "internalType": "address",
          "name": "",
          "type": "address"
        }
      ],
      "stateMutability": "view",
      "type": "function",
      "constant": true
    },
    {
      "inputs": [
        {
          "internalType": "address",
          "name": "",
          "type": "address"
        }
      ],
      "name": "voters",
      "outputs": [
        {
          "internalType": "address",
          "name": "voterAddress",
          "type": "address"
        },
        {
          "internalType": "uint256",
          "name": "votingPower",
          "type": "uint256"
        },
        {
          "internalType": "uint256",
          "name": "proposalsCreated",
          "type": "uint256"
        },
        {
          "internalType": "uint256",
          "name": "votesParticipated",
          "type": "uint256"
        },
        {
          "internalType": "bool",
          "name": "isActive",
          "type": "bool"
        }
      ],
      "stateMutability": "view",
      "type": "function",
      "constant": true
    },
    {
      "inputs": [],
      "name": "votingDelay",
      "outputs": [
        {
          "internalType": "uint256",
          "name": "",
          "type": "uint256"
        }
      ],
      "stateMutability": "view",
      "type": "function",
      "constant": true
    },
    {
      "inputs": [],
      "name": "votingPeriod",
      "outputs": [
        {
          "internalType": "uint256",
          "name": "",
          "type": "uint256"
        }
      ],
      "stateMutability": "view",
      "type": "function",
      "constant": true
    },
    {
      "inputs": [
        {
          "internalType": "address",
          "name": "issuerAddress",
          "type": "address"
        },
        {
          "internalType": "string",
          "name": "description",
          "type": "string"
        }
      ],
      "name": "proposeAccreditIssuer",
      "outputs": [
        {
          "internalType": "uint256",
          "name": "",
          "type": "uint256"
        }
      ],
      "stateMutability": "nonpayable",
      "type": "function"
    },
    {
      "inputs": [
        {
          "internalType": "address",
          "name": "issuerAddress",
          "type": "address"
        },
        {
          "internalType": "string",
          "name": "description",
          "type": "string"
        }
      ],
      "name": "proposeRevokeIssuer",
      "outputs": [
        {
          "internalType": "uint256",
          "name": "",
          "type": "uint256"
        }
      ],
      "stateMutability": "nonpayable",
      "type": "function"
    },
    {
      "inputs": [
        {
          "internalType": "address",
          "name": "issuerAddress",
          "type": "address"
        },
        {
          "internalType": "string",
          "name": "description",
          "type": "string"
        }
      ],
      "name": "proposeSuspendIssuer",
      "outputs": [
        {
          "internalType": "uint256",
          "name": "",
          "type": "uint256"
        }
      ],
      "stateMutability": "nonpayable",
      "type": "function"
    },
    {
      "inputs": [
        {
          "internalType": "address",
          "name": "issuerAddress",
          "type": "address"
        },
        {
          "internalType": "string",
          "name": "description",
          "type": "string"
        }
      ],
      "name": "proposeReactivateIssuer",
      "outputs": [
        {
          "internalType": "uint256",
          "name": "",
          "type": "uint256"
        }
      ],
      "stateMutability": "nonpayable",
      "type": "function"
    },
    {
      "inputs": [
        {
          "internalType": "uint256",
          "name": "proposalId",
          "type": "uint256"
        },
        {
          "internalType": "uint8",
          "name": "support",
          "type": "uint8"
        },
        {
          "internalType": "string",
          "name": "reason",
          "type": "string"
        }
      ],
      "name": "castVote",
      "outputs": [],
      "stateMutability": "nonpayable",
      "type": "function"
    },
    {
      "inputs": [
        {
          "internalType": "uint256",
          "name": "proposalId",
          "type": "uint256"
        }
      ],
      "name": "queueProposal",
      "outputs": [],
      "stateMutability": "nonpayable",
      "type": "function"
    },
    {
      "inputs": [
        {
          "internalType": "uint256",
          "name": "proposalId",
          "type": "uint256"
        }
      ],
      "name": "executeProposal",
      "outputs": [],
      "stateMutability": "nonpayable",
      "type": "function"
    },
    {
      "inputs": [
        {
          "internalType": "uint256",
          "name": "proposalId",
          "type": "uint256"
        }
      ],
      "name": "cancelProposal",
      "outputs": [],
      "stateMutability": "nonpayable",
      "type": "function"
    },
    {
      "inputs": [
        {
          "internalType": "uint256",
          "name": "proposalId",
          "type": "uint256"
        }
      ],
      "name": "state",
      "outputs": [
        {
          "internalType": "enum IssuerDAO.ProposalState",
          "name": "",
          "type": "uint8"
        }
      ],
      "stateMutability": "view",
      "type": "function",
      "constant": true
    },
    {
      "inputs": [
        {
          "internalType": "address",
          "name": "voterAddress",
          "type": "address"
        },
        {
          "internalType": "uint256",
          "name": "votingPower",
          "type": "uint256"
        }
      ],
      "name": "addVoter",
      "outputs": [],
      "stateMutability": "nonpayable",
      "type": "function"
    },
    {
      "inputs": [
        {
          "internalType": "address",
          "name": "voterAddress",
          "type": "address"
        }
      ],
      "name": "removeVoter",
      "outputs": [],
      "stateMutability": "nonpayable",
      "type": "function"
    },
    {
      "inputs": [
        {
          "internalType": "address",
          "name": "voterAddress",
          "type": "address"
        },
        {
          "internalType": "uint256",
          "name": "newVotingPower",
          "type": "uint256"
        }
      ],
      "name": "updateVotingPower",
      "outputs": [],
      "stateMutability": "nonpayable",
      "type": "function"
    },
    {
      "inputs": [
        {
          "internalType": "uint256",
          "name": "proposalId",
          "type": "uint256"
        }
      ],
      "name": "getProposal",
      "outputs": [
        {
          "components": [
            {
              "internalType": "uint256",
              "name": "id",
              "type": "uint256"
            },
            {
              "internalType": "address",
              "name": "proposer",
              "type": "address"
            },
            {
              "internalType": "enum IssuerDAO.ProposalAction",
              "name": "action",
              "type": "uint8"
            },
            {
              "internalType": "address",
              "name": "targetIssuer",
              "type": "address"
            },
            {
              "internalType": "string",
              "name": "description",
              "type": "string"
            },
            {
              "internalType": "uint256",
              "name": "forVotes",
              "type": "uint256"
            },
            {
              "internalType": "uint256",
              "name": "againstVotes",
              "type": "uint256"
            },
            {
              "internalType": "uint256",
              "name": "abstainVotes",
              "type": "uint256"
            },
            {
              "internalType": "uint256",
              "name": "startBlock",
              "type": "uint256"
            },
            {
              "internalType": "uint256",
              "name": "endBlock",
              "type": "uint256"
            },
            {
              "internalType": "uint256",
              "name": "eta",
              "type": "uint256"
            },
            {
              "internalType": "bool",
              "name": "canceled",
              "type": "bool"
            },
            {
              "internalType": "bool",
              "name": "executed",
              "type": "bool"
            }
          ],
          "internalType": "struct IssuerDAO.ProposalView",
          "name": "",
          "type": "tuple"
        }
      ],
      "stateMutability": "view",
      "type": "function",
      "constant": true
    },
    {
      "inputs": [
        {
          "internalType": "uint256",
          "name": "proposalId",
          "type": "uint256"
        },
        {
          "internalType": "address",
          "name": "voter",
          "type": "address"
        }
      ],
      "name": "getReceipt",
      "outputs": [
        {
          "internalType": "bool",
          "name": "hasVoted",
          "type": "bool"
        },
        {
          "internalType": "uint8",
          "name": "support",
          "type": "uint8"
        },
        {
          "internalType": "uint256",
          "name": "votes",
          "type": "uint256"
        }
      ],
      "stateMutability": "view",
      "type": "function",
      "constant": true
    },
    {
      "inputs": [],
      "name": "getAllVoters",
      "outputs": [
        {
          "internalType": "address[]",
          "name": "",
          "type": "address[]"
        }
      ],
      "stateMutability": "view",
      "type": "function",
      "constant": true
    },
    {
      "inputs": [
        {
          "internalType": "uint256",
          "name": "newPeriod",
          "type": "uint256"
        }
      ],
      "name": "updateVotingPeriod",
      "outputs": [],
      "stateMutability": "nonpayable",
      "type": "function"
    },
    {
      "inputs": [
        {
          "internalType": "uint256",
          "name": "newQuorum",
          "type": "uint256"
        }
      ],
      "name": "updateQuorum",
      "outputs": [],
      "stateMutability": "nonpayable",
      "type": "function"
    },
    {
      "inputs": [],
      "name": "pause",
      "outputs": [],
      "stateMutability": "nonpayable",
      "type": "function"
    },
    {
      "inputs": [],
      "name": "unpause",
      "outputs": [],
      "stateMutability": "nonpayable",
      "type": "function"
    }
  ],
  "bytecode": "0x608060405261012c600355601e600455600160055560326006553480156200002657600080fd5b50604051620035113803806200351183398101604081905262000049916200034d565b600180556002805460ff191690556001600160a01b038216620000bf5760405162461bcd60e51b815260206004820152602360248201527f49737375657244414f3a20496e76616c6964207265676973747279206164647260448201526265737360e81b60648201526084015b60405180910390fd5b6001600160a01b038116620001235760405162461bcd60e51b815260206004820152602360248201527f49737375657244414f3a20496e76616c69642074696d656c6f636b206164647260448201526265737360e81b6064820152608401620000b6565b600c80546001600160a01b038085166001600160a01b031992831617909255600d8054928416929091169190911790556200016060003362000280565b6200018c7fa49807205ce4d355092ef5a8a18f56e8913cf4a201fbe287825b095693c217753362000280565b620001b87f72c3eec1760bf69946625c2d4fb8e44e2c806345041960b434674fb9ab3976cf3362000280565b50506040805160a08101825233808252606460208084018281526000858701818152606087018281526001608089018181528885526008909652988320975188546001600160a01b03919091166001600160a01b03199182161789559351888a01559051600288015551600387015591516004909501805495151560ff199096169590951790945560098054958601815590527f6e1540171b6c0c960b71a7020d9f60077f6af931a8bbf590da0223dacf75c7af9093018054909216179055600b5562000385565b6200028c828262000290565b5050565b6000828152602081815260408083206001600160a01b038516845290915290205460ff166200028c576000828152602081815260408083206001600160a01b03851684529091529020805460ff19166001179055620002ec3390565b6001600160a01b0316816001600160a01b0316837f2f8788117e7eff1d82e926ec794901d17c78024a50270940304540a733656f0d60405160405180910390a45050565b80516001600160a01b03811681146200034857600080fd5b919050565b600080604083850312156200036157600080fd5b6200036c8362000330565b91506200037c6020840162000330565b90509250929050565b61317c80620003956000396000f3fe608060405234801561001057600080fd5b50600436106102485760003560e01c80638456cb591161013b578063b9f05f2f116100b8578063da35c6641161007c578063da35c66414610580578063e0a8f6f514610589578063e23a9a521461059c578063eadc29c714610609578063ef00ef431461061c57600080fd5b8063b9f05f2f14610514578063c7f758a814610527578063ca4964fe14610547578063d33219b41461055a578063d547741f1461056d57600080fd5b8063a217fddf116100ff578063a217fddf1461045d578063a3ec138d14610465578063a94015c8146104e3578063afb1a860146104f8578063b58131b01461050b57600080fd5b80638456cb591461040957806386c1ff68146104115780638bfc18511461042457806391d148541461043757806394a14a341461044a57600080fd5b80633e4f49e6116101c957806350e2e8af1161018d57806350e2e8af146103a25780635c975abb146103cd578063619a8258146103d8578063671b3793146103eb57806375b238fc146103f457600080fd5b80633e4f49e61461034b5780633f4ba83a1461036b578063431e9a5814610373578063470b7622146103865780634fa76ec91461039957600080fd5b80632f2ff15d116102105780632f2ff15d146102f457806335680dc21461030757806335bbe70e1461031a57806336568abe1461032f5780633932abb11461034257600080fd5b8063013cf08b1461024d57806301ffc9a71461028257806302a251a3146102a55780630d61b519146102bc578063248a9ca3146102d1575b600080fd5b61026061025b366004612864565b61062f565b6040516102799d9c9b9a999897969594939291906128f7565b60405180910390f35b610295610290366004612984565b610733565b6040519015158152602001610279565b6102ae60035481565b604051908152602001610279565b6102cf6102ca366004612864565b61076a565b005b6102ae6102df366004612864565b60009081526020819052604090206001015490565b6102cf6103023660046129ca565b610b46565b6102cf610315366004612864565b610b70565b610322610beb565b60405161027991906129f6565b6102cf61033d3660046129ca565b610c4d565b6102ae60045481565b61035e610359366004612864565b610ccb565b6040516102799190612a43565b6102cf610e66565b6102ae610381366004612b00565b610e86565b6102cf610394366004612b4e565b610fc3565b6102ae60065481565b6103b56103b0366004612864565b611262565b6040516001600160a01b039091168152602001610279565b60025460ff16610295565b6102ae6103e6366004612b00565b61128c565b6102ae600b5481565b6102ae60008051602061310783398151915281565b6102cf61147d565b6102cf61041f366004612bad565b61149d565b600c546103b5906001600160a01b031681565b6102956104453660046129ca565b6115b9565b6102cf610458366004612864565b6115e2565b6102ae600081565b6104af610473366004612bad565b600860205260009081526040902080546001820154600283015460038401546004909401546001600160a01b0390931693919290919060ff1685565b604080516001600160a01b03909616865260208601949094529284019190915260608301521515608082015260a001610279565b6102ae60008051602061312783398151915281565b6102ae610506366004612b00565b611727565b6102ae60055481565b6102cf610522366004612bc8565b611988565b61053a610535366004612864565b611bda565b6040516102799190612bf2565b6102ae610555366004612b00565b611db9565b600d546103b5906001600160a01b031681565b6102cf61057b3660046129ca565b611eef565b6102ae600a5481565b6102cf610597366004612864565b611f14565b6105ea6105aa3660046129ca565b60009182526007602090815260408084206001600160a01b03939093168452600b90920190529020805460019091015460ff808316936101009093041691565b60408051931515845260ff909216602084015290820152606001610279565b6102cf610617366004612bc8565b612040565b6102cf61062a366004612864565b6121aa565b600760205260009081526040902080546001820154600283015460038401805493946001600160a01b0380851695600160a01b90950460ff169493169290919061067890612cd4565b80601f01602080910402602001604051908101604052809291908181526020018280546106a490612cd4565b80156106f15780601f106106c6576101008083540402835291602001916106f1565b820191906000526020600020905b8154815290600101906020018083116106d457829003601f168201915b50505050600483015460058401546006850154600786015460088701546009880154600a90980154969794969395509193909260ff808216916101009004168d565b60006001600160e01b03198216637965db0b60e01b148061076457506301ffc9a760e01b6001600160e01b03198316145b92915050565b61077261222a565b61077a612283565b600561078582610ccb565b60078111156107965761079661287d565b146107e85760405162461bcd60e51b815260206004820152601e60248201527f49737375657244414f3a2050726f706f73616c206e6f7420717565756564000060448201526064015b60405180910390fd5b6000818152600760205260409020600981015442101561084a5760405162461bcd60e51b815260206004820152601f60248201527f49737375657244414f3a2054696d656c6f636b206e6f7420657870697265640060448201526064016107df565b600d60009054906101000a90046001600160a01b03166001600160a01b031663a06db7dc6040518163ffffffff1660e01b8152600401602060405180830381865afa15801561089d573d6000803e3d6000fd5b505050506040513d601f19601f820116820180604052508101906108c19190612d08565b81600901546108d09190612d37565b42111561091f5760405162461bcd60e51b815260206004820152601c60248201527f49737375657244414f3a205472616e73616374696f6e207374616c650000000060448201526064016107df565b600a8101805461ff00191661010017905560006001820154600160a01b900460ff1660058111156109525761095261287d565b036109c057600c546002820154604051639bc24c6560e01b81526001600160a01b039182166004820152911690639bc24c65906024015b600060405180830381600087803b1580156109a357600080fd5b505af11580156109b7573d6000803e3d6000fd5b50505050610b0e565b600180820154600160a01b900460ff1660058111156109e1576109e161287d565b03610a2157600c546002820154604051632b43c5f160e01b81526001600160a01b0392831692632b43c5f192610989929116906003860190600401612d4a565b60026001820154600160a01b900460ff166005811115610a4357610a4361287d565b03610a8357600c5460028201546040516316767bc960e21b81526001600160a01b03928316926359d9ef2492610989929116906003860190600401612d4a565b60036001820154600160a01b900460ff166005811115610aa557610aa561287d565b03610b0e57600c546002820154604051630dbb31bf60e11b81526001600160a01b039182166004820152911690631b76637e90602401600060405180830381600087803b158015610af557600080fd5b505af1158015610b09573d6000803e3d6000fd5b505050505b60405182907f712ae1383f79ac853f8d882153778e0260ef8f03b504e2866e0593e04d2b291f90600090a250610b4360018055565b50565b600082815260208190526040902060010154610b61816122cb565b610b6b83836122d5565b505050565b600080516020613107833981519152610b88816122cb565b600082118015610b99575060648211155b610be55760405162461bcd60e51b815260206004820152601960248201527f49737375657244414f3a20496e76616c69642071756f72756d0000000000000060448201526064016107df565b50600655565b60606009805480602002602001604051908101604052809291908181526020018280548015610c4357602002820191906000526020600020905b81546001600160a01b03168152600190910190602001808311610c25575b5050505050905090565b6001600160a01b0381163314610cbd5760405162461bcd60e51b815260206004820152602f60248201527f416363657373436f6e74726f6c3a2063616e206f6e6c792072656e6f756e636560448201526e103937b632b9903337b91039b2b63360891b60648201526084016107df565b610cc78282612359565b5050565b600081815260076020526040812080548203610d295760405162461bcd60e51b815260206004820152601b60248201527f49737375657244414f3a20496e76616c69642070726f706f73616c000000000060448201526064016107df565b600a81015460ff1615610d3f5750600292915050565b80600701544311610d535750600092915050565b80600801544311610d675750600192915050565b80600501548160040154111580610d845750610d82836123be565b155b15610d925750600392915050565b8060090154600003610da75750600492915050565b600a810154610100900460ff1615610dc25750600792915050565b600d60009054906101000a90046001600160a01b03166001600160a01b031663a06db7dc6040518163ffffffff1660e01b8152600401602060405180830381865afa158015610e15573d6000803e3d6000fd5b505050506040513d601f19601f82011682018060405250810190610e399190612d08565b8160090154610e489190612d37565b4210610e575750600692915050565b50600592915050565b50919050565b600080516020613107833981519152610e7e816122cb565b610b4361241d565b6000610ea0600080516020613127833981519152336115b9565b610ebc5760405162461bcd60e51b81526004016107df90612de5565b3360009081526008602052604090206004015460ff16610eee5760405162461bcd60e51b81526004016107df90612e15565b610ef6612283565b600c54604051632d598d7b60e01b81526001600160a01b03858116600483015290911690632d598d7b90602401602060405180830381865afa158015610f40573d6000803e3d6000fd5b505050506040513d601f19601f82011682018060405250810190610f649190612e4c565b610fb05760405162461bcd60e51b815260206004820181905260248201527f49737375657244414f3a20497373756572206e6f74206163637265646974656460448201526064016107df565b610fbc6001848461246f565b9392505050565b610fdb600080516020613127833981519152336115b9565b610ff75760405162461bcd60e51b81526004016107df90612de5565b3360009081526008602052604090206004015460ff166110295760405162461bcd60e51b81526004016107df90612e15565b611031612283565b60028260ff1611156110855760405162461bcd60e51b815260206004820181905260248201527f49737375657244414f3a20496e76616c696420737570706f72742076616c756560448201526064016107df565b600161109084610ccb565b60078111156110a1576110a161287d565b146110ee5760405162461bcd60e51b815260206004820152601c60248201527f49737375657244414f3a20566f74696e67206e6f74206163746976650000000060448201526064016107df565b6000838152600760209081526040808320338452600b8101909252909120805460ff161561115e5760405162461bcd60e51b815260206004820152601860248201527f49737375657244414f3a20416c726561647920766f746564000000000000000060448201526064016107df565b336000908152600860205260408120600101549060ff8616900361119b57808360050160008282546111909190612d37565b909155506111d49050565b8460ff166001036111ba57808360040160008282546111909190612d37565b808360060160008282546111ce9190612d37565b90915550505b8154600161ffff1990911661010060ff8816021781178355820181905533600090815260086020526040812060030180549161120f83612e6e565b919050555085336001600160a01b03167fb8e138887d0aa13bab447e82de9d5c1777041ecd21ca36ba824ff1e6c07ddda487848860405161125293929190612e87565b60405180910390a3505050505050565b6009818154811061127257600080fd5b6000918252602090912001546001600160a01b0316905081565b60006112a6600080516020613127833981519152336115b9565b6112c25760405162461bcd60e51b81526004016107df90612de5565b3360009081526008602052604090206004015460ff166112f45760405162461bcd60e51b81526004016107df90612e15565b6112fc612283565b600c5460405163c3c5a54760e01b81526001600160a01b0385811660048301529091169063c3c5a54790602401602060405180830381865afa158015611346573d6000803e3d6000fd5b505050506040513d601f19601f8201168201806040525081019061136a9190612e4c565b6113b65760405162461bcd60e51b815260206004820181905260248201527f49737375657244414f3a20497373756572206e6f74207265676973746572656460448201526064016107df565b600c54604051631197074d60e11b81526001600160a01b0385811660048301529091169063232e0e9a90602401602060405180830381865afa158015611400573d6000803e3d6000fd5b505050506040513d601f19601f820116820180604052508101906114249190612e4c565b156114715760405162461bcd60e51b815260206004820152601c60248201527f49737375657244414f3a20416c72656164792073757370656e6465640000000060448201526064016107df565b610fbc6002848461246f565b600080516020613107833981519152611495816122cb565b610b436125d7565b6000805160206131078339815191526114b5816122cb565b6001600160a01b03821660009081526008602052604090206004015460ff166115205760405162461bcd60e51b815260206004820152601e60248201527f49737375657244414f3a204e6f7420616e2061637469766520766f746572000060448201526064016107df565b61153860008051602061312783398151915283611eef565b6001600160a01b038216600090815260086020526040812060010154600b805491929091611567908490612eb2565b90915550506001600160a01b038216600081815260086020526040808220600401805460ff19169055517fa14a79af012d1756818f9bd59ccfc9ad185a71df86b9392d9059d9e6faf6d6449190a25050565b6000918252602082815260408084206001600160a01b0393909316845291905290205460ff1690565b6115ea612283565b60046115f582610ccb565b60078111156116065761160661287d565b1461165d5760405162461bcd60e51b815260206004820152602160248201527f49737375657244414f3a2050726f706f73616c206e6f742073756363656564656044820152601960fa1b60648201526084016107df565b6000818152600760209081526040808320600d548251630d48571f60e31b815292519194936001600160a01b0390911692636a42b8f892600480830193928290030181865afa1580156116b4573d6000803e3d6000fd5b505050506040513d601f19601f820116820180604052508101906116d89190612d08565b6116e29042612d37565b6009830181905560405181815290915083907f9a2e42fd6722813d69113e7d0079d3d940171428df7373df9c7f7617cfda2892906020015b60405180910390a2505050565b6000611741600080516020613127833981519152336115b9565b61175d5760405162461bcd60e51b81526004016107df90612de5565b3360009081526008602052604090206004015460ff1661178f5760405162461bcd60e51b81526004016107df90612e15565b611797612283565b600c5460405163c3c5a54760e01b81526001600160a01b0385811660048301529091169063c3c5a54790602401602060405180830381865afa1580156117e1573d6000803e3d6000fd5b505050506040513d601f19601f820116820180604052508101906118059190612e4c565b6118515760405162461bcd60e51b815260206004820181905260248201527f49737375657244414f3a20497373756572206e6f74207265676973746572656460448201526064016107df565b600c54604051632d598d7b60e01b81526001600160a01b03858116600483015290911690632d598d7b90602401602060405180830381865afa15801561189b573d6000803e3d6000fd5b505050506040513d601f19601f820116820180604052508101906118bf9190612e4c565b1561190c5760405162461bcd60e51b815260206004820152601d60248201527f49737375657244414f3a20416c7265616479206163637265646974656400000060448201526064016107df565b60055433600090815260086020526040902060010154101561197c5760405162461bcd60e51b815260206004820152602360248201527f49737375657244414f3a2042656c6f772070726f706f73616c207468726573686044820152621bdb1960ea1b60648201526084016107df565b610fbc6000848461246f565b6000805160206131078339815191526119a0816122cb565b6001600160a01b0383166119f65760405162461bcd60e51b815260206004820152601a60248201527f49737375657244414f3a20496e76616c6964206164647265737300000000000060448201526064016107df565b6001600160a01b03831660009081526008602052604090206004015460ff1615611a625760405162461bcd60e51b815260206004820152601a60248201527f49737375657244414f3a20416c7265616479206120766f74657200000000000060448201526064016107df565b60008211611ab25760405162461bcd60e51b815260206004820152601f60248201527f49737375657244414f3a20496e76616c696420766f74696e6720706f7765720060448201526064016107df565b611aca60008051602061312783398151915284610b46565b6040805160a0810182526001600160a01b03808616808352602080840187815260008587018181526060870182815260016080890181815287855260089096529883209751885497166001600160a01b03199788161788559251878901555160028701559051600386015590516004909401805494151560ff199095169490941790935560098054948501815583527f6e1540171b6c0c960b71a7020d9f60077f6af931a8bbf590da0223dacf75c7af9093018054909116909217909155600b8054849290611b9a908490612d37565b90915550506040518281526001600160a01b038416907f56aa1768b52ddcdda65c5561181844717c2eed4bb3c848376d4420860da04dae9060200161171a565b611c52604080516101a0810182526000808252602082018190529091820190815260200160006001600160a01b03168152602001606081526020016000815260200160008152602001600081526020016000815260200160008152602001600081526020016000151581526020016000151581525090565b60008281526007602090815260409182902082516101a0810184528154815260018201546001600160a01b038116938201939093529092909190820190600160a01b900460ff166005811115611caa57611caa61287d565b815260028301546001600160a01b03166020820152600383018054604090920191611cd490612cd4565b80601f0160208091040260200160405190810160405280929190818152602001828054611d0090612cd4565b8015611d4d5780601f10611d2257610100808354040283529160200191611d4d565b820191906000526020600020905b815481529060010190602001808311611d3057829003601f168201915b505050918352505060048301546020820152600583015460408201526006830154606082015260078301546080820152600883015460a0820152600983015460c0820152600a9092015460ff808216151560e08501526101009182900416151592019190915292915050565b6000611dd3600080516020613127833981519152336115b9565b611def5760405162461bcd60e51b81526004016107df90612de5565b3360009081526008602052604090206004015460ff16611e215760405162461bcd60e51b81526004016107df90612e15565b611e29612283565b600c54604051631197074d60e11b81526001600160a01b0385811660048301529091169063232e0e9a90602401602060405180830381865afa158015611e73573d6000803e3d6000fd5b505050506040513d601f19601f82011682018060405250810190611e979190612e4c565b611ee35760405162461bcd60e51b815260206004820152601f60248201527f49737375657244414f3a20497373756572206e6f742073757370656e6465640060448201526064016107df565b610fbc6003848461246f565b600082815260208190526040902060010154611f0a816122cb565b610b6b8383612359565b6000818152600760205260409020600a810154610100900460ff1615611f885760405162461bcd60e51b8152602060048201526024808201527f49737375657244414f3a2050726f706f73616c20616c726561647920657865636044820152631d5d195960e21b60648201526084016107df565b60018101546001600160a01b0316331480611fb65750611fb6600080516020613107833981519152336115b9565b6120025760405162461bcd60e51b815260206004820152601960248201527f49737375657244414f3a204e6f7420617574686f72697a65640000000000000060448201526064016107df565b600a8101805460ff1916600117905560405182907f789cf55be980739dad1d0699b93b58e806b51c9d96619bfa8fe0a28abaa7b30c90600090a25050565b600080516020613107833981519152612058816122cb565b6001600160a01b03831660009081526008602052604090206004015460ff166120c35760405162461bcd60e51b815260206004820152601e60248201527f49737375657244414f3a204e6f7420616e2061637469766520766f746572000060448201526064016107df565b600082116121135760405162461bcd60e51b815260206004820152601f60248201527f49737375657244414f3a20496e76616c696420766f74696e6720706f7765720060448201526064016107df565b6001600160a01b038316600090815260086020526040902060010154600b54839061213f908390612eb2565b6121499190612d37565b600b556001600160a01b03841660008181526008602052604090819020600101859055517f36ac285914fb5fd49dd16e36cab1e696eda836080e3a61ff587c8671cbbdcab99061219c9086815260200190565b60405180910390a250505050565b6000805160206131078339815191526121c2816122cb565b6201518082101580156121d8575062278d008211155b6122245760405162461bcd60e51b815260206004820152601960248201527f49737375657244414f3a20496e76616c696420706572696f640000000000000060448201526064016107df565b50600355565b60026001540361227c5760405162461bcd60e51b815260206004820152601f60248201527f5265656e7472616e637947756172643a207265656e7472616e742063616c6c0060448201526064016107df565b6002600155565b60025460ff16156122c95760405162461bcd60e51b815260206004820152601060248201526f14185d5cd8589b194e881c185d5cd95960821b60448201526064016107df565b565b610b438133612614565b6122df82826115b9565b610cc7576000828152602081815260408083206001600160a01b03851684529091529020805460ff191660011790556123153390565b6001600160a01b0316816001600160a01b0316837f2f8788117e7eff1d82e926ec794901d17c78024a50270940304540a733656f0d60405160405180910390a45050565b61236382826115b9565b15610cc7576000828152602081815260408083206001600160a01b0385168085529252808320805460ff1916905551339285917ff6391f5c32d9c69d2a47ea670b442974b53935d1edc7fd64eb21e047a839171b9190a45050565b60008181526007602052604081206006810154600582015460048301548492916123e791612d37565b6123f19190612d37565b905060006064600654600b546124079190612ec5565b6124119190612edc565b90911015949350505050565b61242561266d565b6002805460ff191690557f5db9ee0a495bf2e6ff9c91a7834c1ba4fdd244a5e8aa4e537bd38aeae4b073aa335b6040516001600160a01b03909116815260200160405180910390a1565b600a80546000918261248083612e6e565b9091555050600a546000818152600760205260409020818155600181018054336001600160a01b03198216811783558892916001600160a81b03191660ff60a01b1990911617600160a01b8360058111156124dd576124dd61287d565b02179055506002810180546001600160a01b0319166001600160a01b0387161790556003810161250d8582612f4c565b50600c60045461251d9190612edc565b6125279043612d37565b600782015560035461253b90600c90612edc565b816007015461254a9190612d37565b600880830191909155600a8201805461ffff191690553360009081526020919091526040812060020180549161257f83612e6e565b909155505060078101546008820154604051339285927f906fd522215c135d3d7cbfc1a6efecbcb5a21aecd7e95cabdbe8ffdcb0b55ad3926125c6928c928c928c9061300c565b60405180910390a350949350505050565b6125df612283565b6002805460ff191660011790557f62e78cea01bee320cd4e420270b5ea74000d11b0c9f74754ebdbfc544b05a2586124523390565b61261e82826115b9565b610cc75761262b816126b6565b6126368360206126c8565b604051602001612647929190613051565b60408051601f198184030181529082905262461bcd60e51b82526107df916004016130c6565b60025460ff166122c95760405162461bcd60e51b815260206004820152601460248201527314185d5cd8589b194e881b9bdd081c185d5cd95960621b60448201526064016107df565b60606107646001600160a01b03831660145b606060006126d7836002612ec5565b6126e2906002612d37565b67ffffffffffffffff8111156126fa576126fa612a5d565b6040519080825280601f01601f191660200182016040528015612724576020820181803683370190505b509050600360fc1b8160008151811061273f5761273f6130d9565b60200101906001600160f81b031916908160001a905350600f60fb1b8160018151811061276e5761276e6130d9565b60200101906001600160f81b031916908160001a9053506000612792846002612ec5565b61279d906001612d37565b90505b6001811115612815576f181899199a1a9b1b9c1cb0b131b232b360811b85600f16601081106127d1576127d16130d9565b1a60f81b8282815181106127e7576127e76130d9565b60200101906001600160f81b031916908160001a90535060049490941c9361280e816130ef565b90506127a0565b508315610fbc5760405162461bcd60e51b815260206004820181905260248201527f537472696e67733a20686578206c656e67746820696e73756666696369656e7460448201526064016107df565b60006020828403121561287657600080fd5b5035919050565b634e487b7160e01b600052602160045260246000fd5b600681106128a3576128a361287d565b9052565b60005b838110156128c25781810151838201526020016128aa565b50506000910152565b600081518084526128e38160208601602086016128a7565b601f01601f19169290920160200192915050565b8d81526001600160a01b038d8116602083015260009061291a604084018f612893565b808d166060840152506101a060808301526129396101a083018c6128cb565b60a083019a909a525060c081019790975260e0870195909552610100860193909352610120850191909152610140840152151561016083015215156101809091015295945050505050565b60006020828403121561299657600080fd5b81356001600160e01b031981168114610fbc57600080fd5b80356001600160a01b03811681146129c557600080fd5b919050565b600080604083850312156129dd57600080fd5b823591506129ed602084016129ae565b90509250929050565b6020808252825182820181905260009190848201906040850190845b81811015612a375783516001600160a01b031683529284019291840191600101612a12565b50909695505050505050565b6020810160088310612a5757612a5761287d565b91905290565b634e487b7160e01b600052604160045260246000fd5b600082601f830112612a8457600080fd5b813567ffffffffffffffff80821115612a9f57612a9f612a5d565b604051601f8301601f19908116603f01168101908282118183101715612ac757612ac7612a5d565b81604052838152866020858801011115612ae057600080fd5b836020870160208301376000602085830101528094505050505092915050565b60008060408385031215612b1357600080fd5b612b1c836129ae565b9150602083013567ffffffffffffffff811115612b3857600080fd5b612b4485828601612a73565b9150509250929050565b600080600060608486031215612b6357600080fd5b83359250602084013560ff81168114612b7b57600080fd5b9150604084013567ffffffffffffffff811115612b9757600080fd5b612ba386828701612a73565b9150509250925092565b600060208284031215612bbf57600080fd5b610fbc826129ae565b60008060408385031215612bdb57600080fd5b612be4836129ae565b946020939093013593505050565b602081528151602082015260006020830151612c1960408401826001600160a01b03169052565b506040830151612c2c6060840182612893565b5060608301516001600160a01b03811660808401525060808301516101a08060a0850152612c5e6101c08501836128cb565b60a086015160c08681019190915286015160e08087019190915286015161010080870191909152860151610120808701919091528601516101408087019190915286015161016080870191909152860151909250610180612cc28187018315159052565b90950151151593019290925250919050565b600181811c90821680612ce857607f821691505b602082108103610e6057634e487b7160e01b600052602260045260246000fd5b600060208284031215612d1a57600080fd5b5051919050565b634e487b7160e01b600052601160045260246000fd5b8082018082111561076457610764612d21565b60018060a01b03831681526000602060408184015260008454612d6c81612cd4565b8060408701526060600180841660008114612d8e5760018114612da857612dd6565b60ff1985168984015283151560051b890183019550612dd6565b896000528660002060005b85811015612dce5781548b8201860152908301908801612db3565b8a0184019650505b50939998505050505050505050565b60208082526016908201527524b9b9bab2b92220a79d102737ba1030903b37ba32b960511b604082015260600190565b6020808252601b908201527f49737375657244414f3a20566f746572206e6f74206163746976650000000000604082015260600190565b600060208284031215612e5e57600080fd5b81518015158114610fbc57600080fd5b600060018201612e8057612e80612d21565b5060010190565b60ff84168152826020820152606060408201526000612ea960608301846128cb565b95945050505050565b8181038181111561076457610764612d21565b808202811582820484141761076457610764612d21565b600082612ef957634e487b7160e01b600052601260045260246000fd5b500490565b601f821115610b6b57600081815260208120601f850160051c81016020861015612f255750805b601f850160051c820191505b81811015612f4457828155600101612f31565b505050505050565b815167ffffffffffffffff811115612f6657612f66612a5d565b612f7a81612f748454612cd4565b84612efe565b602080601f831160018114612faf5760008415612f975750858301515b600019600386901b1c1916600185901b178555612f44565b600085815260208120601f198616915b82811015612fde57888601518255948401946001909101908401612fbf565b5085821015612ffc5787850151600019600388901b60f8161c191681555b5050505050600190811b01905550565b6130168187612893565b60018060a01b038516602082015283604082015282606082015260a06080820152600061304660a08301846128cb565b979650505050505050565b7f416363657373436f6e74726f6c3a206163636f756e74200000000000000000008152600083516130898160178501602088016128a7565b7001034b99036b4b9b9b4b733903937b6329607d1b60179184019182015283516130ba8160288401602088016128a7565b01602801949350505050565b602081526000610fbc60208301846128cb565b634e487b7160e01b600052603260045260246000fd5b6000816130fe576130fe612d21565b50600019019056fea49807205ce4d355092ef5a8a18f56e8913cf4a201fbe287825b095693c2177572c3eec1760bf69946625c2d4fb8e44e2c806345041960b434674fb9ab3976cfa2646970667358221220a8b199039060533a6d6a4b5fb57cf5a8f9363fc81a1c79fbe86a8d177619b3dc64736f6c63430008140033",
  "immutableReferences": {},
  "source": "// SPDX-License-Identifier: MIT\r\npragma solidity ^0.8.0;\r\n\r\nimport \"../interfaces/IIssuer.sol\";\r\nimport \"@openzeppelin/contracts/access/AccessControl.sol\";\r\nimport \"@openzeppelin/contracts/security/ReentrancyGuard.sol\";\r\nimport \"@openzeppelin/contracts/security/Pausable.sol\";\r\nimport \"./Timelock.sol\";\r\n\r\n/**\r\n * @title IssuerDAO\r\n * @dev Decentralized Autonomous Organization for governing issuer accreditation\r\n * Implements proposal-based voting for accrediting, revoking, and suspending issuers\r\n */\r\ncontract IssuerDAO is AccessControl, ReentrancyGuard, Pausable {\r\n    // Roles\r\n    bytes32 public constant ADMIN_ROLE = keccak256(\"ADMIN_ROLE\");\r\n    bytes32 public constant VOTER_ROLE = keccak256(\"VOTER_ROLE\");\r\n\r\n    // DAO Configuration\r\n    uint256 public votingPeriod = 5 minutes;\r\n    uint256 public votingDelay = 30 seconds;\r\n    uint256 public proposalThreshold = 1; // Minimum votes to create proposal\r\n    uint256 public quorumPercentage = 50; // 50% quorum required\r\n\r\n    // Proposal states\r\n    enum ProposalState {\r\n        Pending,\r\n        Active,\r\n        Canceled,\r\n        Defeated,\r\n        Succeeded,\r\n        Queued,\r\n        Expired,\r\n        Executed\r\n    }\r\n\r\n    // Proposal action types\r\n    enum ProposalAction {\r\n        AccreditIssuer,\r\n        RevokeIssuer,\r\n        SuspendIssuer,\r\n        ReactivateIssuer,\r\n        UpdateVotingPeriod,\r\n        UpdateQuorum\r\n    }\r\n\r\n    // Proposal structure\r\n    struct Proposal {\r\n        uint256 id;\r\n        address proposer;\r\n        ProposalAction action;\r\n        address targetIssuer;\r\n        string description;\r\n        uint256 forVotes;\r\n        uint256 againstVotes;\r\n        uint256 abstainVotes;\r\n        uint256 startBlock;\r\n        uint256 endBlock;\r\n        uint256 eta; // Estimated time of execution (after timelock)\r\n        bool canceled;\r\n        bool executed;\r\n        mapping(address => Receipt) receipts;\r\n    }\r\n\r\n    // Vote receipt\r\n    struct Receipt {\r\n        bool hasVoted;\r\n        uint8 support; // 0=against, 1=for, 2=abstain\r\n        uint256 votes;\r\n    }\r\n\r\n    // Voter structure\r\n    struct Voter {\r\n        address voterAddress;\r\n        uint256 votingPower;\r\n        uint256 proposalsCreated;\r\n        uint256 votesParticipated;\r\n        bool isActive;\r\n    }\r\n\r\n    // Storage\r\n    mapping(uint256 => Proposal) public proposals;\r\n    mapping(address => Voter) public voters;\r\n    address[] public voterList;\r\n    uint256 public proposalCount;\r\n    uint256 public totalVotingPower;\r\n\r\n    // Contract references\r\n    IIssuer public issuerRegistry;\r\n    Timelock public timelock;\r\n\r\n    // Events\r\n    event ProposalCreated(\r\n        uint256 indexed proposalId,\r\n        address indexed proposer,\r\n        ProposalAction action,\r\n        address targetIssuer,\r\n        uint256 startBlock,\r\n        uint256 endBlock,\r\n        string description\r\n    );\r\n\r\n    event VoteCast(\r\n        address indexed voter,\r\n        uint256 indexed proposalId,\r\n        uint8 support,\r\n        uint256 votes,\r\n        string reason\r\n    );\r\n\r\n    event ProposalCanceled(uint256 indexed proposalId);\r\n\r\n    event ProposalQueued(uint256 indexed proposalId, uint256 eta);\r\n\r\n    event ProposalExecuted(uint256 indexed proposalId);\r\n\r\n    event VoterAdded(address indexed voter, uint256 votingPower);\r\n\r\n    event VoterRemoved(address indexed voter);\r\n\r\n    event VotingPowerUpdated(address indexed voter, uint256 newVotingPower);\r\n\r\n    modifier onlyVoter() {\r\n        require(hasRole(VOTER_ROLE, msg.sender), \"IssuerDAO: Not a voter\");\r\n        require(voters[msg.sender].isActive, \"IssuerDAO: Voter not active\");\r\n        _;\r\n    }\r\n\r\n    constructor(address _issuerRegistryAddress, address _timelockAddress) {\r\n        require(\r\n            _issuerRegistryAddress != address(0),\r\n            \"IssuerDAO: Invalid registry address\"\r\n        );\r\n        require(\r\n            _timelockAddress != address(0),\r\n            \"IssuerDAO: Invalid timelock address\"\r\n        );\r\n\r\n        issuerRegistry = IIssuer(_issuerRegistryAddress);\r\n        timelock = Timelock(payable(_timelockAddress));\r\n\r\n        _setupRole(DEFAULT_ADMIN_ROLE, msg.sender);\r\n        _setupRole(ADMIN_ROLE, msg.sender);\r\n        _setupRole(VOTER_ROLE, msg.sender);\r\n\r\n        // Add deployer as initial voter\r\n        voters[msg.sender] = Voter({\r\n            voterAddress: msg.sender,\r\n            votingPower: 100,\r\n            proposalsCreated: 0,\r\n            votesParticipated: 0,\r\n            isActive: true\r\n        });\r\n        voterList.push(msg.sender);\r\n        totalVotingPower = 100;\r\n    }\r\n\r\n    /**\r\n     * @dev Create a proposal to accredit a new issuer\r\n     */\r\n    function proposeAccreditIssuer(\r\n        address issuerAddress,\r\n        string memory description\r\n    ) external onlyVoter whenNotPaused returns (uint256) {\r\n        require(\r\n            issuerRegistry.isRegistered(issuerAddress),\r\n            \"IssuerDAO: Issuer not registered\"\r\n        );\r\n        require(\r\n            !issuerRegistry.isAccredited(issuerAddress),\r\n            \"IssuerDAO: Already accredited\"\r\n        );\r\n        require(\r\n            voters[msg.sender].votingPower >= proposalThreshold,\r\n            \"IssuerDAO: Below proposal threshold\"\r\n        );\r\n\r\n        return\r\n            _createProposal(\r\n                ProposalAction.AccreditIssuer,\r\n                issuerAddress,\r\n                description\r\n            );\r\n    }\r\n\r\n    /**\r\n     * @dev Create a proposal to revoke an issuer\r\n     */\r\n    function proposeRevokeIssuer(\r\n        address issuerAddress,\r\n        string memory description\r\n    ) external onlyVoter whenNotPaused returns (uint256) {\r\n        require(\r\n            issuerRegistry.isAccredited(issuerAddress),\r\n            \"IssuerDAO: Issuer not accredited\"\r\n        );\r\n\r\n        return\r\n            _createProposal(\r\n                ProposalAction.RevokeIssuer,\r\n                issuerAddress,\r\n                description\r\n            );\r\n    }\r\n\r\n    /**\r\n     * @dev Create a proposal to suspend an issuer\r\n     */\r\n    function proposeSuspendIssuer(\r\n        address issuerAddress,\r\n        string memory description\r\n    ) external onlyVoter whenNotPaused returns (uint256) {\r\n        require(\r\n            issuerRegistry.isRegistered(issuerAddress),\r\n            \"IssuerDAO: Issuer not registered\"\r\n        );\r\n        require(\r\n            !issuerRegistry.isSuspended(issuerAddress),\r\n            \"IssuerDAO: Already suspended\"\r\n        );\r\n\r\n        return\r\n            _createProposal(\r\n                ProposalAction.SuspendIssuer,\r\n                issuerAddress,\r\n                description\r\n            );\r\n    }\r\n\r\n    /**\r\n     * @dev Create a proposal to reactivate an issuer\r\n     */\r\n    function proposeReactivateIssuer(\r\n        address issuerAddress,\r\n        string memory description\r\n    ) external onlyVoter whenNotPaused returns (uint256) {\r\n        require(\r\n            issuerRegistry.isSuspended(issuerAddress),\r\n            \"IssuerDAO: Issuer not suspended\"\r\n        );\r\n\r\n        return\r\n            _createProposal(\r\n                ProposalAction.ReactivateIssuer,\r\n                issuerAddress,\r\n                description\r\n            );\r\n    }\r\n\r\n    /**\r\n     * @dev Internal function to create a proposal\r\n     */\r\n    function _createProposal(\r\n        ProposalAction action,\r\n        address targetIssuer,\r\n        string memory description\r\n    ) internal returns (uint256) {\r\n        proposalCount++;\r\n        uint256 proposalId = proposalCount;\r\n\r\n        Proposal storage newProposal = proposals[proposalId];\r\n        newProposal.id = proposalId;\r\n        newProposal.proposer = msg.sender;\r\n        newProposal.action = action;\r\n        newProposal.targetIssuer = targetIssuer;\r\n        newProposal.description = description;\r\n        newProposal.startBlock = block.number + (votingDelay / 12); // ~12 sec per block\r\n        newProposal.endBlock = newProposal.startBlock + (votingPeriod / 12);\r\n        newProposal.canceled = false;\r\n        newProposal.executed = false;\r\n\r\n        voters[msg.sender].proposalsCreated++;\r\n\r\n        emit ProposalCreated(\r\n            proposalId,\r\n            msg.sender,\r\n            action,\r\n            targetIssuer,\r\n            newProposal.startBlock,\r\n            newProposal.endBlock,\r\n            description\r\n        );\r\n\r\n        return proposalId;\r\n    }\r\n\r\n    /**\r\n     * @dev Cast a vote on a proposal\r\n     * @param proposalId The proposal ID\r\n     * @param support 0=against, 1=for, 2=abstain\r\n     * @param reason Reason for the vote\r\n     */\r\n    function castVote(\r\n        uint256 proposalId,\r\n        uint8 support,\r\n        string memory reason\r\n    ) external onlyVoter whenNotPaused {\r\n        require(support <= 2, \"IssuerDAO: Invalid support value\");\r\n        require(\r\n            state(proposalId) == ProposalState.Active,\r\n            \"IssuerDAO: Voting not active\"\r\n        );\r\n\r\n        Proposal storage proposal = proposals[proposalId];\r\n        Receipt storage receipt = proposal.receipts[msg.sender];\r\n\r\n        require(!receipt.hasVoted, \"IssuerDAO: Already voted\");\r\n\r\n        uint256 votes = voters[msg.sender].votingPower;\r\n\r\n        if (support == 0) {\r\n            proposal.againstVotes += votes;\r\n        } else if (support == 1) {\r\n            proposal.forVotes += votes;\r\n        } else {\r\n            proposal.abstainVotes += votes;\r\n        }\r\n\r\n        receipt.hasVoted = true;\r\n        receipt.support = support;\r\n        receipt.votes = votes;\r\n\r\n        voters[msg.sender].votesParticipated++;\r\n\r\n        emit VoteCast(msg.sender, proposalId, support, votes, reason);\r\n    }\r\n\r\n    /**\r\n     * @dev Queue a successful proposal for execution\r\n     */\r\n    function queueProposal(uint256 proposalId) external whenNotPaused {\r\n        require(\r\n            state(proposalId) == ProposalState.Succeeded,\r\n            \"IssuerDAO: Proposal not succeeded\"\r\n        );\r\n\r\n        Proposal storage proposal = proposals[proposalId];\r\n        uint256 eta = block.timestamp + timelock.delay();\r\n        proposal.eta = eta;\r\n\r\n        emit ProposalQueued(proposalId, eta);\r\n    }\r\n\r\n    /**\r\n     * @dev Execute a queued proposal\r\n     */\r\n    function executeProposal(\r\n        uint256 proposalId\r\n    ) external nonReentrant whenNotPaused {\r\n        require(\r\n            state(proposalId) == ProposalState.Queued,\r\n            \"IssuerDAO: Proposal not queued\"\r\n        );\r\n\r\n        Proposal storage proposal = proposals[proposalId];\r\n        require(\r\n            block.timestamp >= proposal.eta,\r\n            \"IssuerDAO: Timelock not expired\"\r\n        );\r\n        require(\r\n            block.timestamp <= proposal.eta + timelock.gracePeriod(),\r\n            \"IssuerDAO: Transaction stale\"\r\n        );\r\n\r\n        proposal.executed = true;\r\n\r\n        // Execute the proposal action\r\n        if (proposal.action == ProposalAction.AccreditIssuer) {\r\n            issuerRegistry.accreditIssuer(proposal.targetIssuer);\r\n        } else if (proposal.action == ProposalAction.RevokeIssuer) {\r\n            issuerRegistry.revokeIssuer(\r\n                proposal.targetIssuer,\r\n                proposal.description\r\n            );\r\n        } else if (proposal.action == ProposalAction.SuspendIssuer) {\r\n            issuerRegistry.suspendIssuer(\r\n                proposal.targetIssuer,\r\n                proposal.description\r\n            );\r\n        } else if (proposal.action == ProposalAction.ReactivateIssuer) {\r\n            issuerRegistry.reactivateIssuer(proposal.targetIssuer);\r\n        }\r\n\r\n        emit ProposalExecuted(proposalId);\r\n    }\r\n\r\n    /**\r\n     * @dev Cancel a proposal (only by proposer or admin)\r\n     */\r\n    function cancelProposal(uint256 proposalId) external {\r\n        Proposal storage proposal = proposals[proposalId];\r\n        require(!proposal.executed, \"IssuerDAO: Proposal already executed\");\r\n        require(\r\n            msg.sender == proposal.proposer || hasRole(ADMIN_ROLE, msg.sender),\r\n            \"IssuerDAO: Not authorized\"\r\n        );\r\n\r\n        proposal.canceled = true;\r\n\r\n        emit ProposalCanceled(proposalId);\r\n    }\r\n\r\n    /**\r\n     * @dev Get proposal state\r\n     */\r\n    function state(uint256 proposalId) public view returns (ProposalState) {\r\n        Proposal storage proposal = proposals[proposalId];\r\n        require(proposal.id != 0, \"IssuerDAO: Invalid proposal\");\r\n\r\n        if (proposal.canceled) {\r\n            return ProposalState.Canceled;\r\n        } else if (block.number <= proposal.startBlock) {\r\n            return ProposalState.Pending;\r\n        } else if (block.number <= proposal.endBlock) {\r\n            return ProposalState.Active;\r\n        } else if (\r\n            proposal.forVotes <= proposal.againstVotes ||\r\n            !_quorumReached(proposalId)\r\n        ) {\r\n            return ProposalState.Defeated;\r\n        } else if (proposal.eta == 0) {\r\n            return ProposalState.Succeeded;\r\n        } else if (proposal.executed) {\r\n            return ProposalState.Executed;\r\n        } else if (block.timestamp >= proposal.eta + timelock.gracePeriod()) {\r\n            return ProposalState.Expired;\r\n        } else {\r\n            return ProposalState.Queued;\r\n        }\r\n    }\r\n\r\n    /**\r\n     * @dev Check if quorum has been reached\r\n     */\r\n    function _quorumReached(uint256 proposalId) internal view returns (bool) {\r\n        Proposal storage proposal = proposals[proposalId];\r\n        uint256 totalVotes = proposal.forVotes +\r\n            proposal.againstVotes +\r\n            proposal.abstainVotes;\r\n        uint256 quorumVotes = (totalVotingPower * quorumPercentage) / 100;\r\n        return totalVotes >= quorumVotes;\r\n    }\r\n\r\n    /**\r\n     * @dev Add a new voter\r\n     */\r\n    function addVoter(\r\n        address voterAddress,\r\n        uint256 votingPower\r\n    ) external onlyRole(ADMIN_ROLE) {\r\n        require(voterAddress != address(0), \"IssuerDAO: Invalid address\");\r\n        require(!voters[voterAddress].isActive, \"IssuerDAO: Already a voter\");\r\n        require(votingPower > 0, \"IssuerDAO: Invalid voting power\");\r\n\r\n        grantRole(VOTER_ROLE, voterAddress);\r\n\r\n        voters[voterAddress] = Voter({\r\n            voterAddress: voterAddress,\r\n            votingPower: votingPower,\r\n            proposalsCreated: 0,\r\n            votesParticipated: 0,\r\n            isActive: true\r\n        });\r\n\r\n        voterList.push(voterAddress);\r\n        totalVotingPower += votingPower;\r\n\r\n        emit VoterAdded(voterAddress, votingPower);\r\n    }\r\n\r\n    /**\r\n     * @dev Remove a voter\r\n     */\r\n    function removeVoter(address voterAddress) external onlyRole(ADMIN_ROLE) {\r\n        require(\r\n            voters[voterAddress].isActive,\r\n            \"IssuerDAO: Not an active voter\"\r\n        );\r\n\r\n        revokeRole(VOTER_ROLE, voterAddress);\r\n\r\n        totalVotingPower -= voters[voterAddress].votingPower;\r\n        voters[voterAddress].isActive = false;\r\n\r\n        emit VoterRemoved(voterAddress);\r\n    }\r\n\r\n    /**\r\n     * @dev Update voter's voting power\r\n     */\r\n    function updateVotingPower(\r\n        address voterAddress,\r\n        uint256 newVotingPower\r\n    ) external onlyRole(ADMIN_ROLE) {\r\n        require(\r\n            voters[voterAddress].isActive,\r\n            \"IssuerDAO: Not an active voter\"\r\n        );\r\n        require(newVotingPower > 0, \"IssuerDAO: Invalid voting power\");\r\n\r\n        uint256 oldPower = voters[voterAddress].votingPower;\r\n        totalVotingPower = totalVotingPower - oldPower + newVotingPower;\r\n        voters[voterAddress].votingPower = newVotingPower;\r\n\r\n        emit VotingPowerUpdated(voterAddress, newVotingPower);\r\n    }\r\n\r\n    // Add this struct after the Proposal struct definition\r\n    struct ProposalView {\r\n        uint256 id;\r\n        address proposer;\r\n        ProposalAction action;\r\n        address targetIssuer;\r\n        string description;\r\n        uint256 forVotes;\r\n        uint256 againstVotes;\r\n        uint256 abstainVotes;\r\n        uint256 startBlock;\r\n        uint256 endBlock;\r\n        uint256 eta;\r\n        bool canceled;\r\n        bool executed;\r\n    }\r\n\r\n    /**\r\n     * @dev Get proposal details - Returns struct to avoid stack too deep\r\n     */\r\n    function getProposal(\r\n        uint256 proposalId\r\n    ) external view returns (ProposalView memory) {\r\n        Proposal storage p = proposals[proposalId];\r\n\r\n        return\r\n            ProposalView({\r\n                id: p.id,\r\n                proposer: p.proposer,\r\n                action: p.action,\r\n                targetIssuer: p.targetIssuer,\r\n                description: p.description,\r\n                forVotes: p.forVotes,\r\n                againstVotes: p.againstVotes,\r\n                abstainVotes: p.abstainVotes,\r\n                startBlock: p.startBlock,\r\n                endBlock: p.endBlock,\r\n                eta: p.eta,\r\n                canceled: p.canceled,\r\n                executed: p.executed\r\n            });\r\n    }\r\n\r\n    /**\r\n     * @dev Get voter's receipt for a proposal\r\n     */\r\n    function getReceipt(\r\n        uint256 proposalId,\r\n        address voter\r\n    ) external view returns (bool hasVoted, uint8 support, uint256 votes) {\r\n        Receipt storage receipt = proposals[proposalId].receipts[voter];\r\n        return (receipt.hasVoted, receipt.support, receipt.votes);\r\n    }\r\n\r\n    /**\r\n     * @dev Get all voters\r\n     */\r\n    function getAllVoters() external view returns (address[] memory) {\r\n        return voterList;\r\n    }\r\n\r\n    /**\r\n     * @dev Update voting period\r\n     */\r\n    function updateVotingPeriod(\r\n        uint256 newPeriod\r\n    ) external onlyRole(ADMIN_ROLE) {\r\n        require(\r\n            newPeriod >= 1 days && newPeriod <= 30 days,\r\n            \"IssuerDAO: Invalid period\"\r\n        );\r\n        votingPeriod = newPeriod;\r\n    }\r\n\r\n    /**\r\n     * @dev Update quorum percentage\r\n     */\r\n    function updateQuorum(uint256 newQuorum) external onlyRole(ADMIN_ROLE) {\r\n        require(newQuorum > 0 && newQuorum <= 100, \"IssuerDAO: Invalid quorum\");\r\n        quorumPercentage = newQuorum;\r\n    }\r\n\r\n    /**\r\n     * @dev Pause DAO\r\n     */\r\n    function pause() external onlyRole(ADMIN_ROLE) {\r\n        _pause();\r\n    }\r\n\r\n    /**\r\n     * @dev Unpause DAO\r\n     */\r\n    function unpause() external onlyRole(ADMIN_ROLE) {\r\n        _unpause();\r\n    }\r\n}\r\n",
  "sourcePath": "E:\\Projects\\NIT Hacks\\NITHACKS_BLOCKCHAIN\\blockchain\\contracts\\governance\\IssuerDAO.sol",
  "compiler": {
    "name": "solc",
    "version": "0.8.20+commit.a1b79de6.Emscripten.clang"
  },
  "schemaVersion": "3.4.16",
  "updatedAt": "2025-11-22T14:27:22.514Z",
  "networkType": "ethereum",
  "devdoc": {
    "details": "Decentralized Autonomous Organization for governing issuer accreditation Implements proposal-based voting for accrediting, revoking, and suspending issuers",
    "events": {
      "Paused(address)": {
        "details": "Emitted when the pause is triggered by `account`."
      },
      "RoleAdminChanged(bytes32,bytes32,bytes32)": {
        "details": "Emitted when `newAdminRole` is set as ``role``'s admin role, replacing `previousAdminRole` `DEFAULT_ADMIN_ROLE` is the starting admin for all roles, despite {RoleAdminChanged} not being emitted signaling this. _Available since v3.1._"
      },
      "RoleGranted(bytes32,address,address)": {
        "details": "Emitted when `account` is granted `role`. `sender` is the account that originated the contract call, an admin role bearer except when using {AccessControl-_setupRole}."
      },
      "RoleRevoked(bytes32,address,address)": {
        "details": "Emitted when `account` is revoked `role`. `sender` is the account that originated the contract call:   - if using `revokeRole`, it is the admin role bearer   - if using `renounceRole`, it is the role bearer (i.e. `account`)"
      },
      "Unpaused(address)": {
        "details": "Emitted when the pause is lifted by `account`."
      }
    },
    "kind": "dev",
    "methods": {
      "addVoter(address,uint256)": {
        "details": "Add a new voter"
      },
      "cancelProposal(uint256)": {
        "details": "Cancel a proposal (only by proposer or admin)"
      },
      "castVote(uint256,uint8,string)": {
        "details": "Cast a vote on a proposal",
        "params": {
          "proposalId": "The proposal ID",
          "reason": "Reason for the vote",
          "support": "0=against, 1=for, 2=abstain"
        }
      },
      "executeProposal(uint256)": {
        "details": "Execute a queued proposal"
      },
      "getAllVoters()": {
        "details": "Get all voters"
      },
      "getProposal(uint256)": {
        "details": "Get proposal details - Returns struct to avoid stack too deep"
      },
      "getReceipt(uint256,address)": {
        "details": "Get voter's receipt for a proposal"
      },
      "getRoleAdmin(bytes32)": {
        "details": "Returns the admin role that controls `role`. See {grantRole} and {revokeRole}. To change a role's admin, use {_setRoleAdmin}."
      },
      "grantRole(bytes32,address)": {
        "details": "Grants `role` to `account`. If `account` had not been already granted `role`, emits a {RoleGranted} event. Requirements: - the caller must have ``role``'s admin role. May emit a {RoleGranted} event."
      },
      "hasRole(bytes32,address)": {
        "details": "Returns `true` if `account` has been granted `role`."
      },
      "pause()": {
        "details": "Pause DAO"
      },
      "paused()": {
        "details": "Returns true if the contract is paused, and false otherwise."
      },
      "proposeAccreditIssuer(address,string)": {
        "details": "Create a proposal to accredit a new issuer"
      },
      "proposeReactivateIssuer(address,string)": {
        "details": "Create a proposal to reactivate an issuer"
      },
      "proposeRevokeIssuer(address,string)": {
        "details": "Create a proposal to revoke an issuer"
      },
      "proposeSuspendIssuer(address,string)": {
        "details": "Create a proposal to suspend an issuer"
      },
      "queueProposal(uint256)": {
        "details": "Queue a successful proposal for execution"
      },
      "removeVoter(address)": {
        "details": "Remove a voter"
      },
      "renounceRole(bytes32,address)": {
        "details": "Revokes `role` from the calling account. Roles are often managed via {grantRole} and {revokeRole}: this function's purpose is to provide a mechanism for accounts to lose their privileges if they are compromised (such as when a trusted device is misplaced). If the calling account had been revoked `role`, emits a {RoleRevoked} event. Requirements: - the caller must be `account`. May emit a {RoleRevoked} event."
      },
      "revokeRole(bytes32,address)": {
        "details": "Revokes `role` from `account`. If `account` had been granted `role`, emits a {RoleRevoked} event. Requirements: - the caller must have ``role``'s admin role. May emit a {RoleRevoked} event."
      },
      "state(uint256)": {
        "details": "Get proposal state"
      },
      "supportsInterface(bytes4)": {
        "details": "See {IERC165-supportsInterface}."
      },
      "unpause()": {
        "details": "Unpause DAO"
      },
      "updateQuorum(uint256)": {
        "details": "Update quorum percentage"
      },
      "updateVotingPeriod(uint256)": {
        "details": "Update voting period"
      },
      "updateVotingPower(address,uint256)": {
        "details": "Update voter's voting power"
      }
    },
    "title": "IssuerDAO",
    "version": 1
  },
  "userdoc": {
    "kind": "user",
    "methods": {},
    "version": 1
  }
}