{
  "contractName": "IssuerRegistry",
  "abi": [
    {
      "inputs": [],
      "stateMutability": "nonpayable",
      "type": "constructor"
    },
    {
      "anonymous": false,
      "inputs": [
        {
          "indexed": true,
          "internalType": "address",
          "name": "issuerAddress",
          "type": "address"
        },
        {
          "indexed": false,
          "internalType": "uint256",
          "name": "accreditationDate",
          "type": "uint256"
        },
        {
          "indexed": true,
          "internalType": "address",
          "name": "accreditedBy",
          "type": "address"
        }
      ],
      "name": "IssuerAccredited",
      "type": "event"
    },
    {
      "anonymous": false,
      "inputs": [
        {
          "indexed": true,
          "internalType": "address",
          "name": "issuerAddress",
          "type": "address"
        },
        {
          "indexed": false,
          "internalType": "uint256",
          "name": "reactivationDate",
          "type": "uint256"
        }
      ],
      "name": "IssuerReactivated",
      "type": "event"
    },
    {
      "anonymous": false,
      "inputs": [
        {
          "indexed": true,
          "internalType": "address",
          "name": "issuerAddress",
          "type": "address"
        },
        {
          "indexed": false,
          "internalType": "string",
          "name": "name",
          "type": "string"
        },
        {
          "indexed": false,
          "internalType": "uint256",
          "name": "registrationDate",
          "type": "uint256"
        }
      ],
      "name": "IssuerRegistered",
      "type": "event"
    },
    {
      "anonymous": false,
      "inputs": [
        {
          "indexed": true,
          "internalType": "address",
          "name": "issuerAddress",
          "type": "address"
        },
        {
          "indexed": false,
          "internalType": "uint256",
          "name": "revocationDate",
          "type": "uint256"
        },
        {
          "indexed": false,
          "internalType": "string",
          "name": "reason",
          "type": "string"
        },
        {
          "indexed": true,
          "internalType": "address",
          "name": "revokedBy",
          "type": "address"
        }
      ],
      "name": "IssuerRevoked",
      "type": "event"
    },
    {
      "anonymous": false,
      "inputs": [
        {
          "indexed": true,
          "internalType": "address",
          "name": "issuerAddress",
          "type": "address"
        },
        {
          "indexed": false,
          "internalType": "uint256",
          "name": "suspensionDate",
          "type": "uint256"
        },
        {
          "indexed": false,
          "internalType": "string",
          "name": "reason",
          "type": "string"
        }
      ],
      "name": "IssuerSuspended",
      "type": "event"
    },
    {
      "anonymous": false,
      "inputs": [
        {
          "indexed": true,
          "internalType": "address",
          "name": "issuerAddress",
          "type": "address"
        },
        {
          "indexed": false,
          "internalType": "string",
          "name": "newName",
          "type": "string"
        },
        {
          "indexed": false,
          "internalType": "uint256",
          "name": "updateDate",
          "type": "uint256"
        }
      ],
      "name": "IssuerUpdated",
      "type": "event"
    },
    {
      "anonymous": false,
      "inputs": [
        {
          "indexed": false,
          "internalType": "address",
          "name": "account",
          "type": "address"
        }
      ],
      "name": "Paused",
      "type": "event"
    },
    {
      "anonymous": false,
      "inputs": [
        {
          "indexed": true,
          "internalType": "bytes32",
          "name": "role",
          "type": "bytes32"
        },
        {
          "indexed": true,
          "internalType": "bytes32",
          "name": "previousAdminRole",
          "type": "bytes32"
        },
        {
          "indexed": true,
          "internalType": "bytes32",
          "name": "newAdminRole",
          "type": "bytes32"
        }
      ],
      "name": "RoleAdminChanged",
      "type": "event"
    },
    {
      "anonymous": false,
      "inputs": [
        {
          "indexed": true,
          "internalType": "bytes32",
          "name": "role",
          "type": "bytes32"
        },
        {
          "indexed": true,
          "internalType": "address",
          "name": "account",
          "type": "address"
        },
        {
          "indexed": true,
          "internalType": "address",
          "name": "sender",
          "type": "address"
        }
      ],
      "name": "RoleGranted",
      "type": "event"
    },
    {
      "anonymous": false,
      "inputs": [
        {
          "indexed": true,
          "internalType": "bytes32",
          "name": "role",
          "type": "bytes32"
        },
        {
          "indexed": true,
          "internalType": "address",
          "name": "account",
          "type": "address"
        },
        {
          "indexed": true,
          "internalType": "address",
          "name": "sender",
          "type": "address"
        }
      ],
      "name": "RoleRevoked",
      "type": "event"
    },
    {
      "anonymous": false,
      "inputs": [
        {
          "indexed": false,
          "internalType": "address",
          "name": "account",
          "type": "address"
        }
      ],
      "name": "Unpaused",
      "type": "event"
    },
    {
      "inputs": [],
      "name": "ACCREDITOR_ROLE",
      "outputs": [
        {
          "internalType": "bytes32",
          "name": "",
          "type": "bytes32"
        }
      ],
      "stateMutability": "view",
      "type": "function",
      "constant": true
    },
    {
      "inputs": [],
      "name": "ADMIN_ROLE",
      "outputs": [
        {
          "internalType": "bytes32",
          "name": "",
          "type": "bytes32"
        }
      ],
      "stateMutability": "view",
      "type": "function",
      "constant": true
    },
    {
      "inputs": [],
      "name": "DEFAULT_ADMIN_ROLE",
      "outputs": [
        {
          "internalType": "bytes32",
          "name": "",
          "type": "bytes32"
        }
      ],
      "stateMutability": "view",
      "type": "function",
      "constant": true
    },
    {
      "inputs": [
        {
          "internalType": "bytes32",
          "name": "role",
          "type": "bytes32"
        }
      ],
      "name": "getRoleAdmin",
      "outputs": [
        {
          "internalType": "bytes32",
          "name": "",
          "type": "bytes32"
        }
      ],
      "stateMutability": "view",
      "type": "function",
      "constant": true
    },
    {
      "inputs": [
        {
          "internalType": "bytes32",
          "name": "role",
          "type": "bytes32"
        },
        {
          "internalType": "address",
          "name": "account",
          "type": "address"
        }
      ],
      "name": "grantRole",
      "outputs": [],
      "stateMutability": "nonpayable",
      "type": "function"
    },
    {
      "inputs": [
        {
          "internalType": "bytes32",
          "name": "role",
          "type": "bytes32"
        },
        {
          "internalType": "address",
          "name": "account",
          "type": "address"
        }
      ],
      "name": "hasRole",
      "outputs": [
        {
          "internalType": "bool",
          "name": "",
          "type": "bool"
        }
      ],
      "stateMutability": "view",
      "type": "function",
      "constant": true
    },
    {
      "inputs": [],
      "name": "paused",
      "outputs": [
        {
          "internalType": "bool",
          "name": "",
          "type": "bool"
        }
      ],
      "stateMutability": "view",
      "type": "function",
      "constant": true
    },
    {
      "inputs": [
        {
          "internalType": "bytes32",
          "name": "role",
          "type": "bytes32"
        },
        {
          "internalType": "address",
          "name": "account",
          "type": "address"
        }
      ],
      "name": "renounceRole",
      "outputs": [],
      "stateMutability": "nonpayable",
      "type": "function"
    },
    {
      "inputs": [
        {
          "internalType": "bytes32",
          "name": "role",
          "type": "bytes32"
        },
        {
          "internalType": "address",
          "name": "account",
          "type": "address"
        }
      ],
      "name": "revokeRole",
      "outputs": [],
      "stateMutability": "nonpayable",
      "type": "function"
    },
    {
      "inputs": [
        {
          "internalType": "bytes4",
          "name": "interfaceId",
          "type": "bytes4"
        }
      ],
      "name": "supportsInterface",
      "outputs": [
        {
          "internalType": "bool",
          "name": "",
          "type": "bool"
        }
      ],
      "stateMutability": "view",
      "type": "function",
      "constant": true
    },
    {
      "inputs": [
        {
          "internalType": "address",
          "name": "issuerAddress",
          "type": "address"
        },
        {
          "internalType": "string",
          "name": "name",
          "type": "string"
        },
        {
          "internalType": "string",
          "name": "metadataURI",
          "type": "string"
        }
      ],
      "name": "registerIssuer",
      "outputs": [],
      "stateMutability": "nonpayable",
      "type": "function"
    },
    {
      "inputs": [
        {
          "internalType": "address",
          "name": "issuerAddress",
          "type": "address"
        }
      ],
      "name": "accreditIssuer",
      "outputs": [],
      "stateMutability": "nonpayable",
      "type": "function"
    },
    {
      "inputs": [
        {
          "internalType": "address",
          "name": "issuerAddress",
          "type": "address"
        },
        {
          "internalType": "string",
          "name": "reason",
          "type": "string"
        }
      ],
      "name": "revokeIssuer",
      "outputs": [],
      "stateMutability": "nonpayable",
      "type": "function"
    },
    {
      "inputs": [
        {
          "internalType": "address",
          "name": "issuerAddress",
          "type": "address"
        },
        {
          "internalType": "string",
          "name": "reason",
          "type": "string"
        }
      ],
      "name": "suspendIssuer",
      "outputs": [],
      "stateMutability": "nonpayable",
      "type": "function"
    },
    {
      "inputs": [
        {
          "internalType": "address",
          "name": "issuerAddress",
          "type": "address"
        }
      ],
      "name": "reactivateIssuer",
      "outputs": [],
      "stateMutability": "nonpayable",
      "type": "function"
    },
    {
      "inputs": [
        {
          "internalType": "address",
          "name": "issuerAddress",
          "type": "address"
        },
        {
          "internalType": "string",
          "name": "newName",
          "type": "string"
        },
        {
          "internalType": "string",
          "name": "newMetadataURI",
          "type": "string"
        }
      ],
      "name": "updateIssuer",
      "outputs": [],
      "stateMutability": "nonpayable",
      "type": "function"
    },
    {
      "inputs": [
        {
          "internalType": "address",
          "name": "issuerAddress",
          "type": "address"
        }
      ],
      "name": "isAccredited",
      "outputs": [
        {
          "internalType": "bool",
          "name": "",
          "type": "bool"
        }
      ],
      "stateMutability": "view",
      "type": "function",
      "constant": true
    },
    {
      "inputs": [
        {
          "internalType": "address",
          "name": "issuerAddress",
          "type": "address"
        }
      ],
      "name": "isRegistered",
      "outputs": [
        {
          "internalType": "bool",
          "name": "",
          "type": "bool"
        }
      ],
      "stateMutability": "view",
      "type": "function",
      "constant": true
    },
    {
      "inputs": [
        {
          "internalType": "address",
          "name": "issuerAddress",
          "type": "address"
        }
      ],
      "name": "getIssuer",
      "outputs": [
        {
          "components": [
            {
              "internalType": "address",
              "name": "issuerAddress",
              "type": "address"
            },
            {
              "internalType": "string",
              "name": "name",
              "type": "string"
            },
            {
              "internalType": "bool",
              "name": "isAccredited",
              "type": "bool"
            },
            {
              "internalType": "uint256",
              "name": "accreditationDate",
              "type": "uint256"
            },
            {
              "internalType": "uint256",
              "name": "totalIssued",
              "type": "uint256"
            }
          ],
          "internalType": "struct CredentialTypes.Issuer",
          "name": "",
          "type": "tuple"
        }
      ],
      "stateMutability": "view",
      "type": "function",
      "constant": true
    },
    {
      "inputs": [],
      "name": "getAllAccreditedIssuers",
      "outputs": [
        {
          "internalType": "address[]",
          "name": "",
          "type": "address[]"
        }
      ],
      "stateMutability": "view",
      "type": "function",
      "constant": true
    },
    {
      "inputs": [],
      "name": "getAccreditedIssuerCount",
      "outputs": [
        {
          "internalType": "uint256",
          "name": "",
          "type": "uint256"
        }
      ],
      "stateMutability": "view",
      "type": "function",
      "constant": true
    },
    {
      "inputs": [
        {
          "internalType": "address",
          "name": "issuerAddress",
          "type": "address"
        }
      ],
      "name": "getIssuerCredentialCount",
      "outputs": [
        {
          "internalType": "uint256",
          "name": "",
          "type": "uint256"
        }
      ],
      "stateMutability": "view",
      "type": "function",
      "constant": true
    },
    {
      "inputs": [
        {
          "internalType": "address",
          "name": "issuerAddress",
          "type": "address"
        }
      ],
      "name": "incrementIssuerCredentialCount",
      "outputs": [],
      "stateMutability": "nonpayable",
      "type": "function"
    },
    {
      "inputs": [
        {
          "internalType": "address",
          "name": "issuerAddress",
          "type": "address"
        }
      ],
      "name": "isSuspended",
      "outputs": [
        {
          "internalType": "bool",
          "name": "",
          "type": "bool"
        }
      ],
      "stateMutability": "view",
      "type": "function",
      "constant": true
    },
    {
      "inputs": [
        {
          "internalType": "address",
          "name": "issuerAddress",
          "type": "address"
        }
      ],
      "name": "getIssuerMetadataURI",
      "outputs": [
        {
          "internalType": "string",
          "name": "",
          "type": "string"
        }
      ],
      "stateMutability": "view",
      "type": "function",
      "constant": true
    },
    {
      "inputs": [],
      "name": "getAllIssuers",
      "outputs": [
        {
          "internalType": "address[]",
          "name": "",
          "type": "address[]"
        }
      ],
      "stateMutability": "view",
      "type": "function",
      "constant": true
    },
    {
      "inputs": [],
      "name": "pause",
      "outputs": [],
      "stateMutability": "nonpayable",
      "type": "function"
    },
    {
      "inputs": [],
      "name": "unpause",
      "outputs": [],
      "stateMutability": "nonpayable",
      "type": "function"
    }
  ],
  "bytecode": "0x60806040523480156200001157600080fd5b506001805460ff191690556200002960003362000087565b620000557fa49807205ce4d355092ef5a8a18f56e8913cf4a201fbe287825b095693c217753362000087565b620000817fb7dd0da17e548d887873c37efb78b7f3dd17f1447207989a953d673244d7f1443362000087565b62000137565b62000093828262000097565b5050565b6000828152602081815260408083206001600160a01b038516845290915290205460ff1662000093576000828152602081815260408083206001600160a01b03851684529091529020805460ff19166001179055620000f33390565b6001600160a01b0316816001600160a01b0316837f2f8788117e7eff1d82e926ec794901d17c78024a50270940304540a733656f0d60405160405180910390a45050565b611efc80620001476000396000f3fe608060405234801561001057600080fd5b50600436106101c45760003560e01c806359d9ef24116100f95780639bc24c6511610097578063ae02652311610071578063ae026523146103db578063c3c5a547146103ee578063d547741f1461041a578063fef03da31461042d57600080fd5b80639bc24c65146103975780639c353f19146103aa578063a217fddf146103d357600080fd5b806375b238fc116100d357806375b238fc1461035f57806375fdc4ed146103745780638456cb591461037c57806391d148541461038457600080fd5b806359d9ef241461032e5780635c975abb1461034157806363e410211461034c57600080fd5b80632b43c5f11161016657806336568abe1161014057806336568abe146102f85780633f4ba83a1461030b578063451c3671146103135780634c32c35c1461032657600080fd5b80632b43c5f1146102bf5780632d598d7b146102d25780632f2ff15d146102e557600080fd5b80631b76637e116101a25780631b76637e14610226578063232e0e9a1461023b578063248a9ca31461026757806327b381cf1461029857600080fd5b806301ffc9a7146101c95780630e848d77146101f15780631ac64d3e14610206575b600080fd5b6101dc6101d736600461189d565b61044d565b60405190151581526020015b60405180910390f35b6101f9610484565b6040516101e891906118c7565b610219610214366004611930565b6104e6565b6040516101e8919061199b565b610239610234366004611930565b6105d2565b005b6101dc610249366004611930565b6001600160a01b031660009081526004602052604090205460ff1690565b61028a6102753660046119ae565b60009081526020819052604090206001015490565b6040519081526020016101e8565b61028a7fb7dd0da17e548d887873c37efb78b7f3dd17f1447207989a953d673244d7f14481565b6102396102cd366004611a6a565b6106f0565b6101dc6102e0366004611930565b610845565b6102396102f3366004611ab8565b61088b565b610239610306366004611ab8565b6108b5565b610239610933565b610239610321366004611ae4565b610956565b6101f9610aad565b61023961033c366004611a6a565b610b0d565b60015460ff166101dc565b61023961035a366004611ae4565b610c79565b61028a600080516020611ea783398151915281565b60065461028a565b610239610f12565b6101dc610392366004611ab8565b610f32565b6102396103a5366004611930565b610f5b565b61028a6103b8366004611930565b6001600160a01b031660009081526008602052604090205490565b61028a600081565b6102396103e9366004611930565b61115e565b6101dc6103fc366004611930565b6001600160a01b031660009081526003602052604090205460ff1690565b610239610428366004611ab8565b6111ee565b61044061043b366004611930565b611213565b6040516101e89190611b58565b60006001600160e01b03198216637965db0b60e01b148061047e57506301ffc9a760e01b6001600160e01b03198316145b92915050565b606060068054806020026020016040519081016040528092919081815260200182805480156104dc57602002820191906000526020600020905b81546001600160a01b031681526001909101906020018083116104be575b5050505050905090565b6001600160a01b03811660009081526003602052604090205460609060ff1661052a5760405162461bcd60e51b815260040161052190611bb2565b60405180910390fd5b6001600160a01b0382166000908152600560205260409020805461054d90611bf7565b80601f016020809104026020016040519081016040528092919081815260200182805461057990611bf7565b80156105c65780601f1061059b576101008083540402835291602001916105c6565b820191906000526020600020905b8154815290600101906020018083116105a957829003601f168201915b50505050509050919050565b600080516020611ea78339815191526105ea81611377565b6105f2611381565b6001600160a01b03821660009081526003602052604090205460ff1661062a5760405162461bcd60e51b815260040161052190611bb2565b6001600160a01b03821660009081526004602052604090205460ff166106925760405162461bcd60e51b815260206004820152601d60248201527f49737375657252656769737472793a204e6f742073757370656e6465640000006044820152606401610521565b6001600160a01b03821660008181526004602052604090819020805460ff19169055517fbbac641da8ffcc509ce22b19dd0148b9563c9ee610dd9daeac2135fc6014a822906106e49042815260200190565b60405180910390a25050565b7fb7dd0da17e548d887873c37efb78b7f3dd17f1447207989a953d673244d7f14461071a81611377565b610722611381565b6001600160a01b03831660009081526003602052604090205460ff1661075a5760405162461bcd60e51b815260040161052190611bb2565b6001600160a01b0383166000908152600260208190526040909120015460ff166107c65760405162461bcd60e51b815260206004820152601e60248201527f49737375657252656769737472793a204e6f74206163637265646974656400006044820152606401610521565b6001600160a01b038316600090815260026020819052604090912001805460ff191690556107f3836113c9565b336001600160a01b0316836001600160a01b03167fa8d27343a0ed8058711dbc608d3741f5b37a9a49b17a3d2dac84883631e8c54a4285604051610838929190611c31565b60405180910390a3505050565b6001600160a01b03811660009081526002602081905260408220015460ff16801561047e5750506001600160a01b031660009081526004602052604090205460ff161590565b6000828152602081905260409020600101546108a681611377565b6108b083836114d0565b505050565b6001600160a01b03811633146109255760405162461bcd60e51b815260206004820152602f60248201527f416363657373436f6e74726f6c3a2063616e206f6e6c792072656e6f756e636560448201526e103937b632b9903337b91039b2b63360891b6064820152608401610521565b61092f8282611554565b5050565b600080516020611ea783398151915261094b81611377565b6109536115b9565b50565b61095e611381565b6001600160a01b03831660009081526003602052604090205460ff166109965760405162461bcd60e51b815260040161052190611bb2565b336001600160a01b03841614806109c057506109c0600080516020611ea783398151915233610f32565b610a0c5760405162461bcd60e51b815260206004820152601c60248201527f49737375657252656769737472793a20556e617574686f72697a6564000000006044820152606401610521565b815115610a3a576001600160a01b0383166000908152600260205260409020600101610a388382611ca0565b505b805115610a65576001600160a01b0383166000908152600560205260409020610a638282611ca0565b505b826001600160a01b03167f49d7050509df71dc8af3265cc6fdbbfdf64759391989ded09833f87800d749d28342604051610aa0929190611d60565b60405180910390a2505050565b606060078054806020026020016040519081016040528092919081815260200182805480156104dc576020028201919060005260206000209081546001600160a01b031681526001909101906020018083116104be575050505050905090565b600080516020611ea7833981519152610b2581611377565b610b2d611381565b6001600160a01b03831660009081526003602052604090205460ff16610b655760405162461bcd60e51b815260040161052190611bb2565b6001600160a01b03831660009081526004602052604090205460ff1615610bd85760405162461bcd60e51b815260206004820152602160248201527f49737375657252656769737472793a20416c72656164792073757370656e64656044820152601960fa1b6064820152608401610521565b6001600160a01b0383166000908152600460209081526040808320805460ff19166001179055600291829052909120015460ff1615610c3e576001600160a01b038316600090815260026020819052604090912001805460ff19169055610c3e836113c9565b826001600160a01b03167f791f1dc83ced94100346d5b9a222e99bf2d7737bde05bf96377bf1da8daa2c654284604051610aa0929190611c31565b610c81611381565b6001600160a01b038316610ce65760405162461bcd60e51b815260206004820152602660248201527f49737375657252656769737472793a20496e76616c696420697373756572206160448201526564647265737360d01b6064820152608401610521565b6001600160a01b03831660009081526003602052604090205460ff1615610d615760405162461bcd60e51b815260206004820152602960248201527f49737375657252656769737472793a2049737375657220616c726561647920726044820152681959da5cdd195c995960ba1b6064820152608401610521565b6000825111610dbe5760405162461bcd60e51b8152602060048201526024808201527f49737375657252656769737472793a204e616d652063616e6e6f7420626520656044820152636d70747960e01b6064820152608401610521565b6040805160a0810182526001600160a01b038581168083526020808401878152600085870181905260608601819052608086018190529283526002909152939020825181546001600160a01b031916921691909117815591519091906001820190610e299082611ca0565b5060408281015160028301805491151560ff1992831617905560608401516003808501919091556080909401516004909301929092556001600160a01b038616600090815260209384528181208054909316600117909255600590925220610e918282611ca0565b50600780546001810182556000919091527fa66cc928b5edb82af9bd49922954155ab7b0942694bea4ce44661d9a8736c6880180546001600160a01b0319166001600160a01b0385169081179091556040517fedfcb15df1f43eb469a84558fa52a8868c69c2e6fd8401734c111c1cb68e05f290610aa09085904290611d60565b600080516020611ea7833981519152610f2a81611377565b61095361160b565b6000918252602082815260408084206001600160a01b0393909316845291905290205460ff1690565b7fb7dd0da17e548d887873c37efb78b7f3dd17f1447207989a953d673244d7f144610f8581611377565b610f8d611381565b6001600160a01b03821660009081526003602052604090205460ff16610fc55760405162461bcd60e51b815260040161052190611bb2565b6001600160a01b0382166000908152600260208190526040909120015460ff161561103d5760405162461bcd60e51b815260206004820152602260248201527f49737375657252656769737472793a20416c7265616479206163637265646974604482015261195960f21b6064820152608401610521565b6001600160a01b03821660009081526004602052604090205460ff16156110b25760405162461bcd60e51b815260206004820152602360248201527f49737375657252656769737472793a204973737565722069732073757370656e60448201526219195960ea1b6064820152608401610521565b6001600160a01b0382166000818152600260208181526040808420928301805460ff191660019081179091554260039094018490556006805491820181559094527ff652222313e28459528d920b65115c16c04f3efc82aaedc97be59f3f377c0d3f90930180546001600160a01b0319168517905591519081523392917f422de057aff2ba37780f06d677a96598d41c28a411b76277b459f8428456ee39910160405180910390a35050565b6001600160a01b03811660009081526003602052604090205460ff166111965760405162461bcd60e51b815260040161052190611bb2565b6001600160a01b03811660009081526008602052604081208054916111ba83611d98565b90915550506001600160a01b03811660009081526002602052604081206004018054916111e683611d98565b919050555050565b60008281526020819052604090206001015461120981611377565b6108b08383611554565b6112506040518060a0016040528060006001600160a01b031681526020016060815260200160001515815260200160008152602001600081525090565b6001600160a01b03821660009081526003602052604090205460ff166112885760405162461bcd60e51b815260040161052190611bb2565b6001600160a01b03808316600090815260026020908152604091829020825160a0810190935280549093168252600183018054929392918401916112cb90611bf7565b80601f01602080910402602001604051908101604052809291908181526020018280546112f790611bf7565b80156113445780601f1061131957610100808354040283529160200191611344565b820191906000526020600020905b81548152906001019060200180831161132757829003601f168201915b5050509183525050600282015460ff16151560208201526003820154604082015260049091015460609091015292915050565b6109538133611646565b60015460ff16156113c75760405162461bcd60e51b815260206004820152601060248201526f14185d5cd8589b194e881c185d5cd95960821b6044820152606401610521565b565b60005b60065481101561092f57816001600160a01b0316600682815481106113f3576113f3611db1565b6000918252602090912001546001600160a01b0316036114be576006805461141d90600190611dc7565b8154811061142d5761142d611db1565b600091825260209091200154600680546001600160a01b03909216918390811061145957611459611db1565b9060005260206000200160006101000a8154816001600160a01b0302191690836001600160a01b03160217905550600680548061149857611498611dda565b600082815260209020810160001990810180546001600160a01b03191690550190555050565b806114c881611d98565b9150506113cc565b6114da8282610f32565b61092f576000828152602081815260408083206001600160a01b03851684529091529020805460ff191660011790556115103390565b6001600160a01b0316816001600160a01b0316837f2f8788117e7eff1d82e926ec794901d17c78024a50270940304540a733656f0d60405160405180910390a45050565b61155e8282610f32565b1561092f576000828152602081815260408083206001600160a01b0385168085529252808320805460ff1916905551339285917ff6391f5c32d9c69d2a47ea670b442974b53935d1edc7fd64eb21e047a839171b9190a45050565b6115c161169f565b6001805460ff191690557f5db9ee0a495bf2e6ff9c91a7834c1ba4fdd244a5e8aa4e537bd38aeae4b073aa335b6040516001600160a01b03909116815260200160405180910390a1565b611613611381565b6001805460ff1916811790557f62e78cea01bee320cd4e420270b5ea74000d11b0c9f74754ebdbfc544b05a258336115ee565b6116508282610f32565b61092f5761165d816116e8565b6116688360206116fa565b604051602001611679929190611df0565b60408051601f198184030181529082905262461bcd60e51b82526105219160040161199b565b60015460ff166113c75760405162461bcd60e51b815260206004820152601460248201527314185d5cd8589b194e881b9bdd081c185d5cd95960621b6044820152606401610521565b606061047e6001600160a01b03831660145b60606000611709836002611e65565b611714906002611e7c565b67ffffffffffffffff81111561172c5761172c6119c7565b6040519080825280601f01601f191660200182016040528015611756576020820181803683370190505b509050600360fc1b8160008151811061177157611771611db1565b60200101906001600160f81b031916908160001a905350600f60fb1b816001815181106117a0576117a0611db1565b60200101906001600160f81b031916908160001a90535060006117c4846002611e65565b6117cf906001611e7c565b90505b6001811115611847576f181899199a1a9b1b9c1cb0b131b232b360811b85600f166010811061180357611803611db1565b1a60f81b82828151811061181957611819611db1565b60200101906001600160f81b031916908160001a90535060049490941c9361184081611e8f565b90506117d2565b5083156118965760405162461bcd60e51b815260206004820181905260248201527f537472696e67733a20686578206c656e67746820696e73756666696369656e746044820152606401610521565b9392505050565b6000602082840312156118af57600080fd5b81356001600160e01b03198116811461189657600080fd5b6020808252825182820181905260009190848201906040850190845b818110156119085783516001600160a01b0316835292840192918401916001016118e3565b50909695505050505050565b80356001600160a01b038116811461192b57600080fd5b919050565b60006020828403121561194257600080fd5b61189682611914565b60005b8381101561196657818101518382015260200161194e565b50506000910152565b6000815180845261198781602086016020860161194b565b601f01601f19169290920160200192915050565b602081526000611896602083018461196f565b6000602082840312156119c057600080fd5b5035919050565b634e487b7160e01b600052604160045260246000fd5b600082601f8301126119ee57600080fd5b813567ffffffffffffffff80821115611a0957611a096119c7565b604051601f8301601f19908116603f01168101908282118183101715611a3157611a316119c7565b81604052838152866020858801011115611a4a57600080fd5b836020870160208301376000602085830101528094505050505092915050565b60008060408385031215611a7d57600080fd5b611a8683611914565b9150602083013567ffffffffffffffff811115611aa257600080fd5b611aae858286016119dd565b9150509250929050565b60008060408385031215611acb57600080fd5b82359150611adb60208401611914565b90509250929050565b600080600060608486031215611af957600080fd5b611b0284611914565b9250602084013567ffffffffffffffff80821115611b1f57600080fd5b611b2b878388016119dd565b93506040860135915080821115611b4157600080fd5b50611b4e868287016119dd565b9150509250925092565b602080825282516001600160a01b03168282015282015160a06040830152600090611b8660c084018261196f565b905060408401511515606084015260608401516080840152608084015160a08401528091505092915050565b60208082526025908201527f49737375657252656769737472793a20497373756572206e6f742072656769736040820152641d195c995960da1b606082015260800190565b600181811c90821680611c0b57607f821691505b602082108103611c2b57634e487b7160e01b600052602260045260246000fd5b50919050565b828152604060208201526000611c4a604083018461196f565b949350505050565b601f8211156108b057600081815260208120601f850160051c81016020861015611c795750805b601f850160051c820191505b81811015611c9857828155600101611c85565b505050505050565b815167ffffffffffffffff811115611cba57611cba6119c7565b611cce81611cc88454611bf7565b84611c52565b602080601f831160018114611d035760008415611ceb5750858301515b600019600386901b1c1916600185901b178555611c98565b600085815260208120601f198616915b82811015611d3257888601518255948401946001909101908401611d13565b5085821015611d505787850151600019600388901b60f8161c191681555b5050505050600190811b01905550565b604081526000611d73604083018561196f565b90508260208301529392505050565b634e487b7160e01b600052601160045260246000fd5b600060018201611daa57611daa611d82565b5060010190565b634e487b7160e01b600052603260045260246000fd5b8181038181111561047e5761047e611d82565b634e487b7160e01b600052603160045260246000fd5b7f416363657373436f6e74726f6c3a206163636f756e7420000000000000000000815260008351611e2881601785016020880161194b565b7001034b99036b4b9b9b4b733903937b6329607d1b6017918401918201528351611e5981602884016020880161194b565b01602801949350505050565b808202811582820484141761047e5761047e611d82565b8082018082111561047e5761047e611d82565b600081611e9e57611e9e611d82565b50600019019056fea49807205ce4d355092ef5a8a18f56e8913cf4a201fbe287825b095693c21775a2646970667358221220caa9090638062d22facac78c302cf1252ebfc9259549d4d9ff64694879c2d7f764736f6c63430008140033",
  "immutableReferences": {},
  "source": "// SPDX-License-Identifier: MIT\npragma solidity ^0.8.0;\n\nimport \"../interfaces/IIssuer.sol\";\nimport \"../libraries/CredentialTypes.sol\";\nimport \"@openzeppelin/contracts/access/AccessControl.sol\";\nimport \"@openzeppelin/contracts/security/Pausable.sol\";\n\n/**\n * @title IssuerRegistry\n * @dev Manages issuer registration, accreditation, and validation\n * Only accredited issuers can issue credentials\n */\ncontract IssuerRegistry is IIssuer, AccessControl, Pausable {\n    // Role definitions\n    bytes32 public constant ADMIN_ROLE = keccak256(\"ADMIN_ROLE\");\n    bytes32 public constant ACCREDITOR_ROLE = keccak256(\"ACCREDITOR_ROLE\");\n\n    // Issuer data storage\n    mapping(address => CredentialTypes.Issuer) private issuers;\n    mapping(address => bool) private registered;\n    mapping(address => bool) private suspended;\n    mapping(address => string) private issuerMetadataURIs;\n\n    // Arrays for enumeration\n    address[] private accreditedIssuersList;\n    address[] private allIssuersList;\n\n    // Issuer credential count tracking\n    mapping(address => uint256) private issuerCredentialCounts;\n\n    constructor() {\n        // Grant admin role to contract deployer\n        _setupRole(DEFAULT_ADMIN_ROLE, msg.sender);\n        _setupRole(ADMIN_ROLE, msg.sender);\n        _setupRole(ACCREDITOR_ROLE, msg.sender);\n    }\n\n    /**\n     * @dev Register a new issuer (pending accreditation)\n     */\n    function registerIssuer(\n        address issuerAddress,\n        string memory name,\n        string memory metadataURI\n    ) external override whenNotPaused {\n        require(\n            issuerAddress != address(0),\n            \"IssuerRegistry: Invalid issuer address\"\n        );\n        require(\n            !registered[issuerAddress],\n            \"IssuerRegistry: Issuer already registered\"\n        );\n        require(bytes(name).length > 0, \"IssuerRegistry: Name cannot be empty\");\n\n        issuers[issuerAddress] = CredentialTypes.Issuer({\n            issuerAddress: issuerAddress,\n            name: name,\n            isAccredited: false,\n            accreditationDate: 0,\n            totalIssued: 0\n        });\n\n        registered[issuerAddress] = true;\n        issuerMetadataURIs[issuerAddress] = metadataURI;\n        allIssuersList.push(issuerAddress);\n\n        emit IssuerRegistered(issuerAddress, name, block.timestamp);\n    }\n\n    /**\n     * @dev Accredit an issuer (grant permission to issue credentials)\n     */\n    function accreditIssuer(\n        address issuerAddress\n    ) external override onlyRole(ACCREDITOR_ROLE) whenNotPaused {\n        require(\n            registered[issuerAddress],\n            \"IssuerRegistry: Issuer not registered\"\n        );\n        require(\n            !issuers[issuerAddress].isAccredited,\n            \"IssuerRegistry: Already accredited\"\n        );\n        require(\n            !suspended[issuerAddress],\n            \"IssuerRegistry: Issuer is suspended\"\n        );\n\n        issuers[issuerAddress].isAccredited = true;\n        issuers[issuerAddress].accreditationDate = block.timestamp;\n        accreditedIssuersList.push(issuerAddress);\n\n        emit IssuerAccredited(issuerAddress, block.timestamp, msg.sender);\n    }\n\n    /**\n     * @dev Revoke issuer accreditation\n     */\n    function revokeIssuer(\n        address issuerAddress,\n        string memory reason\n    ) external override onlyRole(ACCREDITOR_ROLE) whenNotPaused {\n        require(\n            registered[issuerAddress],\n            \"IssuerRegistry: Issuer not registered\"\n        );\n        require(\n            issuers[issuerAddress].isAccredited,\n            \"IssuerRegistry: Not accredited\"\n        );\n\n        issuers[issuerAddress].isAccredited = false;\n        _removeFromAccreditedList(issuerAddress);\n\n        emit IssuerRevoked(issuerAddress, block.timestamp, reason, msg.sender);\n    }\n\n    /**\n     * @dev Suspend issuer temporarily\n     */\n    function suspendIssuer(\n        address issuerAddress,\n        string memory reason\n    ) external override onlyRole(ADMIN_ROLE) whenNotPaused {\n        require(\n            registered[issuerAddress],\n            \"IssuerRegistry: Issuer not registered\"\n        );\n        require(!suspended[issuerAddress], \"IssuerRegistry: Already suspended\");\n\n        suspended[issuerAddress] = true;\n\n        if (issuers[issuerAddress].isAccredited) {\n            issuers[issuerAddress].isAccredited = false;\n            _removeFromAccreditedList(issuerAddress);\n        }\n\n        emit IssuerSuspended(issuerAddress, block.timestamp, reason);\n    }\n\n    /**\n     * @dev Reactivate a suspended issuer\n     */\n    function reactivateIssuer(\n        address issuerAddress\n    ) external override onlyRole(ADMIN_ROLE) whenNotPaused {\n        require(\n            registered[issuerAddress],\n            \"IssuerRegistry: Issuer not registered\"\n        );\n        require(suspended[issuerAddress], \"IssuerRegistry: Not suspended\");\n\n        suspended[issuerAddress] = false;\n\n        emit IssuerReactivated(issuerAddress, block.timestamp);\n    }\n\n    /**\n     * @dev Update issuer information\n     */\n    function updateIssuer(\n        address issuerAddress,\n        string memory newName,\n        string memory newMetadataURI\n    ) external override whenNotPaused {\n        require(\n            registered[issuerAddress],\n            \"IssuerRegistry: Issuer not registered\"\n        );\n        require(\n            msg.sender == issuerAddress || hasRole(ADMIN_ROLE, msg.sender),\n            \"IssuerRegistry: Unauthorized\"\n        );\n\n        if (bytes(newName).length > 0) {\n            issuers[issuerAddress].name = newName;\n        }\n\n        if (bytes(newMetadataURI).length > 0) {\n            issuerMetadataURIs[issuerAddress] = newMetadataURI;\n        }\n\n        emit IssuerUpdated(issuerAddress, newName, block.timestamp);\n    }\n\n    /**\n     * @dev Check if an issuer is accredited\n     */\n    function isAccredited(\n        address issuerAddress\n    ) external view override returns (bool) {\n        return issuers[issuerAddress].isAccredited && !suspended[issuerAddress];\n    }\n\n    /**\n     * @dev Check if an issuer is registered\n     */\n    function isRegistered(\n        address issuerAddress\n    ) external view override returns (bool) {\n        return registered[issuerAddress];\n    }\n\n    /**\n     * @dev Get issuer information\n     */\n    function getIssuer(\n        address issuerAddress\n    ) external view override returns (CredentialTypes.Issuer memory) {\n        require(\n            registered[issuerAddress],\n            \"IssuerRegistry: Issuer not registered\"\n        );\n        return issuers[issuerAddress];\n    }\n\n    /**\n     * @dev Get all accredited issuers\n     */\n    function getAllAccreditedIssuers()\n        external\n        view\n        override\n        returns (address[] memory)\n    {\n        return accreditedIssuersList;\n    }\n\n    /**\n     * @dev Get total number of accredited issuers\n     */\n    function getAccreditedIssuerCount()\n        external\n        view\n        override\n        returns (uint256)\n    {\n        return accreditedIssuersList.length;\n    }\n\n    /**\n     * @dev Get total credentials issued by an issuer\n     */\n    function getIssuerCredentialCount(\n        address issuerAddress\n    ) external view override returns (uint256) {\n        return issuerCredentialCounts[issuerAddress];\n    }\n\n    /**\n     * @dev Increment credential count for an issuer (called by CredentialNFT)\n     */\n    function incrementIssuerCredentialCount(\n        address issuerAddress\n    ) external override {\n        require(\n            registered[issuerAddress],\n            \"IssuerRegistry: Issuer not registered\"\n        );\n        issuerCredentialCounts[issuerAddress]++;\n        issuers[issuerAddress].totalIssued++;\n    }\n\n    /**\n     * @dev Check if issuer is suspended\n     */\n    function isSuspended(\n        address issuerAddress\n    ) external view override returns (bool) {\n        return suspended[issuerAddress];\n    }\n\n    /**\n     * @dev Get issuer metadata URI\n     */\n    function getIssuerMetadataURI(\n        address issuerAddress\n    ) external view returns (string memory) {\n        require(\n            registered[issuerAddress],\n            \"IssuerRegistry: Issuer not registered\"\n        );\n        return issuerMetadataURIs[issuerAddress];\n    }\n\n    /**\n     * @dev Get all registered issuers (including non-accredited)\n     */\n    function getAllIssuers() external view returns (address[] memory) {\n        return allIssuersList;\n    }\n\n    /**\n     * @dev Pause contract\n     */\n    function pause() external onlyRole(ADMIN_ROLE) {\n        _pause();\n    }\n\n    /**\n     * @dev Unpause contract\n     */\n    function unpause() external onlyRole(ADMIN_ROLE) {\n        _unpause();\n    }\n\n    /**\n     * @dev Internal function to remove issuer from accredited list\n     */\n    function _removeFromAccreditedList(address issuerAddress) private {\n        for (uint256 i = 0; i < accreditedIssuersList.length; i++) {\n            if (accreditedIssuersList[i] == issuerAddress) {\n                accreditedIssuersList[i] = accreditedIssuersList[\n                    accreditedIssuersList.length - 1\n                ];\n                accreditedIssuersList.pop();\n                break;\n            }\n        }\n    }\n}\n",
  "sourcePath": "/home/shubham/dev/hackathon/NITHACKS_BLOCKCHAIN/blockchain/contracts/core/IssuerRegistry.sol",
  "compiler": {
    "name": "solc",
    "version": "0.8.20+commit.a1b79de6.Emscripten.clang"
  },
  "schemaVersion": "3.4.16",
  "updatedAt": "2025-11-22T20:06:37.180Z",
  "networkType": "ethereum",
  "devdoc": {
    "details": "Manages issuer registration, accreditation, and validation Only accredited issuers can issue credentials",
    "events": {
      "Paused(address)": {
        "details": "Emitted when the pause is triggered by `account`."
      },
      "RoleAdminChanged(bytes32,bytes32,bytes32)": {
        "details": "Emitted when `newAdminRole` is set as ``role``'s admin role, replacing `previousAdminRole` `DEFAULT_ADMIN_ROLE` is the starting admin for all roles, despite {RoleAdminChanged} not being emitted signaling this. _Available since v3.1._"
      },
      "RoleGranted(bytes32,address,address)": {
        "details": "Emitted when `account` is granted `role`. `sender` is the account that originated the contract call, an admin role bearer except when using {AccessControl-_setupRole}."
      },
      "RoleRevoked(bytes32,address,address)": {
        "details": "Emitted when `account` is revoked `role`. `sender` is the account that originated the contract call:   - if using `revokeRole`, it is the admin role bearer   - if using `renounceRole`, it is the role bearer (i.e. `account`)"
      },
      "Unpaused(address)": {
        "details": "Emitted when the pause is lifted by `account`."
      }
    },
    "kind": "dev",
    "methods": {
      "accreditIssuer(address)": {
        "details": "Accredit an issuer (grant permission to issue credentials)"
      },
      "getAccreditedIssuerCount()": {
        "details": "Get total number of accredited issuers"
      },
      "getAllAccreditedIssuers()": {
        "details": "Get all accredited issuers"
      },
      "getAllIssuers()": {
        "details": "Get all registered issuers (including non-accredited)"
      },
      "getIssuer(address)": {
        "details": "Get issuer information"
      },
      "getIssuerCredentialCount(address)": {
        "details": "Get total credentials issued by an issuer"
      },
      "getIssuerMetadataURI(address)": {
        "details": "Get issuer metadata URI"
      },
      "getRoleAdmin(bytes32)": {
        "details": "Returns the admin role that controls `role`. See {grantRole} and {revokeRole}. To change a role's admin, use {_setRoleAdmin}."
      },
      "grantRole(bytes32,address)": {
        "details": "Grants `role` to `account`. If `account` had not been already granted `role`, emits a {RoleGranted} event. Requirements: - the caller must have ``role``'s admin role. May emit a {RoleGranted} event."
      },
      "hasRole(bytes32,address)": {
        "details": "Returns `true` if `account` has been granted `role`."
      },
      "incrementIssuerCredentialCount(address)": {
        "details": "Increment credential count for an issuer (called by CredentialNFT)"
      },
      "isAccredited(address)": {
        "details": "Check if an issuer is accredited"
      },
      "isRegistered(address)": {
        "details": "Check if an issuer is registered"
      },
      "isSuspended(address)": {
        "details": "Check if issuer is suspended"
      },
      "pause()": {
        "details": "Pause contract"
      },
      "paused()": {
        "details": "Returns true if the contract is paused, and false otherwise."
      },
      "reactivateIssuer(address)": {
        "details": "Reactivate a suspended issuer"
      },
      "registerIssuer(address,string,string)": {
        "details": "Register a new issuer (pending accreditation)"
      },
      "renounceRole(bytes32,address)": {
        "details": "Revokes `role` from the calling account. Roles are often managed via {grantRole} and {revokeRole}: this function's purpose is to provide a mechanism for accounts to lose their privileges if they are compromised (such as when a trusted device is misplaced). If the calling account had been revoked `role`, emits a {RoleRevoked} event. Requirements: - the caller must be `account`. May emit a {RoleRevoked} event."
      },
      "revokeIssuer(address,string)": {
        "details": "Revoke issuer accreditation"
      },
      "revokeRole(bytes32,address)": {
        "details": "Revokes `role` from `account`. If `account` had been granted `role`, emits a {RoleRevoked} event. Requirements: - the caller must have ``role``'s admin role. May emit a {RoleRevoked} event."
      },
      "supportsInterface(bytes4)": {
        "details": "See {IERC165-supportsInterface}."
      },
      "suspendIssuer(address,string)": {
        "details": "Suspend issuer temporarily"
      },
      "unpause()": {
        "details": "Unpause contract"
      },
      "updateIssuer(address,string,string)": {
        "details": "Update issuer information"
      }
    },
    "title": "IssuerRegistry",
    "version": 1
  },
  "userdoc": {
    "kind": "user",
    "methods": {},
    "version": 1
  }
}