{
  "contractName": "RevocationRegistry",
  "abi": [
    {
      "inputs": [],
      "stateMutability": "nonpayable",
      "type": "constructor"
    },
    {
      "anonymous": false,
      "inputs": [
        {
          "indexed": true,
          "internalType": "address",
          "name": "contractAddress",
          "type": "address"
        },
        {
          "indexed": false,
          "internalType": "uint256",
          "name": "timestamp",
          "type": "uint256"
        }
      ],
      "name": "ContractAuthorized",
      "type": "event"
    },
    {
      "anonymous": false,
      "inputs": [
        {
          "indexed": true,
          "internalType": "address",
          "name": "contractAddress",
          "type": "address"
        },
        {
          "indexed": false,
          "internalType": "uint256",
          "name": "timestamp",
          "type": "uint256"
        }
      ],
      "name": "ContractDeauthorized",
      "type": "event"
    },
    {
      "anonymous": false,
      "inputs": [
        {
          "indexed": true,
          "internalType": "uint256",
          "name": "tokenId",
          "type": "uint256"
        },
        {
          "indexed": true,
          "internalType": "address",
          "name": "issuer",
          "type": "address"
        },
        {
          "indexed": true,
          "internalType": "address",
          "name": "holder",
          "type": "address"
        },
        {
          "indexed": false,
          "internalType": "uint256",
          "name": "revocationDate",
          "type": "uint256"
        },
        {
          "indexed": false,
          "internalType": "string",
          "name": "reason",
          "type": "string"
        }
      ],
      "name": "CredentialRevoked",
      "type": "event"
    },
    {
      "anonymous": false,
      "inputs": [
        {
          "indexed": true,
          "internalType": "address",
          "name": "previousOwner",
          "type": "address"
        },
        {
          "indexed": true,
          "internalType": "address",
          "name": "newOwner",
          "type": "address"
        }
      ],
      "name": "OwnershipTransferred",
      "type": "event"
    },
    {
      "anonymous": false,
      "inputs": [
        {
          "indexed": false,
          "internalType": "address",
          "name": "account",
          "type": "address"
        }
      ],
      "name": "Paused",
      "type": "event"
    },
    {
      "anonymous": false,
      "inputs": [
        {
          "indexed": false,
          "internalType": "address",
          "name": "account",
          "type": "address"
        }
      ],
      "name": "Unpaused",
      "type": "event"
    },
    {
      "inputs": [],
      "name": "owner",
      "outputs": [
        {
          "internalType": "address",
          "name": "",
          "type": "address"
        }
      ],
      "stateMutability": "view",
      "type": "function",
      "constant": true
    },
    {
      "inputs": [],
      "name": "paused",
      "outputs": [
        {
          "internalType": "bool",
          "name": "",
          "type": "bool"
        }
      ],
      "stateMutability": "view",
      "type": "function",
      "constant": true
    },
    {
      "inputs": [],
      "name": "renounceOwnership",
      "outputs": [],
      "stateMutability": "nonpayable",
      "type": "function"
    },
    {
      "inputs": [
        {
          "internalType": "address",
          "name": "newOwner",
          "type": "address"
        }
      ],
      "name": "transferOwnership",
      "outputs": [],
      "stateMutability": "nonpayable",
      "type": "function"
    },
    {
      "inputs": [
        {
          "internalType": "uint256",
          "name": "tokenId",
          "type": "uint256"
        },
        {
          "internalType": "address",
          "name": "issuer",
          "type": "address"
        },
        {
          "internalType": "address",
          "name": "holder",
          "type": "address"
        },
        {
          "internalType": "string",
          "name": "reason",
          "type": "string"
        }
      ],
      "name": "addRevocation",
      "outputs": [],
      "stateMutability": "nonpayable",
      "type": "function"
    },
    {
      "inputs": [
        {
          "internalType": "uint256",
          "name": "tokenId",
          "type": "uint256"
        }
      ],
      "name": "isRevoked",
      "outputs": [
        {
          "internalType": "bool",
          "name": "",
          "type": "bool"
        }
      ],
      "stateMutability": "view",
      "type": "function",
      "constant": true
    },
    {
      "inputs": [
        {
          "internalType": "uint256",
          "name": "tokenId",
          "type": "uint256"
        }
      ],
      "name": "getRevocationInfo",
      "outputs": [
        {
          "components": [
            {
              "internalType": "uint256",
              "name": "tokenId",
              "type": "uint256"
            },
            {
              "internalType": "address",
              "name": "issuer",
              "type": "address"
            },
            {
              "internalType": "address",
              "name": "holder",
              "type": "address"
            },
            {
              "internalType": "uint256",
              "name": "revocationDate",
              "type": "uint256"
            },
            {
              "internalType": "string",
              "name": "reason",
              "type": "string"
            },
            {
              "internalType": "bool",
              "name": "exists",
              "type": "bool"
            }
          ],
          "internalType": "struct RevocationRegistry.RevocationInfo",
          "name": "",
          "type": "tuple"
        }
      ],
      "stateMutability": "view",
      "type": "function",
      "constant": true
    },
    {
      "inputs": [],
      "name": "getAllRevokedTokenIds",
      "outputs": [
        {
          "internalType": "uint256[]",
          "name": "",
          "type": "uint256[]"
        }
      ],
      "stateMutability": "view",
      "type": "function",
      "constant": true
    },
    {
      "inputs": [],
      "name": "getTotalRevoked",
      "outputs": [
        {
          "internalType": "uint256",
          "name": "",
          "type": "uint256"
        }
      ],
      "stateMutability": "view",
      "type": "function",
      "constant": true
    },
    {
      "inputs": [
        {
          "internalType": "address",
          "name": "contractAddress",
          "type": "address"
        }
      ],
      "name": "authorizeContract",
      "outputs": [],
      "stateMutability": "nonpayable",
      "type": "function"
    },
    {
      "inputs": [
        {
          "internalType": "address",
          "name": "contractAddress",
          "type": "address"
        }
      ],
      "name": "deauthorizeContract",
      "outputs": [],
      "stateMutability": "nonpayable",
      "type": "function"
    },
    {
      "inputs": [
        {
          "internalType": "address",
          "name": "contractAddress",
          "type": "address"
        }
      ],
      "name": "isAuthorized",
      "outputs": [
        {
          "internalType": "bool",
          "name": "",
          "type": "bool"
        }
      ],
      "stateMutability": "view",
      "type": "function",
      "constant": true
    },
    {
      "inputs": [],
      "name": "pause",
      "outputs": [],
      "stateMutability": "nonpayable",
      "type": "function"
    },
    {
      "inputs": [],
      "name": "unpause",
      "outputs": [],
      "stateMutability": "nonpayable",
      "type": "function"
    }
  ],
  "bytecode": "0x608060405234801561001057600080fd5b5061001a3361002c565b6000805460ff60a01b1916905561007c565b600080546001600160a01b038381166001600160a01b0319831681178455604051919092169283917f8be0079c531659141344cd1fd0a4f28419497f9722a3daafe3b4186f6b6457e09190a35050565b610e9f8061008b6000396000f3fe608060405234801561001057600080fd5b50600436106100ea5760003560e01c80636e861c0e1161008c5780638da5cb5b116100665780638da5cb5b146101ae5780639aff33c7146101c9578063f2fde38b146101e9578063fe9fbb80146101fc57600080fd5b80636e861c0e1461018b578063715018a61461019e5780638456cb59146101a657600080fd5b80634c917dfe116100c85780634c917dfe146101245780635c975abb146101375780635ccc561e1461015557806367561d931461017857600080fd5b80632ba7ae42146100ef5780632c6d2982146101055780633f4ba83a1461011a575b600080fd5b6004546040519081526020015b60405180910390f35b61010d610228565b6040516100fc9190610a80565b610122610280565b005b610122610132366004610af6565b610292565b600054600160a01b900460ff165b60405190151581526020016100fc565b610145610163366004610bd2565b60009081526001602052604090205460ff1690565b610122610186366004610beb565b6104a2565b610122610199366004610beb565b6105e4565b610122610676565b610122610688565b6000546040516001600160a01b0390911681526020016100fc565b6101dc6101d7366004610bd2565b610698565b6040516100fc9190610c53565b6101226101f7366004610beb565b610828565b61014561020a366004610beb565b6001600160a01b031660009081526003602052604090205460ff1690565b6060600480548060200260200160405190810160405280929190818152602001828054801561027657602002820191906000526020600020905b815481526020019060010190808311610262575b5050505050905090565b6102886108a1565b6102906108fb565b565b3360009081526003602052604090205460ff16806102ba57506000546001600160a01b031633145b6102df5760405162461bcd60e51b81526004016102d690610cbd565b60405180910390fd5b6102e7610950565b60008481526001602052604090205460ff16156103525760405162461bcd60e51b815260206004820152602360248201527f5265766f636174696f6e52656769737472793a20416c7265616479207265766f6044820152621ad95960ea1b60648201526084016102d6565b6000848152600160208181526040808420805460ff191684179055805160c0810182528881526001600160a01b038089168285019081528882168385019081524260608501908152608085018a815260a086018990528d8a526002978890529590982084518155915196820180549784166001600160a01b031998891617905551948101805495909216949095169390931790925592516003830155915160048201906103ff9082610d88565b5060a091909101516005909101805460ff1916911515919091179055600480546001810182556000919091527f8a35acfbc15ff81a39ae7d344fd709f28e8600b4aa8c65c6b64bfe7fe36bd19b018490556040516001600160a01b03838116919085169086907f47cc41d4c9a799ba7dcbfbfbb43a3fd39296abb82851b3889d87d05176ef06b0906104949042908790610e48565b60405180910390a450505050565b6104aa6108a1565b6001600160a01b03811661050c5760405162461bcd60e51b815260206004820152602360248201527f5265766f636174696f6e52656769737472793a20496e76616c6964206164647260448201526265737360e81b60648201526084016102d6565b6001600160a01b03811660009081526003602052604090205460ff16156105845760405162461bcd60e51b815260206004820152602660248201527f5265766f636174696f6e52656769737472793a20416c726561647920617574686044820152651bdc9a5e995960d21b60648201526084016102d6565b6001600160a01b03811660008181526003602052604090819020805460ff19166001179055517fd3b29d2cc460308277e197ea30a9c162c1824420ab1b965b1881547bbd77bef9906105d99042815260200190565b60405180910390a250565b6105ec6108a1565b6001600160a01b03811660009081526003602052604090205460ff166106245760405162461bcd60e51b81526004016102d690610cbd565b6001600160a01b03811660008181526003602052604090819020805460ff19169055517ff43b34bb82f9b5f0499056ea34791d5403d0243a59da381c9cd2289250fc93ce906105d99042815260200190565b61067e6108a1565b610290600061099d565b6106906108a1565b6102906109ed565b6040805160c0810182526000808252602082018190529181018290526060808201839052608082015260a081019190915260008281526002602052604090206005015460ff1661072a5760405162461bcd60e51b815260206004820152601f60248201527f5265766f636174696f6e52656769737472793a204e6f74207265766f6b65640060448201526064016102d6565b600082815260026020818152604092839020835160c0810185528154815260018201546001600160a01b039081169382019390935292810154909116928201929092526003820154606082015260048201805491929160808401919061078f90610cff565b80601f01602080910402602001604051908101604052809291908181526020018280546107bb90610cff565b80156108085780601f106107dd57610100808354040283529160200191610808565b820191906000526020600020905b8154815290600101906020018083116107eb57829003601f168201915b50505091835250506005919091015460ff16151560209091015292915050565b6108306108a1565b6001600160a01b0381166108955760405162461bcd60e51b815260206004820152602660248201527f4f776e61626c653a206e6577206f776e657220697320746865207a65726f206160448201526564647265737360d01b60648201526084016102d6565b61089e8161099d565b50565b6000546001600160a01b031633146102905760405162461bcd60e51b815260206004820181905260248201527f4f776e61626c653a2063616c6c6572206973206e6f7420746865206f776e657260448201526064016102d6565b610903610a30565b6000805460ff60a01b191690557f5db9ee0a495bf2e6ff9c91a7834c1ba4fdd244a5e8aa4e537bd38aeae4b073aa335b6040516001600160a01b03909116815260200160405180910390a1565b600054600160a01b900460ff16156102905760405162461bcd60e51b815260206004820152601060248201526f14185d5cd8589b194e881c185d5cd95960821b60448201526064016102d6565b600080546001600160a01b038381166001600160a01b0319831681178455604051919092169283917f8be0079c531659141344cd1fd0a4f28419497f9722a3daafe3b4186f6b6457e09190a35050565b6109f5610950565b6000805460ff60a01b1916600160a01b1790557f62e78cea01bee320cd4e420270b5ea74000d11b0c9f74754ebdbfc544b05a2586109333390565b600054600160a01b900460ff166102905760405162461bcd60e51b815260206004820152601460248201527314185d5cd8589b194e881b9bdd081c185d5cd95960621b60448201526064016102d6565b6020808252825182820181905260009190848201906040850190845b81811015610ab857835183529284019291840191600101610a9c565b50909695505050505050565b80356001600160a01b0381168114610adb57600080fd5b919050565b634e487b7160e01b600052604160045260246000fd5b60008060008060808587031215610b0c57600080fd5b84359350610b1c60208601610ac4565b9250610b2a60408601610ac4565b9150606085013567ffffffffffffffff80821115610b4757600080fd5b818701915087601f830112610b5b57600080fd5b813581811115610b6d57610b6d610ae0565b604051601f8201601f19908116603f01168101908382118183101715610b9557610b95610ae0565b816040528281528a6020848701011115610bae57600080fd5b82602086016020830137600060208483010152809550505050505092959194509250565b600060208284031215610be457600080fd5b5035919050565b600060208284031215610bfd57600080fd5b610c0682610ac4565b9392505050565b6000815180845260005b81811015610c3357602081850181015186830182015201610c17565b506000602082860101526020601f19601f83011685010191505092915050565b60208152815160208201526000602083015160018060a01b038082166040850152806040860151166060850152505060608301516080830152608083015160c060a0840152610ca560e0840182610c0d565b905060a0840151151560c08401528091505092915050565b60208082526022908201527f5265766f636174696f6e52656769737472793a204e6f7420617574686f72697a604082015261195960f21b606082015260800190565b600181811c90821680610d1357607f821691505b602082108103610d3357634e487b7160e01b600052602260045260246000fd5b50919050565b601f821115610d8357600081815260208120601f850160051c81016020861015610d605750805b601f850160051c820191505b81811015610d7f57828155600101610d6c565b5050505b505050565b815167ffffffffffffffff811115610da257610da2610ae0565b610db681610db08454610cff565b84610d39565b602080601f831160018114610deb5760008415610dd35750858301515b600019600386901b1c1916600185901b178555610d7f565b600085815260208120601f198616915b82811015610e1a57888601518255948401946001909101908401610dfb565b5085821015610e385787850151600019600388901b60f8161c191681555b5050505050600190811b01905550565b828152604060208201526000610e616040830184610c0d565b94935050505056fea26469706673582212208a1a6f57935d5b99a9a6a8add77af0ff3faa48ac3742caf2a26c1bcf136ec7c964736f6c63430008140033",
  "immutableReferences": {},
  "source": "// SPDX-License-Identifier: MIT\npragma solidity ^0.8.0;\n\nimport \"@openzeppelin/contracts/access/Ownable.sol\";\nimport \"@openzeppelin/contracts/security/Pausable.sol\";\n\n/**\n * @title RevocationRegistry\n * @dev Tracks revoked credentials for verification purposes\n * Provides a centralized registry of all revoked credential IDs\n */\ncontract RevocationRegistry is Ownable, Pausable {\n    // Revocation tracking\n    mapping(uint256 => bool) private revokedCredentials;\n    mapping(uint256 => RevocationInfo) private revocationDetails;\n\n    // Authorized contracts that can add revocations\n    mapping(address => bool) private authorizedContracts;\n\n    // Revocation information\n    struct RevocationInfo {\n        uint256 tokenId;\n        address issuer;\n        address holder;\n        uint256 revocationDate;\n        string reason;\n        bool exists;\n    }\n\n    // Arrays for enumeration\n    uint256[] private revokedTokenIds;\n\n    // Events\n    event CredentialRevoked(\n        uint256 indexed tokenId,\n        address indexed issuer,\n        address indexed holder,\n        uint256 revocationDate,\n        string reason\n    );\n\n    event ContractAuthorized(\n        address indexed contractAddress,\n        uint256 timestamp\n    );\n    event ContractDeauthorized(\n        address indexed contractAddress,\n        uint256 timestamp\n    );\n\n    modifier onlyAuthorized() {\n        require(\n            authorizedContracts[msg.sender] || msg.sender == owner(),\n            \"RevocationRegistry: Not authorized\"\n        );\n        _;\n    }\n\n    constructor() {}\n\n    /**\n     * @dev Add a revoked credential to the registry\n     */\n    function addRevocation(\n        uint256 tokenId,\n        address issuer,\n        address holder,\n        string memory reason\n    ) external onlyAuthorized whenNotPaused {\n        require(\n            !revokedCredentials[tokenId],\n            \"RevocationRegistry: Already revoked\"\n        );\n\n        revokedCredentials[tokenId] = true;\n        revocationDetails[tokenId] = RevocationInfo({\n            tokenId: tokenId,\n            issuer: issuer,\n            holder: holder,\n            revocationDate: block.timestamp,\n            reason: reason,\n            exists: true\n        });\n\n        revokedTokenIds.push(tokenId);\n\n        emit CredentialRevoked(\n            tokenId,\n            issuer,\n            holder,\n            block.timestamp,\n            reason\n        );\n    }\n\n    /**\n     * @dev Check if a credential is revoked\n     */\n    function isRevoked(uint256 tokenId) external view returns (bool) {\n        return revokedCredentials[tokenId];\n    }\n\n    /**\n     * @dev Get revocation details\n     */\n    function getRevocationInfo(\n        uint256 tokenId\n    ) external view returns (RevocationInfo memory) {\n        require(\n            revocationDetails[tokenId].exists,\n            \"RevocationRegistry: Not revoked\"\n        );\n        return revocationDetails[tokenId];\n    }\n\n    /**\n     * @dev Get all revoked token IDs\n     */\n    function getAllRevokedTokenIds() external view returns (uint256[] memory) {\n        return revokedTokenIds;\n    }\n\n    /**\n     * @dev Get total number of revoked credentials\n     */\n    function getTotalRevoked() external view returns (uint256) {\n        return revokedTokenIds.length;\n    }\n\n    /**\n     * @dev Authorize a contract to add revocations\n     */\n    function authorizeContract(address contractAddress) external onlyOwner {\n        require(\n            contractAddress != address(0),\n            \"RevocationRegistry: Invalid address\"\n        );\n        require(\n            !authorizedContracts[contractAddress],\n            \"RevocationRegistry: Already authorized\"\n        );\n\n        authorizedContracts[contractAddress] = true;\n        emit ContractAuthorized(contractAddress, block.timestamp);\n    }\n\n    /**\n     * @dev Deauthorize a contract\n     */\n    function deauthorizeContract(address contractAddress) external onlyOwner {\n        require(\n            authorizedContracts[contractAddress],\n            \"RevocationRegistry: Not authorized\"\n        );\n\n        authorizedContracts[contractAddress] = false;\n        emit ContractDeauthorized(contractAddress, block.timestamp);\n    }\n\n    /**\n     * @dev Check if a contract is authorized\n     */\n    function isAuthorized(\n        address contractAddress\n    ) external view returns (bool) {\n        return authorizedContracts[contractAddress];\n    }\n\n    /**\n     * @dev Pause contract\n     */\n    function pause() external onlyOwner {\n        _pause();\n    }\n\n    /**\n     * @dev Unpause contract\n     */\n    function unpause() external onlyOwner {\n        _unpause();\n    }\n}\n",
  "sourcePath": "/home/shubham/dev/hackathon/NITHACKS_BLOCKCHAIN/blockchain/contracts/core/RevocationRegistry.sol",
  "compiler": {
    "name": "solc",
    "version": "0.8.20+commit.a1b79de6.Emscripten.clang"
  },
  "schemaVersion": "3.4.16",
  "updatedAt": "2025-11-22T20:06:36.170Z",
  "networkType": "ethereum",
  "devdoc": {
    "details": "Tracks revoked credentials for verification purposes Provides a centralized registry of all revoked credential IDs",
    "events": {
      "Paused(address)": {
        "details": "Emitted when the pause is triggered by `account`."
      },
      "Unpaused(address)": {
        "details": "Emitted when the pause is lifted by `account`."
      }
    },
    "kind": "dev",
    "methods": {
      "addRevocation(uint256,address,address,string)": {
        "details": "Add a revoked credential to the registry"
      },
      "authorizeContract(address)": {
        "details": "Authorize a contract to add revocations"
      },
      "deauthorizeContract(address)": {
        "details": "Deauthorize a contract"
      },
      "getAllRevokedTokenIds()": {
        "details": "Get all revoked token IDs"
      },
      "getRevocationInfo(uint256)": {
        "details": "Get revocation details"
      },
      "getTotalRevoked()": {
        "details": "Get total number of revoked credentials"
      },
      "isAuthorized(address)": {
        "details": "Check if a contract is authorized"
      },
      "isRevoked(uint256)": {
        "details": "Check if a credential is revoked"
      },
      "owner()": {
        "details": "Returns the address of the current owner."
      },
      "pause()": {
        "details": "Pause contract"
      },
      "paused()": {
        "details": "Returns true if the contract is paused, and false otherwise."
      },
      "renounceOwnership()": {
        "details": "Leaves the contract without owner. It will not be possible to call `onlyOwner` functions. Can only be called by the current owner. NOTE: Renouncing ownership will leave the contract without an owner, thereby disabling any functionality that is only available to the owner."
      },
      "transferOwnership(address)": {
        "details": "Transfers ownership of the contract to a new account (`newOwner`). Can only be called by the current owner."
      },
      "unpause()": {
        "details": "Unpause contract"
      }
    },
    "title": "RevocationRegistry",
    "version": 1
  },
  "userdoc": {
    "kind": "user",
    "methods": {},
    "version": 1
  }
}