{
  "contractName": "SelectiveDisclosure",
  "abi": [
    {
      "inputs": [
        {
          "internalType": "address",
          "name": "_credentialNFTAddress",
          "type": "address"
        },
        {
          "internalType": "address",
          "name": "_zkpVerifierAddress",
          "type": "address"
        }
      ],
      "stateMutability": "nonpayable",
      "type": "constructor"
    },
    {
      "anonymous": false,
      "inputs": [
        {
          "indexed": true,
          "internalType": "bytes32",
          "name": "claimHash",
          "type": "bytes32"
        },
        {
          "indexed": true,
          "internalType": "address",
          "name": "holder",
          "type": "address"
        },
        {
          "indexed": false,
          "internalType": "string",
          "name": "claimType",
          "type": "string"
        },
        {
          "indexed": false,
          "internalType": "bool",
          "name": "verified",
          "type": "bool"
        }
      ],
      "name": "ClaimVerified",
      "type": "event"
    },
    {
      "anonymous": false,
      "inputs": [
        {
          "indexed": true,
          "internalType": "uint256",
          "name": "requestId",
          "type": "uint256"
        },
        {
          "indexed": true,
          "internalType": "address",
          "name": "requester",
          "type": "address"
        },
        {
          "indexed": true,
          "internalType": "address",
          "name": "holder",
          "type": "address"
        },
        {
          "indexed": false,
          "internalType": "enum SelectiveDisclosure.ProofType",
          "name": "proofType",
          "type": "uint8"
        },
        {
          "indexed": false,
          "internalType": "uint256",
          "name": "timestamp",
          "type": "uint256"
        }
      ],
      "name": "DisclosureRequested",
      "type": "event"
    },
    {
      "anonymous": false,
      "inputs": [
        {
          "indexed": true,
          "internalType": "uint256",
          "name": "requestId",
          "type": "uint256"
        },
        {
          "indexed": true,
          "internalType": "address",
          "name": "holder",
          "type": "address"
        },
        {
          "indexed": false,
          "internalType": "enum SelectiveDisclosure.ProofType",
          "name": "proofType",
          "type": "uint8"
        },
        {
          "indexed": false,
          "internalType": "bool",
          "name": "success",
          "type": "bool"
        },
        {
          "indexed": false,
          "internalType": "bytes32",
          "name": "proofHash",
          "type": "bytes32"
        }
      ],
      "name": "ProofVerified",
      "type": "event"
    },
    {
      "inputs": [],
      "name": "admin",
      "outputs": [
        {
          "internalType": "address",
          "name": "",
          "type": "address"
        }
      ],
      "stateMutability": "view",
      "type": "function",
      "constant": true
    },
    {
      "inputs": [],
      "name": "credentialNFT",
      "outputs": [
        {
          "internalType": "contract ICredential",
          "name": "",
          "type": "address"
        }
      ],
      "stateMutability": "view",
      "type": "function",
      "constant": true
    },
    {
      "inputs": [
        {
          "internalType": "uint256",
          "name": "",
          "type": "uint256"
        }
      ],
      "name": "disclosureRequests",
      "outputs": [
        {
          "internalType": "uint256",
          "name": "requestId",
          "type": "uint256"
        },
        {
          "internalType": "address",
          "name": "requester",
          "type": "address"
        },
        {
          "internalType": "address",
          "name": "holder",
          "type": "address"
        },
        {
          "internalType": "enum SelectiveDisclosure.ProofType",
          "name": "proofType",
          "type": "uint8"
        },
        {
          "internalType": "uint256",
          "name": "timestamp",
          "type": "uint256"
        },
        {
          "internalType": "bool",
          "name": "verified",
          "type": "bool"
        },
        {
          "internalType": "bytes32",
          "name": "proofHash",
          "type": "bytes32"
        }
      ],
      "stateMutability": "view",
      "type": "function",
      "constant": true
    },
    {
      "inputs": [
        {
          "internalType": "address",
          "name": "",
          "type": "address"
        },
        {
          "internalType": "uint256",
          "name": "",
          "type": "uint256"
        }
      ],
      "name": "holderRequests",
      "outputs": [
        {
          "internalType": "uint256",
          "name": "",
          "type": "uint256"
        }
      ],
      "stateMutability": "view",
      "type": "function",
      "constant": true
    },
    {
      "inputs": [],
      "name": "requestCounter",
      "outputs": [
        {
          "internalType": "uint256",
          "name": "",
          "type": "uint256"
        }
      ],
      "stateMutability": "view",
      "type": "function",
      "constant": true
    },
    {
      "inputs": [
        {
          "internalType": "bytes32",
          "name": "",
          "type": "bytes32"
        }
      ],
      "name": "usedProofs",
      "outputs": [
        {
          "internalType": "bool",
          "name": "",
          "type": "bool"
        }
      ],
      "stateMutability": "view",
      "type": "function",
      "constant": true
    },
    {
      "inputs": [
        {
          "internalType": "bytes32",
          "name": "",
          "type": "bytes32"
        }
      ],
      "name": "verifiedClaims",
      "outputs": [
        {
          "internalType": "string",
          "name": "claimType",
          "type": "string"
        },
        {
          "internalType": "uint256",
          "name": "claimValue",
          "type": "uint256"
        },
        {
          "internalType": "bool",
          "name": "verified",
          "type": "bool"
        },
        {
          "internalType": "uint256",
          "name": "verificationTimestamp",
          "type": "uint256"
        }
      ],
      "stateMutability": "view",
      "type": "function",
      "constant": true
    },
    {
      "inputs": [
        {
          "internalType": "address",
          "name": "",
          "type": "address"
        },
        {
          "internalType": "uint256",
          "name": "",
          "type": "uint256"
        }
      ],
      "name": "verifierRequests",
      "outputs": [
        {
          "internalType": "uint256",
          "name": "",
          "type": "uint256"
        }
      ],
      "stateMutability": "view",
      "type": "function",
      "constant": true
    },
    {
      "inputs": [],
      "name": "zkpVerifier",
      "outputs": [
        {
          "internalType": "contract ZKPVerifier",
          "name": "",
          "type": "address"
        }
      ],
      "stateMutability": "view",
      "type": "function",
      "constant": true
    },
    {
      "inputs": [
        {
          "internalType": "address",
          "name": "holder",
          "type": "address"
        },
        {
          "internalType": "enum SelectiveDisclosure.ProofType",
          "name": "proofType",
          "type": "uint8"
        }
      ],
      "name": "requestDisclosure",
      "outputs": [
        {
          "internalType": "uint256",
          "name": "",
          "type": "uint256"
        }
      ],
      "stateMutability": "nonpayable",
      "type": "function"
    },
    {
      "inputs": [
        {
          "internalType": "uint256",
          "name": "requestId",
          "type": "uint256"
        },
        {
          "internalType": "uint256[2]",
          "name": "a",
          "type": "uint256[2]"
        },
        {
          "internalType": "uint256[2][2]",
          "name": "b",
          "type": "uint256[2][2]"
        },
        {
          "internalType": "uint256[2]",
          "name": "c",
          "type": "uint256[2]"
        },
        {
          "internalType": "uint256[1]",
          "name": "publicInputs",
          "type": "uint256[1]"
        }
      ],
      "name": "verifyAgeProof",
      "outputs": [
        {
          "internalType": "bool",
          "name": "",
          "type": "bool"
        }
      ],
      "stateMutability": "nonpayable",
      "type": "function"
    },
    {
      "inputs": [
        {
          "internalType": "uint256",
          "name": "requestId",
          "type": "uint256"
        },
        {
          "internalType": "uint256[2]",
          "name": "a",
          "type": "uint256[2]"
        },
        {
          "internalType": "uint256[2][2]",
          "name": "b",
          "type": "uint256[2][2]"
        },
        {
          "internalType": "uint256[2]",
          "name": "c",
          "type": "uint256[2]"
        },
        {
          "internalType": "uint256[2]",
          "name": "publicInputs",
          "type": "uint256[2]"
        }
      ],
      "name": "verifyCredentialPossession",
      "outputs": [
        {
          "internalType": "bool",
          "name": "",
          "type": "bool"
        }
      ],
      "stateMutability": "nonpayable",
      "type": "function"
    },
    {
      "inputs": [
        {
          "internalType": "uint256",
          "name": "requestId",
          "type": "uint256"
        },
        {
          "internalType": "uint256[2]",
          "name": "a",
          "type": "uint256[2]"
        },
        {
          "internalType": "uint256[2][2]",
          "name": "b",
          "type": "uint256[2][2]"
        },
        {
          "internalType": "uint256[2]",
          "name": "c",
          "type": "uint256[2]"
        },
        {
          "internalType": "uint256[3]",
          "name": "publicInputs",
          "type": "uint256[3]"
        }
      ],
      "name": "verifyUniversityRankProof",
      "outputs": [
        {
          "internalType": "bool",
          "name": "",
          "type": "bool"
        }
      ],
      "stateMutability": "nonpayable",
      "type": "function"
    },
    {
      "inputs": [
        {
          "internalType": "uint256",
          "name": "requestId",
          "type": "uint256"
        }
      ],
      "name": "getDisclosureRequest",
      "outputs": [
        {
          "components": [
            {
              "internalType": "uint256",
              "name": "requestId",
              "type": "uint256"
            },
            {
              "internalType": "address",
              "name": "requester",
              "type": "address"
            },
            {
              "internalType": "address",
              "name": "holder",
              "type": "address"
            },
            {
              "internalType": "enum SelectiveDisclosure.ProofType",
              "name": "proofType",
              "type": "uint8"
            },
            {
              "internalType": "uint256",
              "name": "timestamp",
              "type": "uint256"
            },
            {
              "internalType": "bool",
              "name": "verified",
              "type": "bool"
            },
            {
              "internalType": "bytes32",
              "name": "proofHash",
              "type": "bytes32"
            }
          ],
          "internalType": "struct SelectiveDisclosure.DisclosureRequest",
          "name": "",
          "type": "tuple"
        }
      ],
      "stateMutability": "view",
      "type": "function",
      "constant": true
    },
    {
      "inputs": [
        {
          "internalType": "address",
          "name": "holder",
          "type": "address"
        }
      ],
      "name": "getHolderRequests",
      "outputs": [
        {
          "internalType": "uint256[]",
          "name": "",
          "type": "uint256[]"
        }
      ],
      "stateMutability": "view",
      "type": "function",
      "constant": true
    },
    {
      "inputs": [
        {
          "internalType": "address",
          "name": "verifier",
          "type": "address"
        }
      ],
      "name": "getVerifierRequests",
      "outputs": [
        {
          "internalType": "uint256[]",
          "name": "",
          "type": "uint256[]"
        }
      ],
      "stateMutability": "view",
      "type": "function",
      "constant": true
    },
    {
      "inputs": [
        {
          "internalType": "address",
          "name": "holder",
          "type": "address"
        },
        {
          "internalType": "string",
          "name": "claimType",
          "type": "string"
        }
      ],
      "name": "isClaimVerified",
      "outputs": [
        {
          "internalType": "bool",
          "name": "",
          "type": "bool"
        }
      ],
      "stateMutability": "view",
      "type": "function",
      "constant": true
    },
    {
      "inputs": [
        {
          "internalType": "address",
          "name": "holder",
          "type": "address"
        },
        {
          "internalType": "string",
          "name": "claimType",
          "type": "string"
        }
      ],
      "name": "getClaim",
      "outputs": [
        {
          "components": [
            {
              "internalType": "string",
              "name": "claimType",
              "type": "string"
            },
            {
              "internalType": "uint256",
              "name": "claimValue",
              "type": "uint256"
            },
            {
              "internalType": "bool",
              "name": "verified",
              "type": "bool"
            },
            {
              "internalType": "uint256",
              "name": "verificationTimestamp",
              "type": "uint256"
            }
          ],
          "internalType": "struct SelectiveDisclosure.Claim",
          "name": "",
          "type": "tuple"
        }
      ],
      "stateMutability": "view",
      "type": "function",
      "constant": true
    },
    {
      "inputs": [
        {
          "internalType": "bytes32",
          "name": "proofHash",
          "type": "bytes32"
        }
      ],
      "name": "isProofUsed",
      "outputs": [
        {
          "internalType": "bool",
          "name": "",
          "type": "bool"
        }
      ],
      "stateMutability": "view",
      "type": "function",
      "constant": true
    },
    {
      "inputs": [
        {
          "internalType": "address",
          "name": "newVerifier",
          "type": "address"
        }
      ],
      "name": "updateZKPVerifier",
      "outputs": [],
      "stateMutability": "nonpayable",
      "type": "function"
    },
    {
      "inputs": [],
      "name": "getTotalRequests",
      "outputs": [
        {
          "internalType": "uint256",
          "name": "",
          "type": "uint256"
        }
      ],
      "stateMutability": "view",
      "type": "function",
      "constant": true
    }
  ],
  "bytecode": "0x60806040523480156200001157600080fd5b506040516200234f3803806200234f833981016040819052620000349162000173565b60016000556001600160a01b038216620000a65760405162461bcd60e51b815260206004820152602860248201527f53656c656374697665446973636c6f737572653a20496e76616c6964204e4654604482015267206164647265737360c01b60648201526084015b60405180910390fd5b6001600160a01b038116620001145760405162461bcd60e51b815260206004820152602d60248201527f53656c656374697665446973636c6f737572653a20496e76616c69642076657260448201526c6966696572206164647265737360981b60648201526084016200009d565b600180546001600160a01b039384166001600160a01b0319918216179091556002805492909316918116919091179091556003805490911633179055620001ab565b80516001600160a01b03811681146200016e57600080fd5b919050565b600080604083850312156200018757600080fd5b620001928362000156565b9150620001a26020840162000156565b90509250929050565b61219480620001bb6000396000f3fe608060405234801561001057600080fd5b50600436106101375760003560e01c80638d2b27f0116100b8578063ac71cec81161007c578063ac71cec8146102d3578063afe9d2c7146102e6578063c30a0f251461035b578063dd740d791461037e578063f0e22d5214610391578063f851a4401461039957600080fd5b80638d2b27f01461027e5780638dd3268e14610291578063934fcd1b146102a457806393e24be2146102b7578063973a814e146102ca57600080fd5b8063557bbf7f116100ff578063557bbf7f146101cd578063577042cd1461020057806358924b81146102135780636aebbd6614610233578063812562751461025e57600080fd5b8063179bff4c1461013c5780632436670a146101515780632deddeb71461017757806347617e7e146101975780635543f25e146101aa575b600080fd5b61014f61014a3660046115d9565b6103ac565b005b61016461015f3660046115fb565b61048f565b6040519081526020015b60405180910390f35b61018a6101853660046115d9565b6104c0565b60405161016e9190611625565b6101646101a5366004611669565b61052c565b6101bd6101b83660046116a4565b610737565b60405161016e949392919061170d565b6101f06101db3660046116a4565b60009081526005602052604090205460ff1690565b604051901515815260200161016e565b61016461020e3660046115fb565b6107ed565b6102266102213660046117ac565b610809565b60405161016e9190611852565b600254610246906001600160a01b031681565b6040516001600160a01b03909116815260200161016e565b61027161026c3660046116a4565b610938565b60405161016e91906118d2565b6101f061028c3660046119d8565b610a17565b6101f061029f366004611a9a565b610dad565b600154610246906001600160a01b031681565b6101f06102c53660046117ac565b611134565b61016460095481565b6101f06102e1366004611b19565b61117d565b6103486102f43660046116a4565b600460208190526000918252604090912080546001820154600283015460038401549484015460059094015492946001600160a01b039283169492821693600160a01b90920460ff90811693919291169087565b60405161016e9796959493929190611b7d565b6101f06103693660046116a4565b60056020526000908152604090205460ff1681565b61018a61038c3660046115d9565b6114fa565b600954610164565b600354610246906001600160a01b031681565b6003546001600160a01b0316331461040b5760405162461bcd60e51b815260206004820152601e60248201527f53656c656374697665446973636c6f737572653a204e6f742061646d696e000060448201526064015b60405180910390fd5b6001600160a01b03811661046d5760405162461bcd60e51b8152602060048201526024808201527f53656c656374697665446973636c6f737572653a20496e76616c6964206164646044820152637265737360e01b6064820152608401610402565b600280546001600160a01b0319166001600160a01b0392909216919091179055565b600660205281600052604060002081815481106104ab57600080fd5b90600052602060002001600091509150505481565b6001600160a01b03811660009081526007602090815260409182902080548351818402810184019094528084526060939283018282801561052057602002820191906000526020600020905b81548152602001906001019080831161050c575b50505050509050919050565b60006001600160a01b0383166105905760405162461bcd60e51b815260206004820152602360248201527f53656c656374697665446973636c6f737572653a20496e76616c696420686f6c6044820152623232b960e91b6064820152608401610402565b600980549060006105a083611bc6565b90915550506009546040805160e0810182528281523360208201526001600160a01b03861691810191909152606081018460028111156105e2576105e261189a565b815242602080830191909152600060408084018290526060938401829052858252600483529081902084518155918401516001830180546001600160a01b03199081166001600160a01b0393841617909155918501516002808501805494851692909316918217835594860151939491926001600160a81b0319161790600160a01b9084908111156106765761067661189a565b02179055506080820151600382015560a082015160048201805460ff191691151591909117905560c0909101516005909101556001600160a01b038416600081815260066020908152604080832080546001818101835591855283852001869055338085526007845282852080549283018155855292909320909201849055905183907f28f17e16ed25082bc916e18d19517e92fa39b8467b36ca40773bc3ebf69fb822906107289088904290611bed565b60405180910390a49392505050565b60086020526000908152604090208054819061075290611c08565b80601f016020809104026020016040519081016040528092919081815260200182805461077e90611c08565b80156107cb5780601f106107a0576101008083540402835291602001916107cb565b820191906000526020600020905b8154815290600101906020018083116107ae57829003601f168201915b50505050600183015460028401546003909401549293909260ff909116915084565b600760205281600052604060002081815481106104ab57600080fd5b61083660405180608001604052806060815260200160008152602001600015158152602001600081525090565b6000838360405160200161084b929190611c42565b60408051601f19818403018152828252805160209182012060008181526008909252908290206080840190925281549093508290829061088a90611c08565b80601f01602080910402602001604051908101604052809291908181526020018280546108b690611c08565b80156109035780601f106108d857610100808354040283529160200191610903565b820191906000526020600020905b8154815290600101906020018083116108e657829003601f168201915b505050918352505060018201546020820152600282015460ff1615156040820152600390910154606090910152949350505050565b6040805160e081018252600080825260208201819052918101829052606081018290526080810182905260a0810182905260c0810191909152600082815260046020908152604091829020825160e0810184528154815260018201546001600160a01b0390811693820193909352600280830154938416948201949094529290916060840191600160a01b90910460ff16908111156109d9576109d961189a565b60028111156109ea576109ea61189a565b815260038201546020820152600482015460ff161515604082015260059091015460609091015292915050565b6000610a21611564565b600086815260046020526040902080548714610a4f5760405162461bcd60e51b815260040161040290611c7a565b60028101546001600160a01b03163314610a7b5760405162461bcd60e51b815260040161040290611cbe565b6000600282810154600160a01b900460ff1690811115610a9d57610a9d61189a565b14610aba5760405162461bcd60e51b815260040161040290611d01565b600481015460ff1615610adf5760405162461bcd60e51b815260040161040290611d46565b6002546040516330be12a960e11b81526000916001600160a01b03169063617c255290610b16908a908a908a908a90600401611de2565b602060405180830381865afa158015610b33573d6000803e3d6000fd5b505050506040513d601f19601f82011682018060405250810190610b579190611e3f565b9050600087878787604051602001610b729493929190611e61565b60408051601f1981840301815291815281516020928301206000818152600590935291205490915060ff1615610bba5760405162461bcd60e51b815260040161040290611ec2565b8115610d4f57600483018054600160ff1991821681179092556005808601849055600084815260209182526040808220805490941690941790925591516001600160601b03193360601b1692810192909252721051d157d05093d59157d512149154d213d311606a1b60348301529060470160408051808303601f19018152828252805160209182012060c084018352601360808501908152721051d157d05093d59157d512149154d213d311606a1b60a08601528452895182850152600184840152426060850152600081815260089092529190208251919350908190610ca29082611f58565b506020820151816001015560408201518160020160006101000a81548160ff02191690831515021790555060608201518160030155905050336001600160a01b0316817ff04e57c7c8945a67f28dd01e429217c951d7386aa1b8a33999943e91a7b974416001604051610d4591906040808252601390820152721051d157d05093d59157d512149154d213d311606a1b6060820152901515602082015260800190565b60405180910390a3505b336001600160a01b0316897fa01d4196489fe10438ca2430b0db1500c04cbaf0a36b03e7e1e85344ad1a58ec60008585604051610d8e93929190612018565b60405180910390a350915050610da46001600055565b95945050505050565b6000610db7611564565b600086815260046020526040902080548714610de55760405162461bcd60e51b815260040161040290611c7a565b60028101546001600160a01b03163314610e115760405162461bcd60e51b815260040161040290611cbe565b60028082810154600160a01b900460ff1690811115610e3257610e3261189a565b14610e4f5760405162461bcd60e51b815260040161040290611d01565b600481015460ff1615610e745760405162461bcd60e51b815260040161040290611d46565b60025460405163dbac6fb560e01b81526000916001600160a01b03169063dbac6fb590610eab908a908a908a908a90600401612037565b602060405180830381865afa158015610ec8573d6000803e3d6000fd5b505050506040513d601f19601f82011682018060405250810190610eec9190611e3f565b9050600087878787604051602001610f079493929190612088565b60408051601f1981840301815291815281516020928301206000818152600590935291205490915060ff1615610f4f5760405162461bcd60e51b815260040161040290611ec2565b81156110f557600483018054600160ff1991821681179092556005808601849055600084815260209182526040808220805490941690941790925591516001600160601b03193360601b169281019290925277554e49564552534954595f494e5f52414e4b5f52414e474560401b603483015290604c0160408051808303601f19018152828252805160209182012060c08401835260186080850190815277554e49564552534954595f494e5f52414e4b5f52414e474560401b60a0860152845289820151828501526001848401524260608501526000818152600890925291902082519193509081906110439082611f58565b506020820151816001015560408201518160020160006101000a81548160ff02191690831515021790555060608201518160030155905050336001600160a01b0316817ff04e57c7c8945a67f28dd01e429217c951d7386aa1b8a33999943e91a7b9744160016040516110eb9190604080825260189082015277554e49564552534954595f494e5f52414e4b5f52414e474560401b6060820152901515602082015260800190565b60405180910390a3505b336001600160a01b0316897fa01d4196489fe10438ca2430b0db1500c04cbaf0a36b03e7e1e85344ad1a58ec60028585604051610d8e93929190612018565b600080838360405160200161114a929190611c42565b60408051808303601f1901815291815281516020928301206000908152600890925290206002015460ff16949350505050565b6000611187611564565b6000868152600460205260409020805487146111b55760405162461bcd60e51b815260040161040290611c7a565b60028101546001600160a01b031633146111e15760405162461bcd60e51b815260040161040290611cbe565b6001600282810154600160a01b900460ff16908111156112035761120361189a565b146112205760405162461bcd60e51b815260040161040290611d01565b600481015460ff16156112455760405162461bcd60e51b815260040161040290611d46565b60025460405163157371ad60e11b81526000916001600160a01b031690632ae6e35a9061127c908a908a908a908a906004016120e9565b602060405180830381865afa158015611299573d6000803e3d6000fd5b505050506040513d601f19601f820116820180604052508101906112bd9190611e3f565b90506000878787876040516020016112d89493929190612120565b60408051601f1981840301815291815281516020928301206000818152600590935291205490915060ff16156113205760405162461bcd60e51b815260040161040290611ec2565b81156114bb57600483018054600160ff1991821681179092556005808601849055600084815260209182526040808220805490941690941790925591516001600160601b03193360601b16928101929092527421a922a222a72a24a0a62fa827a9a9a2a9a9a4a7a760591b60348301529060490160408051601f19818403018152828252805160209182012060c0840183526015608085019081527421a922a222a72a24a0a62fa827a9a9a2a9a9a4a7a760591b60a0860152845260018483018190528484015242606085015260008181526008909252919020825191935090819061140c9082611f58565b506020820151816001015560408201518160020160006101000a81548160ff02191690831515021790555060608201518160030155905050336001600160a01b0316817ff04e57c7c8945a67f28dd01e429217c951d7386aa1b8a33999943e91a7b9744160016040516114b1919060408082526015908201527421a922a222a72a24a0a62fa827a9a9a2a9a9a4a7a760591b6060820152901515602082015260800190565b60405180910390a3505b336001600160a01b0316897fa01d4196489fe10438ca2430b0db1500c04cbaf0a36b03e7e1e85344ad1a58ec60018585604051610d8e93929190612018565b6001600160a01b038116600090815260066020908152604091829020805483518184028101840190945280845260609392830182828015610520576020028201919060005260206000209081548152602001906001019080831161050c5750505050509050919050565b6002600054036115b65760405162461bcd60e51b815260206004820152601f60248201527f5265656e7472616e637947756172643a207265656e7472616e742063616c6c006044820152606401610402565b6002600055565b80356001600160a01b03811681146115d457600080fd5b919050565b6000602082840312156115eb57600080fd5b6115f4826115bd565b9392505050565b6000806040838503121561160e57600080fd5b611617836115bd565b946020939093013593505050565b6020808252825182820181905260009190848201906040850190845b8181101561165d57835183529284019291840191600101611641565b50909695505050505050565b6000806040838503121561167c57600080fd5b611685836115bd565b915060208301356003811061169957600080fd5b809150509250929050565b6000602082840312156116b657600080fd5b5035919050565b60005b838110156116d85781810151838201526020016116c0565b50506000910152565b600081518084526116f98160208601602086016116bd565b601f01601f19169290920160200192915050565b60808152600061172060808301876116e1565b6020830195909552509115156040830152606090910152919050565b634e487b7160e01b600052604160045260246000fd5b6040805190810167ffffffffffffffff811182821017156117755761177561173c565b60405290565b604051601f8201601f1916810167ffffffffffffffff811182821017156117a4576117a461173c565b604052919050565b600080604083850312156117bf57600080fd5b6117c8836115bd565b915060208084013567ffffffffffffffff808211156117e657600080fd5b818601915086601f8301126117fa57600080fd5b81358181111561180c5761180c61173c565b61181e601f8201601f1916850161177b565b9150808252878482850101111561183457600080fd5b80848401858401376000848284010152508093505050509250929050565b60208152600082516080602084015261186e60a08401826116e1565b905060208401516040840152604084015115156060840152606084015160808401528091505092915050565b634e487b7160e01b600052602160045260246000fd5b600381106118ce57634e487b7160e01b600052602160045260246000fd5b9052565b815181526020808301516001600160a01b03908116918301919091526040808401519091169082015260608083015160e0830191611912908401826118b0565b506080830151608083015260a0830151151560a083015260c083015160c083015292915050565b600082601f83011261194a57600080fd5b611952611752565b80604084018581111561196457600080fd5b845b8181101561197e578035845260209384019301611966565b509095945050505050565b600082601f83011261199a57600080fd5b6119a2611752565b8060808401858111156119b457600080fd5b845b8181101561197e576119c88782611939565b84526020909301926040016119b6565b60008060008060006101408087890312156119f257600080fd5b863595506020611a0489828a01611939565b9550611a138960608a01611989565b9450611a228960e08a01611939565b93508861013f890112611a3457600080fd5b60405181810181811067ffffffffffffffff82111715611a5657611a5661173c565b60405291880191808a841115611a6b57600080fd5b6101208a015b84811015611a885780358252908301908301611a71565b50508093505050509295509295909350565b6000806000806000610180808789031215611ab457600080fd5b863595506020611ac689828a01611939565b9550611ad58960608a01611989565b9450611ae48960e08a01611939565b93508861013f890112611af657600080fd5b6040516060810181811067ffffffffffffffff82111715611a5657611a5661173c565b60008060008060006101608688031215611b3257600080fd5b85359450611b438760208801611939565b9350611b528760608801611989565b9250611b618760e08801611939565b9150611b71876101208801611939565b90509295509295909350565b8781526001600160a01b0387811660208301528616604082015260e08101611ba860608301876118b0565b608082019490945291151560a083015260c090910152949350505050565b600060018201611be657634e487b7160e01b600052601160045260246000fd5b5060010190565b60408101611bfb82856118b0565b8260208301529392505050565b600181811c90821680611c1c57607f821691505b602082108103611c3c57634e487b7160e01b600052602260045260246000fd5b50919050565b6bffffffffffffffffffffffff198360601b16815260008251611c6c8160148501602087016116bd565b919091016014019392505050565b60208082526024908201527f53656c656374697665446973636c6f737572653a20496e76616c6964207265716040820152631d595cdd60e21b606082015260800190565b60208082526023908201527f53656c656374697665446973636c6f737572653a204e6f742074686520686f6c6040820152623232b960e91b606082015260800190565b60208082526025908201527f53656c656374697665446973636c6f737572653a2057726f6e672070726f6f66604082015264207479706560d81b606082015260800190565b60208082526025908201527f53656c656374697665446973636c6f737572653a20416c7265616479207665726040820152641a599a595960da1b606082015260800190565b8060005b6002811015611dae578151845260209384019390910190600101611d8f565b50505050565b8060005b6002811015611dae57611dcc848351611d8b565b6040939093019260209190910190600101611db8565b6101208101611df18287611d8b565b611dfe6040830186611db4565b611e0b60c0830185611d8b565b61010082018360005b6001811015611e33578151835260209283019290910190600101611e14565b50505095945050505050565b600060208284031215611e5157600080fd5b815180151581146115f457600080fd5b611e6b8186611d8b565b611e786040820185611db4565b611e8560c0820184611d8b565b600061010082018360005b6001811015611eaf578151835260209283019290910190600101611e90565b5050506101208201905095945050505050565b60208082526027908201527f53656c656374697665446973636c6f737572653a2050726f6f6620616c726561604082015266191e481d5cd95960ca1b606082015260800190565b601f821115611f5357600081815260208120601f850160051c81016020861015611f305750805b601f850160051c820191505b81811015611f4f57828155600101611f3c565b5050505b505050565b815167ffffffffffffffff811115611f7257611f7261173c565b611f8681611f808454611c08565b84611f09565b602080601f831160018114611fbb5760008415611fa35750858301515b600019600386901b1c1916600185901b178555611f4f565b600085815260208120601f198616915b82811015611fea57888601518255948401946001909101908401611fcb565b50858210156120085787850151600019600388901b60f8161c191681555b5050505050600190811b01905550565b6060810161202682866118b0565b921515602082015260400152919050565b61016081016120468287611d8b565b6120536040830186611db4565b61206060c0830185611d8b565b61010082018360005b6003811015611e33578151835260209283019290910190600101612069565b6120928186611d8b565b61209f6040820185611db4565b6120ac60c0820184611d8b565b600061010082018360005b60038110156120d65781518352602092830192909101906001016120b7565b5050506101608201905095945050505050565b61014081016120f88287611d8b565b6121056040830186611db4565b61211260c0830185611d8b565b610da4610100830184611d8b565b61212a8186611d8b565b6121376040820185611db4565b61214460c0820184611d8b565b612152610100820183611d8b565b6101400194935050505056fea26469706673582212206f540c0fee7bc79eaf882d0ca2bb6ce69e5d8a6102fcb4200e9630465d23fb3364736f6c63430008140033",
  "immutableReferences": {},
  "source": "// SPDX-License-Identifier: MIT\r\npragma solidity ^0.8.0;\r\n\r\nimport \"../interfaces/ICredential.sol\";\r\nimport \"../libraries/CredentialTypes.sol\";\r\nimport \"./ZKPVerifier.sol\";\r\nimport \"@openzeppelin/contracts/security/ReentrancyGuard.sol\";\r\n\r\n/**\r\n * @title SelectiveDisclosure\r\n * @dev Enables privacy-preserving credential verification using zero-knowledge proofs\r\n * Allows students to prove claims about their credentials without revealing full details\r\n */\r\ncontract SelectiveDisclosure is ReentrancyGuard {\r\n    // Contract references\r\n    ICredential public credentialNFT;\r\n    ZKPVerifier public zkpVerifier;\r\n\r\n    // Admin\r\n    address public admin;\r\n\r\n    // Proof types\r\n    enum ProofType {\r\n        AGE_PROOF,\r\n        CREDENTIAL_POSSESSION,\r\n        UNIVERSITY_RANK\r\n    }\r\n\r\n    // Disclosure request structure\r\n    struct DisclosureRequest {\r\n        uint256 requestId;\r\n        address requester;\r\n        address holder;\r\n        ProofType proofType;\r\n        uint256 timestamp;\r\n        bool verified;\r\n        bytes32 proofHash;\r\n    }\r\n\r\n    // Claim structure\r\n    struct Claim {\r\n        string claimType;\r\n        uint256 claimValue;\r\n        bool verified;\r\n        uint256 verificationTimestamp;\r\n    }\r\n\r\n    // Storage\r\n    mapping(uint256 => DisclosureRequest) public disclosureRequests;\r\n    mapping(bytes32 => bool) public usedProofs;\r\n    mapping(address => uint256[]) public holderRequests;\r\n    mapping(address => uint256[]) public verifierRequests;\r\n    mapping(bytes32 => Claim) public verifiedClaims;\r\n\r\n    uint256 public requestCounter;\r\n\r\n    // Events\r\n    event DisclosureRequested(\r\n        uint256 indexed requestId,\r\n        address indexed requester,\r\n        address indexed holder,\r\n        ProofType proofType,\r\n        uint256 timestamp\r\n    );\r\n\r\n    event ProofVerified(\r\n        uint256 indexed requestId,\r\n        address indexed holder,\r\n        ProofType proofType,\r\n        bool success,\r\n        bytes32 proofHash\r\n    );\r\n\r\n    event ClaimVerified(\r\n        bytes32 indexed claimHash,\r\n        address indexed holder,\r\n        string claimType,\r\n        bool verified\r\n    );\r\n\r\n    modifier onlyAdmin() {\r\n        require(msg.sender == admin, \"SelectiveDisclosure: Not admin\");\r\n        _;\r\n    }\r\n\r\n    constructor(address _credentialNFTAddress, address _zkpVerifierAddress) {\r\n        require(\r\n            _credentialNFTAddress != address(0),\r\n            \"SelectiveDisclosure: Invalid NFT address\"\r\n        );\r\n        require(\r\n            _zkpVerifierAddress != address(0),\r\n            \"SelectiveDisclosure: Invalid verifier address\"\r\n        );\r\n\r\n        credentialNFT = ICredential(_credentialNFTAddress);\r\n        zkpVerifier = ZKPVerifier(_zkpVerifierAddress);\r\n        admin = msg.sender;\r\n    }\r\n\r\n    /**\r\n     * @dev Request a selective disclosure from a credential holder\r\n     */\r\n    function requestDisclosure(\r\n        address holder,\r\n        ProofType proofType\r\n    ) external returns (uint256) {\r\n        require(holder != address(0), \"SelectiveDisclosure: Invalid holder\");\r\n\r\n        requestCounter++;\r\n        uint256 requestId = requestCounter;\r\n\r\n        disclosureRequests[requestId] = DisclosureRequest({\r\n            requestId: requestId,\r\n            requester: msg.sender,\r\n            holder: holder,\r\n            proofType: proofType,\r\n            timestamp: block.timestamp,\r\n            verified: false,\r\n            proofHash: bytes32(0)\r\n        });\r\n\r\n        holderRequests[holder].push(requestId);\r\n        verifierRequests[msg.sender].push(requestId);\r\n\r\n        emit DisclosureRequested(\r\n            requestId,\r\n            msg.sender,\r\n            holder,\r\n            proofType,\r\n            block.timestamp\r\n        );\r\n\r\n        return requestId;\r\n    }\r\n\r\n    /**\r\n     * @dev Verify age proof (prove age > threshold without revealing birth year)\r\n     */\r\n    function verifyAgeProof(\r\n        uint256 requestId,\r\n        uint[2] memory a,\r\n        uint[2][2] memory b,\r\n        uint[2] memory c,\r\n        uint[1] memory publicInputs\r\n    ) external nonReentrant returns (bool) {\r\n        DisclosureRequest storage request = disclosureRequests[requestId];\r\n        require(\r\n            request.requestId == requestId,\r\n            \"SelectiveDisclosure: Invalid request\"\r\n        );\r\n        require(\r\n            request.holder == msg.sender,\r\n            \"SelectiveDisclosure: Not the holder\"\r\n        );\r\n        require(\r\n            request.proofType == ProofType.AGE_PROOF,\r\n            \"SelectiveDisclosure: Wrong proof type\"\r\n        );\r\n        require(!request.verified, \"SelectiveDisclosure: Already verified\");\r\n\r\n        // Verify the zero-knowledge proof\r\n        bool isValid = zkpVerifier.verifyAgeProof(a, b, c, publicInputs);\r\n\r\n        // Generate proof hash\r\n        bytes32 proofHash = keccak256(abi.encodePacked(a, b, c, publicInputs));\r\n        require(\r\n            !usedProofs[proofHash],\r\n            \"SelectiveDisclosure: Proof already used\"\r\n        );\r\n\r\n        if (isValid) {\r\n            request.verified = true;\r\n            request.proofHash = proofHash;\r\n            usedProofs[proofHash] = true;\r\n\r\n            // Store verified claim\r\n            bytes32 claimHash = keccak256(\r\n                abi.encodePacked(msg.sender, \"AGE_ABOVE_THRESHOLD\")\r\n            );\r\n            verifiedClaims[claimHash] = Claim({\r\n                claimType: \"AGE_ABOVE_THRESHOLD\",\r\n                claimValue: publicInputs[0],\r\n                verified: true,\r\n                verificationTimestamp: block.timestamp\r\n            });\r\n\r\n            emit ClaimVerified(\r\n                claimHash,\r\n                msg.sender,\r\n                \"AGE_ABOVE_THRESHOLD\",\r\n                true\r\n            );\r\n        }\r\n\r\n        emit ProofVerified(\r\n            requestId,\r\n            msg.sender,\r\n            ProofType.AGE_PROOF,\r\n            isValid,\r\n            proofHash\r\n        );\r\n\r\n        return isValid;\r\n    }\r\n\r\n    /**\r\n     * @dev Verify credential possession proof\r\n     */\r\n    function verifyCredentialPossession(\r\n        uint256 requestId,\r\n        uint[2] memory a,\r\n        uint[2][2] memory b,\r\n        uint[2] memory c,\r\n        uint[2] memory publicInputs // [currentTimestamp, credentialHash]\r\n    ) external nonReentrant returns (bool) {\r\n        DisclosureRequest storage request = disclosureRequests[requestId];\r\n        require(\r\n            request.requestId == requestId,\r\n            \"SelectiveDisclosure: Invalid request\"\r\n        );\r\n        require(\r\n            request.holder == msg.sender,\r\n            \"SelectiveDisclosure: Not the holder\"\r\n        );\r\n        require(\r\n            request.proofType == ProofType.CREDENTIAL_POSSESSION,\r\n            \"SelectiveDisclosure: Wrong proof type\"\r\n        );\r\n        require(!request.verified, \"SelectiveDisclosure: Already verified\");\r\n\r\n        // Verify the zero-knowledge proof\r\n        bool isValid = zkpVerifier.verifyCredentialProof(a, b, c, publicInputs);\r\n\r\n        bytes32 proofHash = keccak256(abi.encodePacked(a, b, c, publicInputs));\r\n        require(\r\n            !usedProofs[proofHash],\r\n            \"SelectiveDisclosure: Proof already used\"\r\n        );\r\n\r\n        if (isValid) {\r\n            request.verified = true;\r\n            request.proofHash = proofHash;\r\n            usedProofs[proofHash] = true;\r\n\r\n            bytes32 claimHash = keccak256(\r\n                abi.encodePacked(msg.sender, \"CREDENTIAL_POSSESSION\")\r\n            );\r\n            verifiedClaims[claimHash] = Claim({\r\n                claimType: \"CREDENTIAL_POSSESSION\",\r\n                claimValue: 1,\r\n                verified: true,\r\n                verificationTimestamp: block.timestamp\r\n            });\r\n\r\n            emit ClaimVerified(\r\n                claimHash,\r\n                msg.sender,\r\n                \"CREDENTIAL_POSSESSION\",\r\n                true\r\n            );\r\n        }\r\n\r\n        emit ProofVerified(\r\n            requestId,\r\n            msg.sender,\r\n            ProofType.CREDENTIAL_POSSESSION,\r\n            isValid,\r\n            proofHash\r\n        );\r\n\r\n        return isValid;\r\n    }\r\n\r\n    /**\r\n     * @dev Verify university rank proof (prove rank within range)\r\n     */\r\n    function verifyUniversityRankProof(\r\n        uint256 requestId,\r\n        uint[2] memory a,\r\n        uint[2][2] memory b,\r\n        uint[2] memory c,\r\n        uint[3] memory publicInputs // [minRank, maxRank, credentialHash]\r\n    ) external nonReentrant returns (bool) {\r\n        DisclosureRequest storage request = disclosureRequests[requestId];\r\n        require(\r\n            request.requestId == requestId,\r\n            \"SelectiveDisclosure: Invalid request\"\r\n        );\r\n        require(\r\n            request.holder == msg.sender,\r\n            \"SelectiveDisclosure: Not the holder\"\r\n        );\r\n        require(\r\n            request.proofType == ProofType.UNIVERSITY_RANK,\r\n            \"SelectiveDisclosure: Wrong proof type\"\r\n        );\r\n        require(!request.verified, \"SelectiveDisclosure: Already verified\");\r\n\r\n        // Verify the zero-knowledge proof\r\n        bool isValid = zkpVerifier.verifyRankProof(a, b, c, publicInputs);\r\n\r\n        bytes32 proofHash = keccak256(abi.encodePacked(a, b, c, publicInputs));\r\n        require(\r\n            !usedProofs[proofHash],\r\n            \"SelectiveDisclosure: Proof already used\"\r\n        );\r\n\r\n        if (isValid) {\r\n            request.verified = true;\r\n            request.proofHash = proofHash;\r\n            usedProofs[proofHash] = true;\r\n\r\n            bytes32 claimHash = keccak256(\r\n                abi.encodePacked(msg.sender, \"UNIVERSITY_IN_RANK_RANGE\")\r\n            );\r\n            verifiedClaims[claimHash] = Claim({\r\n                claimType: \"UNIVERSITY_IN_RANK_RANGE\",\r\n                claimValue: publicInputs[1], // maxRank\r\n                verified: true,\r\n                verificationTimestamp: block.timestamp\r\n            });\r\n\r\n            emit ClaimVerified(\r\n                claimHash,\r\n                msg.sender,\r\n                \"UNIVERSITY_IN_RANK_RANGE\",\r\n                true\r\n            );\r\n        }\r\n\r\n        emit ProofVerified(\r\n            requestId,\r\n            msg.sender,\r\n            ProofType.UNIVERSITY_RANK,\r\n            isValid,\r\n            proofHash\r\n        );\r\n\r\n        return isValid;\r\n    }\r\n\r\n    /**\r\n     * @dev Get disclosure request details\r\n     */\r\n    function getDisclosureRequest(\r\n        uint256 requestId\r\n    ) external view returns (DisclosureRequest memory) {\r\n        return disclosureRequests[requestId];\r\n    }\r\n\r\n    /**\r\n     * @dev Get all requests for a holder\r\n     */\r\n    function getHolderRequests(\r\n        address holder\r\n    ) external view returns (uint256[] memory) {\r\n        return holderRequests[holder];\r\n    }\r\n\r\n    /**\r\n     * @dev Get all requests made by a verifier\r\n     */\r\n    function getVerifierRequests(\r\n        address verifier\r\n    ) external view returns (uint256[] memory) {\r\n        return verifierRequests[verifier];\r\n    }\r\n\r\n    /**\r\n     * @dev Check if a claim has been verified\r\n     */\r\n    function isClaimVerified(\r\n        address holder,\r\n        string memory claimType\r\n    ) external view returns (bool) {\r\n        bytes32 claimHash = keccak256(abi.encodePacked(holder, claimType));\r\n        return verifiedClaims[claimHash].verified;\r\n    }\r\n\r\n    /**\r\n     * @dev Get verified claim details\r\n     */\r\n    function getClaim(\r\n        address holder,\r\n        string memory claimType\r\n    ) external view returns (Claim memory) {\r\n        bytes32 claimHash = keccak256(abi.encodePacked(holder, claimType));\r\n        return verifiedClaims[claimHash];\r\n    }\r\n\r\n    /**\r\n     * @dev Check if a proof has been used\r\n     */\r\n    function isProofUsed(bytes32 proofHash) external view returns (bool) {\r\n        return usedProofs[proofHash];\r\n    }\r\n\r\n    /**\r\n     * @dev Update ZKP verifier address\r\n     */\r\n    function updateZKPVerifier(address newVerifier) external onlyAdmin {\r\n        require(\r\n            newVerifier != address(0),\r\n            \"SelectiveDisclosure: Invalid address\"\r\n        );\r\n        zkpVerifier = ZKPVerifier(newVerifier);\r\n    }\r\n\r\n    /**\r\n     * @dev Get total number of requests\r\n     */\r\n    function getTotalRequests() external view returns (uint256) {\r\n        return requestCounter;\r\n    }\r\n}\r\n",
  "sourcePath": "E:\\Projects\\NIT Hacks\\NITHACKS_BLOCKCHAIN\\blockchain\\contracts\\zkp\\SelectiveDisclosure.sol",
  "compiler": {
    "name": "solc",
    "version": "0.8.20+commit.a1b79de6.Emscripten.clang"
  },
  "schemaVersion": "3.4.16",
  "updatedAt": "2025-11-22T14:27:23.967Z",
  "networkType": "ethereum",
  "devdoc": {
    "details": "Enables privacy-preserving credential verification using zero-knowledge proofs Allows students to prove claims about their credentials without revealing full details",
    "kind": "dev",
    "methods": {
      "getClaim(address,string)": {
        "details": "Get verified claim details"
      },
      "getDisclosureRequest(uint256)": {
        "details": "Get disclosure request details"
      },
      "getHolderRequests(address)": {
        "details": "Get all requests for a holder"
      },
      "getTotalRequests()": {
        "details": "Get total number of requests"
      },
      "getVerifierRequests(address)": {
        "details": "Get all requests made by a verifier"
      },
      "isClaimVerified(address,string)": {
        "details": "Check if a claim has been verified"
      },
      "isProofUsed(bytes32)": {
        "details": "Check if a proof has been used"
      },
      "requestDisclosure(address,uint8)": {
        "details": "Request a selective disclosure from a credential holder"
      },
      "updateZKPVerifier(address)": {
        "details": "Update ZKP verifier address"
      },
      "verifyAgeProof(uint256,uint256[2],uint256[2][2],uint256[2],uint256[1])": {
        "details": "Verify age proof (prove age > threshold without revealing birth year)"
      },
      "verifyCredentialPossession(uint256,uint256[2],uint256[2][2],uint256[2],uint256[2])": {
        "details": "Verify credential possession proof"
      },
      "verifyUniversityRankProof(uint256,uint256[2],uint256[2][2],uint256[2],uint256[3])": {
        "details": "Verify university rank proof (prove rank within range)"
      }
    },
    "title": "SelectiveDisclosure",
    "version": 1
  },
  "userdoc": {
    "kind": "user",
    "methods": {},
    "version": 1
  }
}