{
  "contractName": "Timelock",
  "abi": [
    {
      "inputs": [
        {
          "internalType": "uint256",
          "name": "_delay",
          "type": "uint256"
        }
      ],
      "stateMutability": "nonpayable",
      "type": "constructor"
    },
    {
      "anonymous": false,
      "inputs": [
        {
          "indexed": false,
          "internalType": "uint256",
          "name": "oldDelay",
          "type": "uint256"
        },
        {
          "indexed": false,
          "internalType": "uint256",
          "name": "newDelay",
          "type": "uint256"
        }
      ],
      "name": "DelayUpdated",
      "type": "event"
    },
    {
      "anonymous": false,
      "inputs": [
        {
          "indexed": true,
          "internalType": "bytes32",
          "name": "role",
          "type": "bytes32"
        },
        {
          "indexed": true,
          "internalType": "bytes32",
          "name": "previousAdminRole",
          "type": "bytes32"
        },
        {
          "indexed": true,
          "internalType": "bytes32",
          "name": "newAdminRole",
          "type": "bytes32"
        }
      ],
      "name": "RoleAdminChanged",
      "type": "event"
    },
    {
      "anonymous": false,
      "inputs": [
        {
          "indexed": true,
          "internalType": "bytes32",
          "name": "role",
          "type": "bytes32"
        },
        {
          "indexed": true,
          "internalType": "address",
          "name": "account",
          "type": "address"
        },
        {
          "indexed": true,
          "internalType": "address",
          "name": "sender",
          "type": "address"
        }
      ],
      "name": "RoleGranted",
      "type": "event"
    },
    {
      "anonymous": false,
      "inputs": [
        {
          "indexed": true,
          "internalType": "bytes32",
          "name": "role",
          "type": "bytes32"
        },
        {
          "indexed": true,
          "internalType": "address",
          "name": "account",
          "type": "address"
        },
        {
          "indexed": true,
          "internalType": "address",
          "name": "sender",
          "type": "address"
        }
      ],
      "name": "RoleRevoked",
      "type": "event"
    },
    {
      "anonymous": false,
      "inputs": [
        {
          "indexed": true,
          "internalType": "bytes32",
          "name": "txHash",
          "type": "bytes32"
        }
      ],
      "name": "TransactionCancelled",
      "type": "event"
    },
    {
      "anonymous": false,
      "inputs": [
        {
          "indexed": true,
          "internalType": "bytes32",
          "name": "txHash",
          "type": "bytes32"
        },
        {
          "indexed": true,
          "internalType": "address",
          "name": "target",
          "type": "address"
        },
        {
          "indexed": false,
          "internalType": "uint256",
          "name": "value",
          "type": "uint256"
        },
        {
          "indexed": false,
          "internalType": "string",
          "name": "signature",
          "type": "string"
        },
        {
          "indexed": false,
          "internalType": "bytes",
          "name": "data",
          "type": "bytes"
        },
        {
          "indexed": false,
          "internalType": "uint256",
          "name": "executionTime",
          "type": "uint256"
        }
      ],
      "name": "TransactionExecuted",
      "type": "event"
    },
    {
      "anonymous": false,
      "inputs": [
        {
          "indexed": true,
          "internalType": "bytes32",
          "name": "txHash",
          "type": "bytes32"
        },
        {
          "indexed": true,
          "internalType": "address",
          "name": "target",
          "type": "address"
        },
        {
          "indexed": false,
          "internalType": "uint256",
          "name": "value",
          "type": "uint256"
        },
        {
          "indexed": false,
          "internalType": "string",
          "name": "signature",
          "type": "string"
        },
        {
          "indexed": false,
          "internalType": "bytes",
          "name": "data",
          "type": "bytes"
        },
        {
          "indexed": false,
          "internalType": "uint256",
          "name": "eta",
          "type": "uint256"
        }
      ],
      "name": "TransactionQueued",
      "type": "event"
    },
    {
      "stateMutability": "payable",
      "type": "fallback",
      "payable": true
    },
    {
      "inputs": [],
      "name": "ADMIN_ROLE",
      "outputs": [
        {
          "internalType": "bytes32",
          "name": "",
          "type": "bytes32"
        }
      ],
      "stateMutability": "view",
      "type": "function",
      "constant": true
    },
    {
      "inputs": [],
      "name": "CANCELLER_ROLE",
      "outputs": [
        {
          "internalType": "bytes32",
          "name": "",
          "type": "bytes32"
        }
      ],
      "stateMutability": "view",
      "type": "function",
      "constant": true
    },
    {
      "inputs": [],
      "name": "DEFAULT_ADMIN_ROLE",
      "outputs": [
        {
          "internalType": "bytes32",
          "name": "",
          "type": "bytes32"
        }
      ],
      "stateMutability": "view",
      "type": "function",
      "constant": true
    },
    {
      "inputs": [],
      "name": "EXECUTOR_ROLE",
      "outputs": [
        {
          "internalType": "bytes32",
          "name": "",
          "type": "bytes32"
        }
      ],
      "stateMutability": "view",
      "type": "function",
      "constant": true
    },
    {
      "inputs": [],
      "name": "GRACE_PERIOD",
      "outputs": [
        {
          "internalType": "uint256",
          "name": "",
          "type": "uint256"
        }
      ],
      "stateMutability": "view",
      "type": "function",
      "constant": true
    },
    {
      "inputs": [],
      "name": "MAXIMUM_DELAY",
      "outputs": [
        {
          "internalType": "uint256",
          "name": "",
          "type": "uint256"
        }
      ],
      "stateMutability": "view",
      "type": "function",
      "constant": true
    },
    {
      "inputs": [],
      "name": "MINIMUM_DELAY",
      "outputs": [
        {
          "internalType": "uint256",
          "name": "",
          "type": "uint256"
        }
      ],
      "stateMutability": "view",
      "type": "function",
      "constant": true
    },
    {
      "inputs": [],
      "name": "PROPOSER_ROLE",
      "outputs": [
        {
          "internalType": "bytes32",
          "name": "",
          "type": "bytes32"
        }
      ],
      "stateMutability": "view",
      "type": "function",
      "constant": true
    },
    {
      "inputs": [],
      "name": "delay",
      "outputs": [
        {
          "internalType": "uint256",
          "name": "",
          "type": "uint256"
        }
      ],
      "stateMutability": "view",
      "type": "function",
      "constant": true
    },
    {
      "inputs": [
        {
          "internalType": "bytes32",
          "name": "role",
          "type": "bytes32"
        }
      ],
      "name": "getRoleAdmin",
      "outputs": [
        {
          "internalType": "bytes32",
          "name": "",
          "type": "bytes32"
        }
      ],
      "stateMutability": "view",
      "type": "function",
      "constant": true
    },
    {
      "inputs": [],
      "name": "gracePeriod",
      "outputs": [
        {
          "internalType": "uint256",
          "name": "",
          "type": "uint256"
        }
      ],
      "stateMutability": "view",
      "type": "function",
      "constant": true
    },
    {
      "inputs": [
        {
          "internalType": "bytes32",
          "name": "role",
          "type": "bytes32"
        },
        {
          "internalType": "address",
          "name": "account",
          "type": "address"
        }
      ],
      "name": "grantRole",
      "outputs": [],
      "stateMutability": "nonpayable",
      "type": "function"
    },
    {
      "inputs": [
        {
          "internalType": "bytes32",
          "name": "role",
          "type": "bytes32"
        },
        {
          "internalType": "address",
          "name": "account",
          "type": "address"
        }
      ],
      "name": "hasRole",
      "outputs": [
        {
          "internalType": "bool",
          "name": "",
          "type": "bool"
        }
      ],
      "stateMutability": "view",
      "type": "function",
      "constant": true
    },
    {
      "inputs": [
        {
          "internalType": "bytes32",
          "name": "",
          "type": "bytes32"
        }
      ],
      "name": "queuedTransactions",
      "outputs": [
        {
          "internalType": "bytes32",
          "name": "txHash",
          "type": "bytes32"
        },
        {
          "internalType": "address",
          "name": "target",
          "type": "address"
        },
        {
          "internalType": "uint256",
          "name": "value",
          "type": "uint256"
        },
        {
          "internalType": "string",
          "name": "signature",
          "type": "string"
        },
        {
          "internalType": "bytes",
          "name": "data",
          "type": "bytes"
        },
        {
          "internalType": "uint256",
          "name": "eta",
          "type": "uint256"
        },
        {
          "internalType": "enum Timelock.TransactionState",
          "name": "state",
          "type": "uint8"
        }
      ],
      "stateMutability": "view",
      "type": "function",
      "constant": true
    },
    {
      "inputs": [
        {
          "internalType": "bytes32",
          "name": "role",
          "type": "bytes32"
        },
        {
          "internalType": "address",
          "name": "account",
          "type": "address"
        }
      ],
      "name": "renounceRole",
      "outputs": [],
      "stateMutability": "nonpayable",
      "type": "function"
    },
    {
      "inputs": [
        {
          "internalType": "bytes32",
          "name": "role",
          "type": "bytes32"
        },
        {
          "internalType": "address",
          "name": "account",
          "type": "address"
        }
      ],
      "name": "revokeRole",
      "outputs": [],
      "stateMutability": "nonpayable",
      "type": "function"
    },
    {
      "inputs": [
        {
          "internalType": "bytes4",
          "name": "interfaceId",
          "type": "bytes4"
        }
      ],
      "name": "supportsInterface",
      "outputs": [
        {
          "internalType": "bool",
          "name": "",
          "type": "bool"
        }
      ],
      "stateMutability": "view",
      "type": "function",
      "constant": true
    },
    {
      "inputs": [
        {
          "internalType": "uint256",
          "name": "",
          "type": "uint256"
        }
      ],
      "name": "transactionHashes",
      "outputs": [
        {
          "internalType": "bytes32",
          "name": "",
          "type": "bytes32"
        }
      ],
      "stateMutability": "view",
      "type": "function",
      "constant": true
    },
    {
      "stateMutability": "payable",
      "type": "receive",
      "payable": true
    },
    {
      "inputs": [
        {
          "internalType": "address",
          "name": "target",
          "type": "address"
        },
        {
          "internalType": "uint256",
          "name": "value",
          "type": "uint256"
        },
        {
          "internalType": "string",
          "name": "signature",
          "type": "string"
        },
        {
          "internalType": "bytes",
          "name": "data",
          "type": "bytes"
        },
        {
          "internalType": "uint256",
          "name": "eta",
          "type": "uint256"
        }
      ],
      "name": "queueTransaction",
      "outputs": [
        {
          "internalType": "bytes32",
          "name": "",
          "type": "bytes32"
        }
      ],
      "stateMutability": "nonpayable",
      "type": "function"
    },
    {
      "inputs": [
        {
          "internalType": "address",
          "name": "target",
          "type": "address"
        },
        {
          "internalType": "uint256",
          "name": "value",
          "type": "uint256"
        },
        {
          "internalType": "string",
          "name": "signature",
          "type": "string"
        },
        {
          "internalType": "bytes",
          "name": "data",
          "type": "bytes"
        },
        {
          "internalType": "uint256",
          "name": "eta",
          "type": "uint256"
        }
      ],
      "name": "executeTransaction",
      "outputs": [
        {
          "internalType": "bytes",
          "name": "",
          "type": "bytes"
        }
      ],
      "stateMutability": "payable",
      "type": "function",
      "payable": true
    },
    {
      "inputs": [
        {
          "internalType": "address",
          "name": "target",
          "type": "address"
        },
        {
          "internalType": "uint256",
          "name": "value",
          "type": "uint256"
        },
        {
          "internalType": "string",
          "name": "signature",
          "type": "string"
        },
        {
          "internalType": "bytes",
          "name": "data",
          "type": "bytes"
        },
        {
          "internalType": "uint256",
          "name": "eta",
          "type": "uint256"
        }
      ],
      "name": "cancelTransaction",
      "outputs": [],
      "stateMutability": "nonpayable",
      "type": "function"
    },
    {
      "inputs": [
        {
          "internalType": "bytes32",
          "name": "txHash",
          "type": "bytes32"
        }
      ],
      "name": "getTransactionState",
      "outputs": [
        {
          "internalType": "enum Timelock.TransactionState",
          "name": "",
          "type": "uint8"
        }
      ],
      "stateMutability": "view",
      "type": "function",
      "constant": true
    },
    {
      "inputs": [
        {
          "internalType": "bytes32",
          "name": "txHash",
          "type": "bytes32"
        }
      ],
      "name": "isQueued",
      "outputs": [
        {
          "internalType": "bool",
          "name": "",
          "type": "bool"
        }
      ],
      "stateMutability": "view",
      "type": "function",
      "constant": true
    },
    {
      "inputs": [
        {
          "internalType": "bytes32",
          "name": "txHash",
          "type": "bytes32"
        }
      ],
      "name": "getQueuedTransaction",
      "outputs": [
        {
          "internalType": "address",
          "name": "target",
          "type": "address"
        },
        {
          "internalType": "uint256",
          "name": "value",
          "type": "uint256"
        },
        {
          "internalType": "string",
          "name": "signature",
          "type": "string"
        },
        {
          "internalType": "bytes",
          "name": "data",
          "type": "bytes"
        },
        {
          "internalType": "uint256",
          "name": "eta",
          "type": "uint256"
        },
        {
          "internalType": "enum Timelock.TransactionState",
          "name": "state",
          "type": "uint8"
        }
      ],
      "stateMutability": "view",
      "type": "function",
      "constant": true
    },
    {
      "inputs": [],
      "name": "getAllTransactionHashes",
      "outputs": [
        {
          "internalType": "bytes32[]",
          "name": "",
          "type": "bytes32[]"
        }
      ],
      "stateMutability": "view",
      "type": "function",
      "constant": true
    },
    {
      "inputs": [],
      "name": "getTransactionCount",
      "outputs": [
        {
          "internalType": "uint256",
          "name": "",
          "type": "uint256"
        }
      ],
      "stateMutability": "view",
      "type": "function",
      "constant": true
    },
    {
      "inputs": [
        {
          "internalType": "uint256",
          "name": "newDelay",
          "type": "uint256"
        }
      ],
      "name": "updateDelay",
      "outputs": [],
      "stateMutability": "nonpayable",
      "type": "function"
    }
  ],
  "bytecode": "0x60806040523480156200001157600080fd5b5060405162001e5938038062001e5983398101604081905262000034916200021c565b6201518081101580156200004b575062278d008111155b6200009c5760405162461bcd60e51b815260206004820152601760248201527f54696d656c6f636b3a20496e76616c69642064656c6179000000000000000000604482015260640160405180910390fd5b600181905562127500600255620000b56000336200016c565b620000e17fa49807205ce4d355092ef5a8a18f56e8913cf4a201fbe287825b095693c21775336200016c565b6200010d7fb09aa5aeb3702cfd50b6b62bc4532604938f21248a27a1d5ca736082b6819cc1336200016c565b620001397fd8aa0f3194971a2a116679f7c2090f6939c8d4e01a2a8d7e41d55e5351469e63336200016c565b620001657ffd643c72710c63c0180259aba6b2d05451e3591a24e58b62239378085726f783336200016c565b5062000236565b6200017882826200017c565b5050565b6000828152602081815260408083206001600160a01b038516845290915290205460ff1662000178576000828152602081815260408083206001600160a01b03851684529091529020805460ff19166001179055620001d83390565b6001600160a01b0316816001600160a01b0316837f2f8788117e7eff1d82e926ec794901d17c78024a50270940304540a733656f0d60405160405180910390a45050565b6000602082840312156200022f57600080fd5b5051919050565b611c1380620002466000396000f3fe60806040526004361061018b5760003560e01c806375b238fc116100e0578063a217fddf11610084578063c1a287e211610061578063c1a287e2146104cf578063c71cca16146104e6578063d547741f14610526578063f2b065371461054657005b8063a217fddf1461046f578063b08e51c014610484578063b1b43ae5146104b857005b80638f61f4f5116100bd5780638f61f4f5146103e357806391d14854146104175780639866078014610437578063a06db7dc1461045957005b806375b238fc146103665780637d645fab1461039a57806386b237ef146103b157005b80632e7700f0116101475780633a66f901116101245780633a66f901146102f0578063591fcdfe1461031057806364d62353146103305780636a42b8f81461035057005b80632e7700f01461029b5780632f2ff15d146102b057806336568abe146102d057005b806301ffc9a71461019457806307bd0265146101c95780630825f38f1461020b5780630dc051f81461022b578063213dafcd1461024b578063248a9ca31461026b57005b3661019257005b005b3480156101a057600080fd5b506101b46101af36600461156d565b610579565b60405190151581526020015b60405180910390f35b3480156101d557600080fd5b506101fd7fd8aa0f3194971a2a116679f7c2090f6939c8d4e01a2a8d7e41d55e5351469e6381565b6040519081526020016101c0565b61021e61021936600461163f565b6105b0565b6040516101c09190611740565b34801561023757600080fd5b506101b4610246366004611753565b6108b6565b34801561025757600080fd5b506101fd610266366004611753565b6108e9565b34801561027757600080fd5b506101fd610286366004611753565b60009081526020819052604090206001015490565b3480156102a757600080fd5b506004546101fd565b3480156102bc57600080fd5b506101926102cb36600461176c565b61090a565b3480156102dc57600080fd5b506101926102eb36600461176c565b610934565b3480156102fc57600080fd5b506101fd61030b36600461163f565b6109b2565b34801561031c57600080fd5b5061019261032b36600461163f565b610cc0565b34801561033c57600080fd5b5061019261034b366004611753565b610dd8565b34801561035c57600080fd5b506101fd60015481565b34801561037257600080fd5b506101fd7fa49807205ce4d355092ef5a8a18f56e8913cf4a201fbe287825b095693c2177581565b3480156103a657600080fd5b506101fd62278d0081565b3480156103bd57600080fd5b506103d16103cc366004611753565b610edd565b6040516101c0969594939291906117d0565b3480156103ef57600080fd5b506101fd7fb09aa5aeb3702cfd50b6b62bc4532604938f21248a27a1d5ca736082b6819cc181565b34801561042357600080fd5b506101b461043236600461176c565b611067565b34801561044357600080fd5b5061044c611090565b6040516101c0919061182a565b34801561046557600080fd5b506101fd60025481565b34801561047b57600080fd5b506101fd600081565b34801561049057600080fd5b506101fd7ffd643c72710c63c0180259aba6b2d05451e3591a24e58b62239378085726f78381565b3480156104c457600080fd5b506101fd6201518081565b3480156104db57600080fd5b506101fd6212750081565b3480156104f257600080fd5b50610519610501366004611753565b60009081526003602052604090206006015460ff1690565b6040516101c0919061186e565b34801561053257600080fd5b5061019261054136600461176c565b6110e8565b34801561055257600080fd5b50610566610561366004611753565b61110d565b6040516101c0979695949392919061187c565b60006001600160e01b03198216637965db0b60e01b14806105aa57506301ffc9a760e01b6001600160e01b03198316145b92915050565b60607fd8aa0f3194971a2a116679f7c2090f6939c8d4e01a2a8d7e41d55e5351469e636105dc81611269565b600087878787876040516020016105f79594939291906118dd565b60408051601f1981840301815291815281516020928301206000818152600390935291209091506001600682015460ff16600381111561063957610639611798565b1461068b5760405162461bcd60e51b815260206004820181905260248201527f54696d656c6f636b3a205472616e73616374696f6e206e6f742071756575656460448201526064015b60405180910390fd5b844210156106f45760405162461bcd60e51b815260206004820152603060248201527f54696d656c6f636b3a205472616e73616374696f6e206861736e27742073757260448201526f7061737365642074696d65206c6f636b60801b6064820152608401610682565b600254610701908661193f565b4211156107505760405162461bcd60e51b815260206004820152601e60248201527f54696d656c6f636b3a205472616e73616374696f6e206973207374616c6500006044820152606401610682565b60068101805460ff19166002179055865160609060000361077257508561079e565b87805190602001208760405160200161078c929190611952565b60405160208183030381529060405290505b6000808b6001600160a01b03168b846040516107ba9190611983565b60006040518083038185875af1925050503d80600081146107f7576040519150601f19603f3d011682016040523d82523d6000602084013e6107fc565b606091505b50915091508161085f5760405162461bcd60e51b815260206004820152602860248201527f54696d656c6f636b3a205472616e73616374696f6e20657865637574696f6e206044820152671c995d995c9d195960c21b6064820152608401610682565b8b6001600160a01b0316857f75e9314f4ee1bfabbd71dbf15d577eb55aca8f837cce5c7532076771b7fb0f7e8d8d8d4260405161089f949392919061199f565b60405180910390a39b9a5050505050505050505050565b6000600160008381526003602081905260409091206006015460ff16908111156108e2576108e2611798565b1492915050565b600481815481106108f957600080fd5b600091825260209091200154905081565b60008281526020819052604090206001015461092581611269565b61092f8383611276565b505050565b6001600160a01b03811633146109a45760405162461bcd60e51b815260206004820152602f60248201527f416363657373436f6e74726f6c3a2063616e206f6e6c792072656e6f756e636560448201526e103937b632b9903337b91039b2b63360891b6064820152608401610682565b6109ae82826112fa565b5050565b60007fb09aa5aeb3702cfd50b6b62bc4532604938f21248a27a1d5ca736082b6819cc16109de81611269565b6001600160a01b038716610a345760405162461bcd60e51b815260206004820152601860248201527f54696d656c6f636b3a20496e76616c69642074617267657400000000000000006044820152606401610682565b600154610a41904261193f565b831015610a905760405162461bcd60e51b815260206004820181905260248201527f54696d656c6f636b3a20455441206d75737420736174697366792064656c61796044820152606401610682565b60008787878787604051602001610aab9594939291906118dd565b60408051601f19818403018152919052805160209091012090506000808281526003602081905260409091206006015460ff1690811115610aee57610aee611798565b14610b475760405162461bcd60e51b8152602060048201526024808201527f54696d656c6f636b3a205472616e73616374696f6e20616c7265616479207175604482015263195d595960e21b6064820152608401610682565b6040518060e00160405280828152602001896001600160a01b0316815260200188815260200187815260200186815260200185815260200160016003811115610b9257610b92611798565b905260008281526003602081815260409283902084518155908401516001820180546001600160a01b0319166001600160a01b03909216919091179055918301516002830155606083015190820190610beb9082611a64565b5060808201516004820190610c009082611a64565b5060a0820151600582015560c082015160068201805460ff19166001836003811115610c2e57610c2e611798565b021790555050600480546001810182556000919091527f8a35acfbc15ff81a39ae7d344fd709f28e8600b4aa8c65c6b64bfe7fe36bd19b01829055506040516001600160a01b0389169082907f08b225eaa2af60f4ad41006fcd0da0aa9030ef99e55e43a46e50b687aa5c657390610cad908b908b908b908b9061199f565b60405180910390a3979650505050505050565b7ffd643c72710c63c0180259aba6b2d05451e3591a24e58b62239378085726f783610cea81611269565b60008686868686604051602001610d059594939291906118dd565b60408051601f1981840301815291815281516020928301206000818152600390935291209091506001600682015460ff166003811115610d4757610d47611798565b14610d945760405162461bcd60e51b815260206004820181905260248201527f54696d656c6f636b3a205472616e73616374696f6e206e6f74207175657565646044820152606401610682565b60068101805460ff1916600317905560405182907f0891e6c675e964cf1e5982f60fda276ad06301a9221b2f1d7bf2b2a42fbd69a190600090a25050505050505050565b333014610e365760405162461bcd60e51b815260206004820152602660248201527f54696d656c6f636b3a2043616c6c206d75737420636f6d652066726f6d2054696044820152656d656c6f636b60d01b6064820152608401610682565b620151808110158015610e4c575062278d008111155b610e985760405162461bcd60e51b815260206004820152601760248201527f54696d656c6f636b3a20496e76616c69642064656c61790000000000000000006044820152606401610682565b600180549082905560408051828152602081018490527fa580b4a9812995ffed1b336481c3f3bfeb3414df9f587a9d73856bab25aa4eee910160405180910390a15050565b60008060608060008060006003600089815260200190815260200160002090508060010160009054906101000a90046001600160a01b03168160020154826003018360040184600501548560060160009054906101000a900460ff16838054610f45906119dc565b80601f0160208091040260200160405190810160405280929190818152602001828054610f71906119dc565b8015610fbe5780601f10610f9357610100808354040283529160200191610fbe565b820191906000526020600020905b815481529060010190602001808311610fa157829003601f168201915b50505050509350828054610fd1906119dc565b80601f0160208091040260200160405190810160405280929190818152602001828054610ffd906119dc565b801561104a5780601f1061101f5761010080835404028352916020019161104a565b820191906000526020600020905b81548152906001019060200180831161102d57829003601f168201915b505050505092509650965096509650965096505091939550919395565b6000918252602082815260408084206001600160a01b0393909316845291905290205460ff1690565b606060048054806020026020016040519081016040528092919081815260200182805480156110de57602002820191906000526020600020905b8154815260200190600101908083116110ca575b5050505050905090565b60008281526020819052604090206001015461110381611269565b61092f83836112fa565b6003602081905260009182526040909120805460018201546002830154938301805492946001600160a01b03909216939192611148906119dc565b80601f0160208091040260200160405190810160405280929190818152602001828054611174906119dc565b80156111c15780601f10611196576101008083540402835291602001916111c1565b820191906000526020600020905b8154815290600101906020018083116111a457829003601f168201915b5050505050908060040180546111d6906119dc565b80601f0160208091040260200160405190810160405280929190818152602001828054611202906119dc565b801561124f5780601f106112245761010080835404028352916020019161124f565b820191906000526020600020905b81548152906001019060200180831161123257829003601f168201915b50505050600583015460069093015491929160ff16905087565b611273813361135f565b50565b6112808282611067565b6109ae576000828152602081815260408083206001600160a01b03851684529091529020805460ff191660011790556112b63390565b6001600160a01b0316816001600160a01b0316837f2f8788117e7eff1d82e926ec794901d17c78024a50270940304540a733656f0d60405160405180910390a45050565b6113048282611067565b156109ae576000828152602081815260408083206001600160a01b0385168085529252808320805460ff1916905551339285917ff6391f5c32d9c69d2a47ea670b442974b53935d1edc7fd64eb21e047a839171b9190a45050565b6113698282611067565b6109ae57611376816113b8565b6113818360206113ca565b604051602001611392929190611b24565b60408051601f198184030181529082905262461bcd60e51b825261068291600401611740565b60606105aa6001600160a01b03831660145b606060006113d9836002611b99565b6113e490600261193f565b67ffffffffffffffff8111156113fc576113fc6115b3565b6040519080825280601f01601f191660200182016040528015611426576020820181803683370190505b509050600360fc1b8160008151811061144157611441611bb0565b60200101906001600160f81b031916908160001a905350600f60fb1b8160018151811061147057611470611bb0565b60200101906001600160f81b031916908160001a9053506000611494846002611b99565b61149f90600161193f565b90505b6001811115611517576f181899199a1a9b1b9c1cb0b131b232b360811b85600f16601081106114d3576114d3611bb0565b1a60f81b8282815181106114e9576114e9611bb0565b60200101906001600160f81b031916908160001a90535060049490941c9361151081611bc6565b90506114a2565b5083156115665760405162461bcd60e51b815260206004820181905260248201527f537472696e67733a20686578206c656e67746820696e73756666696369656e746044820152606401610682565b9392505050565b60006020828403121561157f57600080fd5b81356001600160e01b03198116811461156657600080fd5b80356001600160a01b03811681146115ae57600080fd5b919050565b634e487b7160e01b600052604160045260246000fd5b600067ffffffffffffffff808411156115e4576115e46115b3565b604051601f8501601f19908116603f0116810190828211818310171561160c5761160c6115b3565b8160405280935085815286868601111561162557600080fd5b858560208301376000602087830101525050509392505050565b600080600080600060a0868803121561165757600080fd5b61166086611597565b945060208601359350604086013567ffffffffffffffff8082111561168457600080fd5b818801915088601f83011261169857600080fd5b6116a7898335602085016115c9565b945060608801359150808211156116bd57600080fd5b508601601f810188136116cf57600080fd5b6116de888235602084016115c9565b95989497509295608001359392505050565b60005b8381101561170b5781810151838201526020016116f3565b50506000910152565b6000815180845261172c8160208601602086016116f0565b601f01601f19169290920160200192915050565b6020815260006115666020830184611714565b60006020828403121561176557600080fd5b5035919050565b6000806040838503121561177f57600080fd5b8235915061178f60208401611597565b90509250929050565b634e487b7160e01b600052602160045260246000fd5b600481106117cc57634e487b7160e01b600052602160045260246000fd5b9052565b60018060a01b038716815285602082015260c0604082015260006117f760c0830187611714565b82810360608401526118098187611714565b91505083608083015261181f60a08301846117ae565b979650505050505050565b6020808252825182820181905260009190848201906040850190845b8181101561186257835183529284019291840191600101611846565b50909695505050505050565b602081016105aa82846117ae565b87815260018060a01b038716602082015285604082015260e0606082015260006118a960e0830187611714565b82810360808401526118bb8187611714565b9150508360a08301526118d160c08301846117ae565b98975050505050505050565b60018060a01b038616815284602082015260a06040820152600061190460a0830186611714565b82810360608401526119168186611714565b9150508260808301529695505050505050565b634e487b7160e01b600052601160045260246000fd5b808201808211156105aa576105aa611929565b6001600160e01b03198316815281516000906119758160048501602087016116f0565b919091016004019392505050565b600082516119958184602087016116f0565b9190910192915050565b8481526080602082015260006119b86080830186611714565b82810360408401526119ca8186611714565b91505082606083015295945050505050565b600181811c908216806119f057607f821691505b602082108103611a1057634e487b7160e01b600052602260045260246000fd5b50919050565b601f82111561092f57600081815260208120601f850160051c81016020861015611a3d5750805b601f850160051c820191505b81811015611a5c57828155600101611a49565b505050505050565b815167ffffffffffffffff811115611a7e57611a7e6115b3565b611a9281611a8c84546119dc565b84611a16565b602080601f831160018114611ac75760008415611aaf5750858301515b600019600386901b1c1916600185901b178555611a5c565b600085815260208120601f198616915b82811015611af657888601518255948401946001909101908401611ad7565b5085821015611b145787850151600019600388901b60f8161c191681555b5050505050600190811b01905550565b7f416363657373436f6e74726f6c3a206163636f756e7420000000000000000000815260008351611b5c8160178501602088016116f0565b7001034b99036b4b9b9b4b733903937b6329607d1b6017918401918201528351611b8d8160288401602088016116f0565b01602801949350505050565b80820281158282048414176105aa576105aa611929565b634e487b7160e01b600052603260045260246000fd5b600081611bd557611bd5611929565b50600019019056fea26469706673582212207594cec3429199951e3cc9e5192413df0b17d5f6f5edf7fe44145e246a2f083564736f6c63430008140033",
  "immutableReferences": {},
  "source": "// SPDX-License-Identifier: MIT\npragma solidity ^0.8.0;\n\nimport \"@openzeppelin/contracts/access/AccessControl.sol\";\n\n/**\n * @title Timelock\n * @dev Time-delayed execution of governance proposals\n * Provides security by requiring a delay between proposal approval and execution\n */\ncontract Timelock is AccessControl {\n    // Roles\n    bytes32 public constant ADMIN_ROLE = keccak256(\"ADMIN_ROLE\");\n    bytes32 public constant PROPOSER_ROLE = keccak256(\"PROPOSER_ROLE\");\n    bytes32 public constant EXECUTOR_ROLE = keccak256(\"EXECUTOR_ROLE\");\n    bytes32 public constant CANCELLER_ROLE = keccak256(\"CANCELLER_ROLE\");\n\n    // Timelock parameters\n    uint256 public constant MINIMUM_DELAY = 1 days;\n    uint256 public constant MAXIMUM_DELAY = 30 days;\n    uint256 public constant GRACE_PERIOD = 14 days;\n\n    uint256 public delay;\n    uint256 public gracePeriod;\n\n    // Transaction states\n    enum TransactionState {\n        Nonexistent,\n        Queued,\n        Executed,\n        Cancelled\n    }\n\n    // Queued transaction structure\n    struct QueuedTransaction {\n        bytes32 txHash;\n        address target;\n        uint256 value;\n        string signature;\n        bytes data;\n        uint256 eta;\n        TransactionState state;\n    }\n\n    // Storage\n    mapping(bytes32 => QueuedTransaction) public queuedTransactions;\n    bytes32[] public transactionHashes;\n\n    // Events\n    event TransactionQueued(\n        bytes32 indexed txHash,\n        address indexed target,\n        uint256 value,\n        string signature,\n        bytes data,\n        uint256 eta\n    );\n\n    event TransactionExecuted(\n        bytes32 indexed txHash,\n        address indexed target,\n        uint256 value,\n        string signature,\n        bytes data,\n        uint256 executionTime\n    );\n\n    event TransactionCancelled(bytes32 indexed txHash);\n\n    event DelayUpdated(uint256 oldDelay, uint256 newDelay);\n\n    constructor(uint256 _delay) {\n        require(\n            _delay >= MINIMUM_DELAY && _delay <= MAXIMUM_DELAY,\n            \"Timelock: Invalid delay\"\n        );\n\n        delay = _delay;\n        gracePeriod = GRACE_PERIOD;\n\n        _setupRole(DEFAULT_ADMIN_ROLE, msg.sender);\n        _setupRole(ADMIN_ROLE, msg.sender);\n        _setupRole(PROPOSER_ROLE, msg.sender);\n        _setupRole(EXECUTOR_ROLE, msg.sender);\n        _setupRole(CANCELLER_ROLE, msg.sender);\n    }\n\n    /**\n     * @dev Queue a transaction for execution after delay\n     */\n    function queueTransaction(\n        address target,\n        uint256 value,\n        string memory signature,\n        bytes memory data,\n        uint256 eta\n    ) external onlyRole(PROPOSER_ROLE) returns (bytes32) {\n        require(target != address(0), \"Timelock: Invalid target\");\n        require(\n            eta >= block.timestamp + delay,\n            \"Timelock: ETA must satisfy delay\"\n        );\n\n        bytes32 txHash = keccak256(\n            abi.encode(target, value, signature, data, eta)\n        );\n\n        require(\n            queuedTransactions[txHash].state == TransactionState.Nonexistent,\n            \"Timelock: Transaction already queued\"\n        );\n\n        queuedTransactions[txHash] = QueuedTransaction({\n            txHash: txHash,\n            target: target,\n            value: value,\n            signature: signature,\n            data: data,\n            eta: eta,\n            state: TransactionState.Queued\n        });\n\n        transactionHashes.push(txHash);\n\n        emit TransactionQueued(txHash, target, value, signature, data, eta);\n\n        return txHash;\n    }\n\n    /**\n     * @dev Execute a queued transaction after the delay has passed\n     */\n    function executeTransaction(\n        address target,\n        uint256 value,\n        string memory signature,\n        bytes memory data,\n        uint256 eta\n    ) external payable onlyRole(EXECUTOR_ROLE) returns (bytes memory) {\n        bytes32 txHash = keccak256(\n            abi.encode(target, value, signature, data, eta)\n        );\n\n        QueuedTransaction storage queuedTx = queuedTransactions[txHash];\n\n        require(\n            queuedTx.state == TransactionState.Queued,\n            \"Timelock: Transaction not queued\"\n        );\n        require(\n            block.timestamp >= eta,\n            \"Timelock: Transaction hasn't surpassed time lock\"\n        );\n        require(\n            block.timestamp <= eta + gracePeriod,\n            \"Timelock: Transaction is stale\"\n        );\n\n        queuedTx.state = TransactionState.Executed;\n\n        bytes memory callData;\n\n        if (bytes(signature).length == 0) {\n            callData = data;\n        } else {\n            callData = abi.encodePacked(\n                bytes4(keccak256(bytes(signature))),\n                data\n            );\n        }\n\n        (bool success, bytes memory returnData) = target.call{value: value}(\n            callData\n        );\n        require(success, \"Timelock: Transaction execution reverted\");\n\n        emit TransactionExecuted(\n            txHash,\n            target,\n            value,\n            signature,\n            data,\n            block.timestamp\n        );\n\n        return returnData;\n    }\n\n    /**\n     * @dev Cancel a queued transaction\n     */\n    function cancelTransaction(\n        address target,\n        uint256 value,\n        string memory signature,\n        bytes memory data,\n        uint256 eta\n    ) external onlyRole(CANCELLER_ROLE) {\n        bytes32 txHash = keccak256(\n            abi.encode(target, value, signature, data, eta)\n        );\n\n        QueuedTransaction storage queuedTx = queuedTransactions[txHash];\n\n        require(\n            queuedTx.state == TransactionState.Queued,\n            \"Timelock: Transaction not queued\"\n        );\n\n        queuedTx.state = TransactionState.Cancelled;\n\n        emit TransactionCancelled(txHash);\n    }\n\n    /**\n     * @dev Get transaction state\n     */\n    function getTransactionState(\n        bytes32 txHash\n    ) external view returns (TransactionState) {\n        return queuedTransactions[txHash].state;\n    }\n\n    /**\n     * @dev Check if transaction is queued\n     */\n    function isQueued(bytes32 txHash) external view returns (bool) {\n        return queuedTransactions[txHash].state == TransactionState.Queued;\n    }\n\n    /**\n     * @dev Get queued transaction details\n     */\n    function getQueuedTransaction(\n        bytes32 txHash\n    )\n        external\n        view\n        returns (\n            address target,\n            uint256 value,\n            string memory signature,\n            bytes memory data,\n            uint256 eta,\n            TransactionState state\n        )\n    {\n        QueuedTransaction storage queuedTx = queuedTransactions[txHash];\n        return (\n            queuedTx.target,\n            queuedTx.value,\n            queuedTx.signature,\n            queuedTx.data,\n            queuedTx.eta,\n            queuedTx.state\n        );\n    }\n\n    /**\n     * @dev Get all queued transaction hashes\n     */\n    function getAllTransactionHashes()\n        external\n        view\n        returns (bytes32[] memory)\n    {\n        return transactionHashes;\n    }\n\n    /**\n     * @dev Get total number of transactions\n     */\n    function getTransactionCount() external view returns (uint256) {\n        return transactionHashes.length;\n    }\n\n    /**\n     * @dev Update delay (requires timelock itself)\n     */\n    function updateDelay(uint256 newDelay) external {\n        require(\n            msg.sender == address(this),\n            \"Timelock: Call must come from Timelock\"\n        );\n        require(\n            newDelay >= MINIMUM_DELAY && newDelay <= MAXIMUM_DELAY,\n            \"Timelock: Invalid delay\"\n        );\n\n        uint256 oldDelay = delay;\n        delay = newDelay;\n\n        emit DelayUpdated(oldDelay, newDelay);\n    }\n\n    /**\n     * @dev Receive ETH\n     */\n    receive() external payable {}\n\n    /**\n     * @dev Fallback function\n     */\n    fallback() external payable {}\n}\n",
  "sourcePath": "/home/shubham/dev/hackathon/NITHACKS_BLOCKCHAIN/blockchain/contracts/governance/Timelock.sol",
  "compiler": {
    "name": "solc",
    "version": "0.8.20+commit.a1b79de6.Emscripten.clang"
  },
  "schemaVersion": "3.4.16",
  "updatedAt": "2025-11-22T20:06:37.189Z",
  "networkType": "ethereum",
  "devdoc": {
    "details": "Time-delayed execution of governance proposals Provides security by requiring a delay between proposal approval and execution",
    "events": {
      "RoleAdminChanged(bytes32,bytes32,bytes32)": {
        "details": "Emitted when `newAdminRole` is set as ``role``'s admin role, replacing `previousAdminRole` `DEFAULT_ADMIN_ROLE` is the starting admin for all roles, despite {RoleAdminChanged} not being emitted signaling this. _Available since v3.1._"
      },
      "RoleGranted(bytes32,address,address)": {
        "details": "Emitted when `account` is granted `role`. `sender` is the account that originated the contract call, an admin role bearer except when using {AccessControl-_setupRole}."
      },
      "RoleRevoked(bytes32,address,address)": {
        "details": "Emitted when `account` is revoked `role`. `sender` is the account that originated the contract call:   - if using `revokeRole`, it is the admin role bearer   - if using `renounceRole`, it is the role bearer (i.e. `account`)"
      }
    },
    "kind": "dev",
    "methods": {
      "cancelTransaction(address,uint256,string,bytes,uint256)": {
        "details": "Cancel a queued transaction"
      },
      "executeTransaction(address,uint256,string,bytes,uint256)": {
        "details": "Execute a queued transaction after the delay has passed"
      },
      "getAllTransactionHashes()": {
        "details": "Get all queued transaction hashes"
      },
      "getQueuedTransaction(bytes32)": {
        "details": "Get queued transaction details"
      },
      "getRoleAdmin(bytes32)": {
        "details": "Returns the admin role that controls `role`. See {grantRole} and {revokeRole}. To change a role's admin, use {_setRoleAdmin}."
      },
      "getTransactionCount()": {
        "details": "Get total number of transactions"
      },
      "getTransactionState(bytes32)": {
        "details": "Get transaction state"
      },
      "grantRole(bytes32,address)": {
        "details": "Grants `role` to `account`. If `account` had not been already granted `role`, emits a {RoleGranted} event. Requirements: - the caller must have ``role``'s admin role. May emit a {RoleGranted} event."
      },
      "hasRole(bytes32,address)": {
        "details": "Returns `true` if `account` has been granted `role`."
      },
      "isQueued(bytes32)": {
        "details": "Check if transaction is queued"
      },
      "queueTransaction(address,uint256,string,bytes,uint256)": {
        "details": "Queue a transaction for execution after delay"
      },
      "renounceRole(bytes32,address)": {
        "details": "Revokes `role` from the calling account. Roles are often managed via {grantRole} and {revokeRole}: this function's purpose is to provide a mechanism for accounts to lose their privileges if they are compromised (such as when a trusted device is misplaced). If the calling account had been revoked `role`, emits a {RoleRevoked} event. Requirements: - the caller must be `account`. May emit a {RoleRevoked} event."
      },
      "revokeRole(bytes32,address)": {
        "details": "Revokes `role` from `account`. If `account` had been granted `role`, emits a {RoleRevoked} event. Requirements: - the caller must have ``role``'s admin role. May emit a {RoleRevoked} event."
      },
      "supportsInterface(bytes4)": {
        "details": "See {IERC165-supportsInterface}."
      },
      "updateDelay(uint256)": {
        "details": "Update delay (requires timelock itself)"
      }
    },
    "title": "Timelock",
    "version": 1
  },
  "userdoc": {
    "kind": "user",
    "methods": {},
    "version": 1
  }
}