{
  "contractName": "ZKPVerifier",
  "abi": [
    {
      "inputs": [
        {
          "internalType": "address",
          "name": "_ageVerifier",
          "type": "address"
        },
        {
          "internalType": "address",
          "name": "_credentialVerifier",
          "type": "address"
        },
        {
          "internalType": "address",
          "name": "_rankVerifier",
          "type": "address"
        }
      ],
      "stateMutability": "nonpayable",
      "type": "constructor"
    },
    {
      "anonymous": false,
      "inputs": [
        {
          "indexed": true,
          "internalType": "string",
          "name": "verifierType",
          "type": "string"
        },
        {
          "indexed": false,
          "internalType": "address",
          "name": "newAddress",
          "type": "address"
        }
      ],
      "name": "VerifierUpdated",
      "type": "event"
    },
    {
      "inputs": [],
      "name": "admin",
      "outputs": [
        {
          "internalType": "address",
          "name": "",
          "type": "address"
        }
      ],
      "stateMutability": "view",
      "type": "function",
      "constant": true
    },
    {
      "inputs": [],
      "name": "ageVerifierAddress",
      "outputs": [
        {
          "internalType": "address",
          "name": "",
          "type": "address"
        }
      ],
      "stateMutability": "view",
      "type": "function",
      "constant": true
    },
    {
      "inputs": [],
      "name": "credentialVerifierAddress",
      "outputs": [
        {
          "internalType": "address",
          "name": "",
          "type": "address"
        }
      ],
      "stateMutability": "view",
      "type": "function",
      "constant": true
    },
    {
      "inputs": [],
      "name": "rankVerifierAddress",
      "outputs": [
        {
          "internalType": "address",
          "name": "",
          "type": "address"
        }
      ],
      "stateMutability": "view",
      "type": "function",
      "constant": true
    },
    {
      "inputs": [
        {
          "internalType": "uint256[2]",
          "name": "a",
          "type": "uint256[2]"
        },
        {
          "internalType": "uint256[2][2]",
          "name": "b",
          "type": "uint256[2][2]"
        },
        {
          "internalType": "uint256[2]",
          "name": "c",
          "type": "uint256[2]"
        },
        {
          "internalType": "uint256[1]",
          "name": "input",
          "type": "uint256[1]"
        }
      ],
      "name": "verifyAgeProof",
      "outputs": [
        {
          "internalType": "bool",
          "name": "",
          "type": "bool"
        }
      ],
      "stateMutability": "view",
      "type": "function",
      "constant": true
    },
    {
      "inputs": [
        {
          "internalType": "uint256[2]",
          "name": "a",
          "type": "uint256[2]"
        },
        {
          "internalType": "uint256[2][2]",
          "name": "b",
          "type": "uint256[2][2]"
        },
        {
          "internalType": "uint256[2]",
          "name": "c",
          "type": "uint256[2]"
        },
        {
          "internalType": "uint256[2]",
          "name": "input",
          "type": "uint256[2]"
        }
      ],
      "name": "verifyCredentialProof",
      "outputs": [
        {
          "internalType": "bool",
          "name": "",
          "type": "bool"
        }
      ],
      "stateMutability": "view",
      "type": "function",
      "constant": true
    },
    {
      "inputs": [
        {
          "internalType": "uint256[2]",
          "name": "a",
          "type": "uint256[2]"
        },
        {
          "internalType": "uint256[2][2]",
          "name": "b",
          "type": "uint256[2][2]"
        },
        {
          "internalType": "uint256[2]",
          "name": "c",
          "type": "uint256[2]"
        },
        {
          "internalType": "uint256[3]",
          "name": "input",
          "type": "uint256[3]"
        }
      ],
      "name": "verifyRankProof",
      "outputs": [
        {
          "internalType": "bool",
          "name": "",
          "type": "bool"
        }
      ],
      "stateMutability": "view",
      "type": "function",
      "constant": true
    },
    {
      "inputs": [
        {
          "internalType": "address",
          "name": "newAddress",
          "type": "address"
        }
      ],
      "name": "updateAgeVerifier",
      "outputs": [],
      "stateMutability": "nonpayable",
      "type": "function"
    },
    {
      "inputs": [
        {
          "internalType": "address",
          "name": "newAddress",
          "type": "address"
        }
      ],
      "name": "updateCredentialVerifier",
      "outputs": [],
      "stateMutability": "nonpayable",
      "type": "function"
    },
    {
      "inputs": [
        {
          "internalType": "address",
          "name": "newAddress",
          "type": "address"
        }
      ],
      "name": "updateRankVerifier",
      "outputs": [],
      "stateMutability": "nonpayable",
      "type": "function"
    },
    {
      "inputs": [],
      "name": "getVerifiers",
      "outputs": [
        {
          "internalType": "address",
          "name": "",
          "type": "address"
        },
        {
          "internalType": "address",
          "name": "",
          "type": "address"
        },
        {
          "internalType": "address",
          "name": "",
          "type": "address"
        }
      ],
      "stateMutability": "view",
      "type": "function",
      "constant": true
    }
  ],
  "bytecode": "0x608060405234801561001057600080fd5b50604051610e0b380380610e0b83398101604081905261002f916101c7565b6001600160a01b0383166100945760405162461bcd60e51b815260206004820152602160248201527f5a4b5056657269666965723a20496e76616c69642061676520766572696669656044820152603960f91b60648201526084015b60405180910390fd5b6001600160a01b0382166100fb5760405162461bcd60e51b815260206004820152602860248201527f5a4b5056657269666965723a20496e76616c69642063726564656e7469616c206044820152673b32b934b334b2b960c11b606482015260840161008b565b6001600160a01b03811661015c5760405162461bcd60e51b815260206004820152602260248201527f5a4b5056657269666965723a20496e76616c69642072616e6b2076657269666960448201526132b960f11b606482015260840161008b565b600080546001600160a01b039485166001600160a01b0319918216179091556001805493851693821693909317909255600280549190931690821617909155600380549091163317905561020a565b80516001600160a01b03811681146101c257600080fd5b919050565b6000806000606084860312156101dc57600080fd5b6101e5846101ab565b92506101f3602085016101ab565b9150610201604085016101ab565b90509250925092565b610bf2806102196000396000f3fe608060405234801561001057600080fd5b50600436106100a95760003560e01c8063617c255211610071578063617c25521461013c578063a935e7661461014f578063b807136014610182578063ba06e9cb14610195578063dbac6fb5146101a8578063f851a440146101bb57600080fd5b80630eb5aa34146100ae5780632ae6e35a146100de57806330c16a2214610101578063378211f3146101165780635c8684ae14610129575b600080fd5b6000546100c1906001600160a01b031681565b6040516001600160a01b0390911681526020015b60405180910390f35b6100f16100ec36600461079b565b6101ce565b60405190151581526020016100d5565b61011461010f3660046107f5565b6102f8565b005b6001546100c1906001600160a01b031681565b6101146101373660046107f5565b6103c0565b6100f161014a366004610825565b610440565b600054600154600254604080516001600160a01b03948516815292841660208401529216918101919091526060016100d5565b6002546100c1906001600160a01b031681565b6101146101a33660046107f5565b61053e565b6100f16101b63660046108dd565b6105bd565b6003546100c1906001600160a01b031681565b600154604051600091829182916001600160a01b0316906101f9908990899089908990602401610a16565b60408051601f198184030181529181526020820180516001600160e01b0316637ae4eb4f60e11b1790525161022e9190610a56565b600060405180830381855afa9150503d8060008114610269576040519150601f19603f3d011682016040523d82523d6000602084013e61026e565b606091505b5091509150816102d95760405162461bcd60e51b815260206004820152602b60248201527f5a4b5056657269666965723a2043726564656e7469616c20766572696669636160448201526a1d1a5bdb8819985a5b195960aa1b60648201526084015b60405180910390fd5b808060200190518101906102ed9190610a85565b979650505050505050565b6003546001600160a01b031633146103225760405162461bcd60e51b81526004016102d090610aa7565b6001600160a01b0381166103485760405162461bcd60e51b81526004016102d090610ad7565b600180546001600160a01b0319166001600160a01b0383161790556040516910d4915111539512505360b21b8152600a015b6040519081900381206001600160a01b0383168252907f3b3bce7d23bc0b93a76a122bc1b04f3fccfb8518ae2e4b5d24c639bf5460e0609060200160405180910390a250565b6003546001600160a01b031633146103ea5760405162461bcd60e51b81526004016102d090610aa7565b6001600160a01b0381166104105760405162461bcd60e51b81526004016102d090610ad7565b600280546001600160a01b0319166001600160a01b0383161790556040516352414e4b60e01b815260040161037a565b60008054604051829182916001600160a01b039091169061046b908990899089908990602401610b0e565b60408051601f198184030181529181526020820180516001600160e01b03166343753b4d60e01b179052516104a09190610a56565b600060405180830381855afa9150503d80600081146104db576040519150601f19603f3d011682016040523d82523d6000602084013e6104e0565b606091505b5091509150816102d95760405162461bcd60e51b8152602060048201526024808201527f5a4b5056657269666965723a2041676520766572696669636174696f6e2066616044820152631a5b195960e21b60648201526084016102d0565b6003546001600160a01b031633146105685760405162461bcd60e51b81526004016102d090610aa7565b6001600160a01b03811661058e5760405162461bcd60e51b81526004016102d090610ad7565b600080546001600160a01b0319166001600160a01b0383161790556040516241474560e81b815260030161037a565b600254604051600091829182916001600160a01b0316906105e8908990899089908990602401610b6b565b60408051601f198184030181529181526020820180516001600160e01b03166308a3cff560e11b1790525161061d9190610a56565b600060405180830381855afa9150503d8060008114610658576040519150601f19603f3d011682016040523d82523d6000602084013e61065d565b606091505b5091509150816102d95760405162461bcd60e51b815260206004820152602560248201527f5a4b5056657269666965723a2052616e6b20766572696669636174696f6e2066604482015264185a5b195960da1b60648201526084016102d0565b634e487b7160e01b600052604160045260246000fd5b6040805190810167ffffffffffffffff811182821017156106f6576106f66106bd565b60405290565b600082601f83011261070d57600080fd5b6107156106d3565b80604084018581111561072757600080fd5b845b81811015610741578035845260209384019301610729565b509095945050505050565b600082601f83011261075d57600080fd5b6107656106d3565b80608084018581111561077757600080fd5b845b818110156107415761078b87826106fc565b8452602090930192604001610779565b60008060008061014085870312156107b257600080fd5b6107bc86866106fc565b93506107cb866040870161074c565b92506107da8660c087016106fc565b91506107ea8661010087016106fc565b905092959194509250565b60006020828403121561080757600080fd5b81356001600160a01b038116811461081e57600080fd5b9392505050565b60008060008061012080868803121561083d57600080fd5b61084787876106fc565b9450610856876040880161074c565b93506108658760c088016106fc565b92508661011f87011261087757600080fd5b604051602080820182811067ffffffffffffffff8211171561089b5761089b6106bd565b6040529187019181898411156108b057600080fd5b61010089015b848110156108cd57803582529082019082016108b6565b5096999598509396509450505050565b6000806000806101608086880312156108f557600080fd5b6108ff87876106fc565b945061090e876040880161074c565b935061091d8760c088016106fc565b92508661011f87011261092f57600080fd5b6040516060810181811067ffffffffffffffff82111715610952576109526106bd565b60405290860190808883111561096757600080fd5b61010088015b8381101561098557803582526020918201910161096d565b5050809250505092959194509250565b8060005b60028110156109b8578151845260209384019390910190600101610999565b50505050565b806000805b60028082106109d25750610a0f565b835186845b838110156109f55782518252602092830192909101906001016109d7565b5050506040959095019450602092909201916001016109c3565b5050505050565b6101408101610a258287610995565b610a3260408301866109be565b610a3f60c0830185610995565b610a4d610100830184610995565b95945050505050565b6000825160005b81811015610a775760208186018101518583015201610a5d565b506000920191825250919050565b600060208284031215610a9757600080fd5b8151801515811461081e57600080fd5b6020808252601690820152752d25a82b32b934b334b2b91d102737ba1030b236b4b760511b604082015260600190565b6020808252601c908201527f5a4b5056657269666965723a20496e76616c6964206164647265737300000000604082015260600190565b6101208101610b1d8287610995565b610b2a60408301866109be565b610b3760c0830185610995565b61010082018360005b6001811015610b5f578151835260209283019290910190600101610b40565b50505095945050505050565b6101608101610b7a8287610995565b610b8760408301866109be565b610b9460c0830185610995565b61010082018360005b6003811015610b5f578151835260209283019290910190600101610b9d56fea2646970667358221220d87b0a70333fe10d5d7f633fd2a877c5f4c14837a9680fcfb3642f9d0006707764736f6c63430008140033",
  "immutableReferences": {},
  "source": "// SPDX-License-Identifier: MIT\npragma solidity ^0.8.0;\n\n/**\n * @title ZKPVerifier\n * @dev Interface for all ZK proof verifiers\n */\ninterface IZKPVerifier {\n    function verifyProof(\n        uint[2] memory a,\n        uint[2][2] memory b,\n        uint[2] memory c,\n        uint[] memory input\n    ) external view returns (bool);\n}\n\n/**\n * @title ZKPVerifier\n * @dev Main contract that aggregates all proof verifiers\n */\ncontract ZKPVerifier {\n    // Verifier contract addresses\n    address public ageVerifierAddress;\n    address public credentialVerifierAddress;\n    address public rankVerifierAddress;\n\n    // Admin\n    address public admin;\n\n    // Events\n    event VerifierUpdated(string indexed verifierType, address newAddress);\n\n    modifier onlyAdmin() {\n        require(msg.sender == admin, \"ZKPVerifier: Not admin\");\n        _;\n    }\n\n    constructor(\n        address _ageVerifier,\n        address _credentialVerifier,\n        address _rankVerifier\n    ) {\n        require(\n            _ageVerifier != address(0),\n            \"ZKPVerifier: Invalid age verifier\"\n        );\n        require(\n            _credentialVerifier != address(0),\n            \"ZKPVerifier: Invalid credential verifier\"\n        );\n        require(\n            _rankVerifier != address(0),\n            \"ZKPVerifier: Invalid rank verifier\"\n        );\n\n        ageVerifierAddress = _ageVerifier;\n        credentialVerifierAddress = _credentialVerifier;\n        rankVerifierAddress = _rankVerifier;\n        admin = msg.sender;\n    }\n\n    /**\n     * @dev Verify age proof\n     */\n    function verifyAgeProof(\n        uint[2] memory a,\n        uint[2][2] memory b,\n        uint[2] memory c,\n        uint[1] memory input\n    ) public view returns (bool) {\n        (bool success, bytes memory data) = ageVerifierAddress.staticcall(\n            abi.encodeWithSignature(\n                \"verifyProof(uint256[2],uint256[2][2],uint256[2],uint256[1])\",\n                a,\n                b,\n                c,\n                input\n            )\n        );\n\n        require(success, \"ZKPVerifier: Age verification failed\");\n        return abi.decode(data, (bool));\n    }\n\n    /**\n     * @dev Verify credential possession proof\n     */\n    function verifyCredentialProof(\n        uint[2] memory a,\n        uint[2][2] memory b,\n        uint[2] memory c,\n        uint[2] memory input\n    ) public view returns (bool) {\n        (bool success, bytes memory data) = credentialVerifierAddress\n            .staticcall(\n                abi.encodeWithSignature(\n                    \"verifyProof(uint256[2],uint256[2][2],uint256[2],uint256[2])\",\n                    a,\n                    b,\n                    c,\n                    input\n                )\n            );\n\n        require(success, \"ZKPVerifier: Credential verification failed\");\n        return abi.decode(data, (bool));\n    }\n\n    /**\n     * @dev Verify university rank proof\n     */\n    function verifyRankProof(\n        uint[2] memory a,\n        uint[2][2] memory b,\n        uint[2] memory c,\n        uint[3] memory input\n    ) public view returns (bool) {\n        (bool success, bytes memory data) = rankVerifierAddress.staticcall(\n            abi.encodeWithSignature(\n                \"verifyProof(uint256[2],uint256[2][2],uint256[2],uint256[3])\",\n                a,\n                b,\n                c,\n                input\n            )\n        );\n\n        require(success, \"ZKPVerifier: Rank verification failed\");\n        return abi.decode(data, (bool));\n    }\n\n    /**\n     * @dev Update age verifier address\n     */\n    function updateAgeVerifier(address newAddress) external onlyAdmin {\n        require(newAddress != address(0), \"ZKPVerifier: Invalid address\");\n        ageVerifierAddress = newAddress;\n        emit VerifierUpdated(\"AGE\", newAddress);\n    }\n\n    /**\n     * @dev Update credential verifier address\n     */\n    function updateCredentialVerifier(address newAddress) external onlyAdmin {\n        require(newAddress != address(0), \"ZKPVerifier: Invalid address\");\n        credentialVerifierAddress = newAddress;\n        emit VerifierUpdated(\"CREDENTIAL\", newAddress);\n    }\n\n    /**\n     * @dev Update rank verifier address\n     */\n    function updateRankVerifier(address newAddress) external onlyAdmin {\n        require(newAddress != address(0), \"ZKPVerifier: Invalid address\");\n        rankVerifierAddress = newAddress;\n        emit VerifierUpdated(\"RANK\", newAddress);\n    }\n\n    /**\n     * @dev Get all verifier addresses\n     */\n    function getVerifiers() external view returns (address, address, address) {\n        return (\n            ageVerifierAddress,\n            credentialVerifierAddress,\n            rankVerifierAddress\n        );\n    }\n}\n",
  "sourcePath": "/home/shubham/dev/hackathon/NITHACKS_BLOCKCHAIN/blockchain/contracts/zkp/ZKPVerifier.sol",
  "compiler": {
    "name": "solc",
    "version": "0.8.20+commit.a1b79de6.Emscripten.clang"
  },
  "schemaVersion": "3.4.16",
  "updatedAt": "2025-11-22T20:06:38.164Z",
  "networkType": "ethereum",
  "devdoc": {
    "details": "Main contract that aggregates all proof verifiers",
    "kind": "dev",
    "methods": {
      "getVerifiers()": {
        "details": "Get all verifier addresses"
      },
      "updateAgeVerifier(address)": {
        "details": "Update age verifier address"
      },
      "updateCredentialVerifier(address)": {
        "details": "Update credential verifier address"
      },
      "updateRankVerifier(address)": {
        "details": "Update rank verifier address"
      },
      "verifyAgeProof(uint256[2],uint256[2][2],uint256[2],uint256[1])": {
        "details": "Verify age proof"
      },
      "verifyCredentialProof(uint256[2],uint256[2][2],uint256[2],uint256[2])": {
        "details": "Verify credential possession proof"
      },
      "verifyRankProof(uint256[2],uint256[2][2],uint256[2],uint256[3])": {
        "details": "Verify university rank proof"
      }
    },
    "title": "ZKPVerifier",
    "version": 1
  },
  "userdoc": {
    "kind": "user",
    "methods": {},
    "version": 1
  }
}